:020000040800F2
:10000000E01901205D0200089F450008A72E0008A6
:100010009D4500082F040008114F00080000000053
:100020000000000000000000000000009D0100082A
:100030008905000800000000F9010008ED450008EE
:1000400077020008770200087702000877020008AC
:1000500077020008770200088B050008C705000832
:10006000CD050008D3050008D9050008770200086F
:10007000770200087702000877020008770200087C
:100080007702000877020008770200084D05000893
:10009000310400083505000841050008DF050008A7
:1000A000B946000895470008414700083547000851
:1000B000F5470008014800080D480008B52E000863
:1000C000A92E0008770200087702000877020008CE
:1000D0007702000877020008ED4E0008F94E00088C
:1000E000910500087702000877020008B54800086B
:1000F00005490008DD480008D148000877020008DB
:100100007702000877020008194800087702000803
:100110002D4C000877020008614800086D4800086F
:1001200077020008770200087702000877020008CB
:100130007702000877020008770200087D050008B2
:1001400059050008650500087105000877020008D8
:10015000770200087702000877020008054F0008C0
:10016000770200087702000877020008770200088B
:1001700077020008770200087702000800000000FC
:100180007702000877020008DFF80CD000F012F9BF
:1001900000480047E95B0008E01901202C4B196872
:1001A0000868B0E8F04F80F30988BFF36F8F4FF015
:1001B000000080F3118870470000000008480068C4
:1001C000006880F308884FF0000080F3148862B65E
:1001D00061B6BFF34F8FBFF36F8F00DF00BF00BF6B
:1001E00008ED00E0DFF80C00016841F470010160E7
:1001F000704700BF88ED00E0EFF30980BFF36F8F19
:10020000134B1A681EF0100F08BF20ED108A20E96A
:10021000F04F106009B44FF0500080F31188BFF325
:100220004F8FBFF36F8F07F031FA4FF0000080F36C
:10023000118809BC19680868B0E8F04F1EF0100F6B
:1002400008BFB0EC108A80F30988BFF36F8F704746
:1002500004010020EFF30580704700000648804746
:1002600006480047FEE7FEE7FEE7FEE7FEE7FEE79B
:10027000FEE7FEE7FEE7FEE79D460008890100086D
:100280002DE9F05F0546002092469B4688460646CB
:10029000814640241BE0284641464746224600F05E
:1002A00079F853465A46C01A914110D31146184660
:1002B000224600F060F82D1A67EB01084F462246EF
:1002C0000120002100F057F817EB00094E41201ED5
:1002D000A4F10104DFDC484631462A464346BDE826
:1002E000F09F40EA01039B0703D009E008C9121FF1
:1002F00008C0042AFAD203E011F8013B00F8013BE0
:10030000521EF9D27047D2B201E000F8012B491E0B
:10031000FBD270470022F6E710B513460A460446A2
:100320001946FFF7F0FF204610BD421C10F8011BD4
:100330000029FBD1801A7047034611F8012B00F801
:10034000012B002AF9D11846704730B50B460146FB
:1003500000202022012409E021FA02F59D4205D364
:1003600003FA02F5491B04FA02F52844151EA2F10E
:100370000102F1DC30BD202A04DB203A00FA02F150
:10038000002070479140C2F1200320FA03F3194383
:1003900090407047202A04DB203A21FA02F0002125
:1003A000704721FA02F3D040C2F120029140084385
:1003B00019467047064C074D06E0E06840F001031F
:1003C00094E8070098471034AC42F6D3FFF7E0FEFC
:1003D000648700088487000870B58C1810F8015BEA
:1003E00015F0070301D110F8013B2A1106D110F8CE
:1003F000012B03E010F8016B01F8016B5B1EF9D1D2
:100400002B0705D40023521E0DD401F8013BFAE757
:1004100010F8013BCB1A921C03E013F8015B01F8C2
:10042000015B521EF9D5A142D8D3002070BDFEE772
:1004300010B51F488EB00068002830D000211D483C
:1004400007AA0DF1010300F002FA08B100F0DBF891
:10045000194C2068002828D00021164800F0E6F941
:10046000024616A11AA004F055FD00231A4A694657
:10047000206807F009FB012801D018A100E01BA1AA
:1004800022A004F047FD14481C38C06938B1204947
:100490004FF080500860BFF34F8FBFF36F8F0EB0E7
:1004A0000448BDE8104000F046BA1AA1E8E7000091
:1004B000C4000020640D0020D00000207278206667
:1004C00069666F206C6576656C20697300000000BA
:1004D000257325640A000000F00000207175657521
:1004E00065206F766572666C6F77000073656E6469
:1004F000206D65737361676520746F207175657514
:100500006520616C726561647900000025730A00E2
:1005100004ED00E073656E64206D61737465722094
:100520006F72646572207175657565206572726F92
:1005300072000000014800F0FEB90000640D0020C8
:10054000014800F0F8B90000640D0020014800F0F7
:10055000F2B90000640D0020014800F0ECB9000081
:100560008C0D0020014800F0E6B900008C0D002041
:10057000014800F0E0B900008C0D0020014800F0B7
:10058000DAB900008C0D00207047012000F0C6BDD4
:1005900010B54FF4806000F0C1FD4FF4006000F032
:1005A000BDFD4FF4805000F0B9FD4FF4005000F055
:1005B000B5FD4FF4804000F0B1FDBDE810404FF4B0
:1005C000004000F0ABBD022000F0A8BD042000F008
:1005D000A5BD082000F0A2BD102000F09FBD10B501
:1005E000202000F09BFD402000F098FD802000F0CE
:1005F00095FD4FF4807000F091FDBDE810404FF480
:10060000007000F08BBD704790F82020012A07D0C1
:10061000022A05D0416A41F48021416201207047DD
:10062000006842690A43426100207047F0B590F8C3
:1006300020500468A468012D05D0022D03D0416A22
:1006400041F4802153E014F0406F01D1E5004BD517
:10065000C4F30164022C03D9416A41F4000146E06D
:100660000125A5401D608D684FF4C0739DB1CE6813
:1006700035434E6845EAC605066803EB0417F55195
:100680004FF4C275076805EB04150E697E51097DAC
:10069000012905D009E00E88CD6845EA4655EBE70B
:1006A00001684E5946F480764E511179D2F80550C2
:1006B0004FF4C67641EA0525016806EB04168D5114
:1006C0001178D2F801204FF4C47541EA0221026882
:1006D00005EB04155151006803EB0411425842F038
:1006E000010242500020F0BD416A41F40011416214
:1006F0000120F0BD10B590F82020012A07D0022A71
:1007000005D0416A41F480214162012010BD3B487F
:10071000D0F8002242F00102C0F80022D0F80022F6
:1007200022F47C52C0F80022D0F800224B6A42EA40
:100730000322C0F800220A7D02F01F0301229A4022
:10074000D0F81C329343C0F81C32CB69B3B9D0F84F
:100750000C329343C0F80C328C894B6864F31F430E
:100760004C6900EBC404C4F840320C890B6864F394
:100770001F434C6900EBC404C4F84432CB69012B1D
:1007800016D1D0F80C321343C0F80C320C884B68E9
:1007900064F31F434C6900EBC404C4F840320C8975
:1007A000CB6864F31F434C6900EBC404C4F84432C3
:1007B0008B69002BD0F804320ED01343C0F80432FA
:1007C0000B69002BD0F8143208D01343C0F8143250
:1007D000096A012904D008E09343EFE79343F5E762
:1007E000D0F81C121143C0F81C12D0F8001221F0EE
:1007F0000101C0F80012002010BD0000006400409C
:1008000010B504000ED000F04FFB204600F01EFA99
:100810002068016841F4004101600020606284F8B2
:10082000200010BD012010BD7047000002460020CE
:1008300092F82030012B01D0022B05D1106821B194
:10084000D0F8100000F003007047C068FAE730B538
:1008500090F82040012C05D0022C03D0416A41F4CD
:1008600080215DE00468002955D02469A40754D094
:100870004FF4D874056804EB01142D5915F00405E4
:10088000956005682D594ED0ED08556005682C59C6
:1008900004F00204D4604FF4DA74056804EB011428
:1008A0002D5905F00F05156105682D59C5F307256C
:1008B000956105682C59240C54614FF4DC7204686E
:1008C00002EB0112A4581C700468A458240A5C703E
:1008D0000468A458240C9C700468A258120EDA70A4
:1008E0004FF4DE72046802EB0112A4581C71046814
:1008F000A458240A5C710468A458240C9C710468F0
:10090000A258120EDA71006881B1016941F020012C
:100910000161002030BDE468A8E7416A41F400119C
:100920004162012030BD6D0D1560AFE7C16841F037
:100930002001C160EDE72DE9F05F05460068002465
:100940004669D0F804908768D0F80CB0D0F810A0B1
:10095000D0F81880F10748D0F90714D00121816040
:10096000B80703D5284600F0D0FA0CE0780702D586
:100970004FF4006407E0380702D54FF4805402E0DA
:10098000284600F0C1FAF80516D529684FF48070A2
:100990008860B80503D5284600F0B9FA0CE0780560
:1009A00002D544F4005407E0380502D544F48044ED
:1009B00002E0284600F0AAFAF80316D529684FF499
:1009C00080308860B80303D5284600F0A2FA0CE016
:1009D000780302D544F4004407E0380302D544F418
:1009E000803402E0284600F093FA300707D55FEA2A
:1009F000CB6004D52968102044F40074C8607007E7
:100A00004FF0080707D55FEA0B7004D52868C76068
:100A1000284600F017FAB00706D52868C068800796
:100A200002D0284600F00FFA700607D55FEACA60C8
:100A300004D52968102044F480640861B00607D505
:100A40005FEA0A7004D528680761284600F0FCF9BF
:100A5000F00606D528680069800702D0284600F015
:100A6000F4F9B00308D55FEAC96005D529681020FC
:100A70004860284600F0EAF9F00307D55FEA0970FC
:100A800004D528684760284600F044FA300446D56B
:100A90005FEA497040D5F00504D55FEAC87001D01F
:100AA00044F00104B00504D55FEA887001D544F034
:100AB0000204700504D55FEA487001D544F00404CF
:100AC000300529D518F0700F26D008F070004028A6
:100AD00015D006DC102809D020280AD0302816D1DD
:100AE0000AE050280ED0602811D10EE044F008042E
:100AF0000DE044F010040AE044F0200407E044F064
:100B0000400404E044F0800401E044F48074286868
:100B1000816921F070018161296804204860002CFE
:100B200005D0686A204368622846FFF77DFEBDE86D
:100B3000F09F70B5040003D094F8200010B104E0D9
:100B4000012070BD204600F0CDF82068016821F03A
:100B50000201016000F0D4FB0546052604E000F028
:100B6000CFFB401B0A2811D8206840688007F6D4C4
:100B70002068016841F00101016000F0C1FB0546F9
:100B80000BE000F0BDFB401B0A2806D9606A40F468
:100B90000030606284F82060D2E720684068C007B7
:100BA000EFD0207E0128206801683DD021F080012F
:100BB0000160607E01282068016838D021F0400182
:100BC0000160A07E01282068016833D021F0200157
:100BD0000160E07E0128206801682ED041F01001FC
:100BE0000160207F01282068016829D021F00801D8
:100BF0000160607F01282068016824D021F0040191
:100C00000160D4E902010843D4E904121143084306
:100C10006168491E08432168C861002060620120A4
:100C200084F82000002070BD41F08001C0E741F051
:100C30004001C5E741F02001CAE721F01001CFE7EC
:100C400041F00801D4E741F00401D9E710B5204A8A
:100C500003681E4C10681F49401EA34215D1106046
:100C600018B9086820F0007008604FF4C0511A48A5
:100C700000F09EF9132000F0E7FF142000F0E4FFDD
:100C8000152000F0E1FF16201BE0144CA3421CD1FC
:100C90000B6823F080630B60106018B9086820F0BF
:100CA000007008604FF440510D4800F081F93F207A
:100CB00000F0CAFF402000F0C7FF412000F0C4FF51
:100CC0004220BDE8104000F0BFBF10BD00640040EE
:100CD00090000020403802400000024000680040C0
:100CE00000040240F0B587B0044614216846FFF7BF
:100CF00011FB4F4B4F48DFF834E11968D4F800C0BE
:100D00004C4A02250326092710300024491CF445CB
:100D10003CD11960012907D1016841F000710160DF
:100D2000006800F000700590106840F0010010604D
:100D3000106802AB00F0010005904FF4C050CDE9FF
:100D4000000583E8D00069463B4800F0F3F9002233
:100D50000521132000F096FF132000F086FF0022EB
:100D60000521142000F08EFF142000F07EFF0022E9
:100D70000521152000F086FF152000F076FF0022E7
:100D80000521162000F07EFF16204BE0DFF8ACE0D6
:100D9000F44549D1D0F800C04CF0806CC0F800C0D8
:100DA000D0F800C001290CF0806CCDF814C0196097
:100DB00007D1016841F000710160006800F0007027
:100DC0000590106840F002001060106802AB00F05F
:100DD000020005904FF44050CDE9000583E8D000B3
:100DE0006946174800F0A6F9002205213F2000F0CF
:100DF00049FF3F2000F039FF00220521402000F08C
:100E000041FF402000F031FF00220521412000F089
:100E100039FF412000F029FF00220521422000F087
:100E200031FF422000F021FF07B0F0BD0064004018
:100E3000900000203038024000000240006800406E
:100E400000040240704770477047704770470000C9
:100E500070B5044690F82000012804D0606A40F480
:100E60000020606218E0022084F8200020680168F9
:100E700021F00101016000F043FA05460EE000BFD9
:100E800000F03EFA401B0A2808D9606A40F400309E
:100E90006062052084F82000012070BD2068406851
:100EA000C007EDD1606270BD70B5044690F82000B7
:100EB000022804D0606A40F48010606214E0206868
:100EC000016841F00101016000F01AFA05460DE0E9
:100ED00000F016FA401B0A2808D9606A40F4003076
:100EE0006062052084F82000012070BD2068406801
:100EF000C007EDD02068016821F0020101600120E7
:100F000084F82000002070BD70477047704770471C
:100F100070477047704710B5040002D0607910B177
:100F200006E0012010BD00202071204600F004F8EA
:100F300001206071002010BD08B500680649884294
:100F400008D10648016841F480510160006800F44E
:100F50008050009008BD0000003002403038024050
:100F600090F83510022903D0802141650120704797
:100F7000052180F835100068016821F00101016049
:100F80000020704790F835007047000070B50446A7
:100F900000F0B6F90546601C02D00448007804440D
:100FA00000F0AEF9401BA042FAD370BDF40000205F
:100FB0002DE9F04F0022DFF838B101264FF00F097C
:100FC00006FA02F401EA0403A3427DD122F00307EA
:100FD0005F44D7F8088895074FEA157C09FA0CFAA0
:100FE0000AEA0805DFF80C81404502D14FF00008FD
:100FF00032E0DFF80481404502D14FF001082BE0D8
:10100000DFF8F880404502D14FF0020824E0DFF815
:10101000F080404502D14FF003081DE0DFF8E48086
:10102000404502D14FF0040816E0DFF8DC8040456F
:1010300002D14FF005080FE0DFF8D080404502D123
:101040004FF0060808E0DFF8C880404502D14FF0B5
:10105000070801E04FF0080808FA0CF8A84522D16B
:101060002C4DD5F800C02CEA030CC5F800C005F1E2
:10107000040CDCF800509D43CCF800500CF1040542
:10108000D5F800C02CEA030CC5F800C02D1DD5F81A
:1010900000C02CEA030CC5F800C0D7F8085825EAB0
:1010A0000A05C7F80858056857000323BB409D434D
:1010B0000560D50800EB8505D5F820C057074FEA35
:1010C000D76809FA08F700E00CE02CEA070CC5F82D
:1010D00020C0C5689D43C5604568A54345608468D8
:1010E0009C438460521C102AFFF46AAFBDE8F08F65
:1010F00000300140000002400004024000080240AD
:10110000000C02400010024000140240001802408F
:10111000001C0240003C014070470000044910B52B
:101120000A68024202D00860FFF7F6FF10BD000017
:10113000143C01402DE9F84F00224FF0010803252F
:101140004FF00F0E0B6808FA02F42340A3426ED151
:101150004E68012E05D0022E03D0112E01D0122E82
:1011600012D186684FEA420C05FA0CF7BE43CF68ED
:1011700007FA0CF7374387604668A6430C79C4F337
:101180000014944034434460C668570005FA07FCD5
:101190008C6826EA0C06BC403443C4604C68022CC0
:1011A00001D0122C13D1D40800EB8404A346D4F848
:1011B000209054074FEAD46A0EFA0AF629EA060983
:1011C0000E6906FA0AF646EA0906CBF820600668B8
:1011D0000C7926EA0C0604F00304BC403443046096
:1011E0004C68E40065D5364C266846F48046266097
:1011F000246822F0030604F480440094314C344403
:10120000A446D4F808489607370F0EFA07F6B443F9
:101210002D4EB04201D1002624E02C4EB04201D127
:1012200001261FE02A4EB04202D102261AE040E019
:10123000284EB04201D1032614E0274EB04201D11E
:1012400004260FE0254EB04201D105260AE0244EC7
:10125000B04201D1062605E0224EB04201D1072658
:1012600000E00826BE402643CCF808681E4E3468CD
:101270004F689C43FF0300D51C4334601A4C241D67
:1012800026684F689E43BF0300D51E432660164E56
:10129000083634684F689C43FF0200D51C43346015
:1012A000114E0C3634684F689C43BF0200D51C4376
:1012B0003460521C102AFFF445AFBDE8F88F0000DF
:1012C0004438024000300140000002400004024067
:1012D00000080240000C02400010024000140240CE
:1012E00000180240001C0240003C01400069084018
:1012F00000D0012070470AB1816170470904FBE703
:101300000148806870470000F40000207047704773
:101310002DE9F041016804464A694E6890F83E00A4
:101320000025D743FA0506D4F243D20503D46FF45F
:10133000807201254A61B90508D4F143C90505D475
:1013400022686FF4007145F002055161790525D4DA
:10135000F143C90522D4638D94F83D10226B2028F7
:1013600008D13BB9212910D029290ED0282901D133
:10137000212A0AD022686FF48061516145F004058A
:10138000102806D0402804D008E0204602F0C2F918
:1013900004E02068016841F400710160380508D458
:1013A000F043C00505D421686FF4006045F00805DE
:1013B0004861002D07D0206C284320642046BDE8FA
:1013C000F04101F0C1BDBDE8F0812DE9F0410268B6
:1013D00000245168C56A90F83E3090F83D60102BAB
:1013E0001CD0402B1AD0036C002B7ED053694FF0D9
:1013F0002805DB439F0779D4CF43BF0576D4016C22
:1014000001B1946990F83D3000219D430B467FD097
:10141000C91E516180F83C30BDE8F0819469536980
:101420004FF42A07DB435FEAC37C4FF02A4604D01F
:10143000BD42F1D0B542EFD010E0CD43AD050DD4A3
:10144000C16AB94201D1012103E0C16AB14201D1AF
:101450000821C162BDE8F04102F0E0B81D0716D4D2
:10146000CD43AD0513D4416CC9B21161416B11B9C3
:10147000826B002AD0D0C96B19B9816BC96B002966
:10148000CAD00068416841F400614160C4E79D072B
:1014900006D4CD43AD0503D4BDE8F04102F032B827
:1014A000E443526864074FEA025215D4002AB3DBC2
:1014B0001A0608D4CA43520505D45A0705D5BDE813
:1014C000F04101F0C3BF5A07A6D4C9438905A3D48C
:1014D000BDE8F04101F070BF002A9DDB5A060CD434
:1014E000CA43520509D45A0702E00FE023E00FE097
:1014F00005D5BDE8F04101F051BE5A078CD4C9436F
:10150000890589D4BDE8F04101F0DFBD94696DE73C
:10151000556825F480655560E243540700D50121E4
:10152000120601D5828900E0028B80F83C3092B22D
:10153000FFF7EDFE70E7DC0606D4CC43A40503D428
:10154000BDE8F04102F028B9212E27D0292E25D060
:101550005C0655D4CC43640552D45B0752D590F851
:101560003D10438D002B91D01269436A1A70426A74
:10157000521C4262428D521E4285428D002A85D104
:101580002A29D7D101684A6822F480624A60222160
:10159000016380F83D5000F0DDFA3DE71C0623D4DE
:1015A000CC43640520D45B0720D590F83D10438DD3
:1015B000002BBFD0436A1B781361426A521C4262FF
:1015C000428D521E4285428D002AB3D12929B1D1C4
:1015D00001684A6822F480624A602121016380F830
:1015E0003D5000F0B8FA17E75B07A3D4C94389055B
:1015F000A0D4418D00299DD0416A097811610AE08B
:101600005B0797D4C943890594D4418D002991D0B3
:101610001169426A1170416A491C4162418D491E3B
:101620004185F9E67047000070B5040025D094F8B4
:101630003D00002520B984F83C50204600F044FAD3
:10164000242084F83D002068016821F00101016038
:101650002068016841F4004101602068016821F4BC
:101660000041016000F0FAFB4D4A6168914201D8E7
:101670004C4900E04C49884201D2012070BD4B49E1
:101680002368B0FBF1F15E6826F03F060E435E6012
:101690006368934206D94FF4967359434FF47A73B3
:1016A000B1FBF3F12368491C1E6A26F03F06314363
:1016B00019626168914210D84900401EB0FBF1F2F6
:1016C000521CC2F30B02042A01D2042022E0B0FB18
:1016D000F1F0401CC0F30B001CE0A268F2B301EB78
:1016E000C10303EB0116431EB3FBF6F35B1C43F48B
:1016F00080431B0549D092B301EBC10202EB0111FB
:10170000401EB0FBF1F0401CC0F30B0040F48040E1
:1017100040F400402168CA694CF6FF739A431043B5
:10172000C861D4E9071001432068026822F0C002B2
:1017300011430160D4E9030101432068826848F243
:10174000FF339A4311438160D4E9050108432168BE
:10175000CA6822F0FF021043C86001E00EE016E004
:101760002068016841F0010101602564202084F8AF
:101770003D00256384F83E50002070BD01EB41061A
:10178000431EB3FBF6F35B1CB3E70120C2E701EB9A
:101790004101401EB0FBF1F0401CC0F30B00B7E765
:1017A000A086010080841E0000093D0040420F0019
:1017B00070477047704700002DE9F84F1F4690466C
:1017C0008A460446DDF82890FFF79AFD054694F80E
:1017D0003D00202875D1192301226C49204600952F
:1017E00002F0AEF80028F5D194F83C00012868D04A
:1017F000012084F83C0020680168C90703D1016812
:1018000041F0010101602068016821F4006101607C
:10181000222084F83D00102084F83E000026266433
:10182000C4F824806785608D20855948E0622B4686
:101830004A465146204601F0FBFC002878D1208D15
:10184000544F68B1012814D002282068016816D0CE
:1018500041F480610160206841698069009087E0FF
:101860002068416981690091016841F4007101605B
:101870007EE02068016821F480610160F0E721F4D6
:10188000806101602068016841F40061E2E703289B
:1018900048D801280AD0022814D04B4600223946E5
:1018A0002046009502F04CF8D8BB27E02A4649466E
:1018B000204602F0C4F8A0BB20680069616A087085
:1018C0004DE061E04B46002239462046009502F08B
:1018D00037F830BB2068016841F40071016020686E
:1018E0000069616A0870606A401C6062218D491E4F
:1018F0002185618D491E618521682EE0206801687F
:1019000021F48061016020680069616A0870606A82
:10191000401C6062208D401E2085608D401E6085C9
:10192000D0E705E02A464946204602F088F810B183
:101930000120BDE8F88F20680069616A0870606A5C
:10194000401C6062218D491E2185618D491E618583
:1019500021684A69D24352070AD409690170606A52
:10196000401C6062208D401E2085608D401E608579
:10197000208D00288BD1202084F83D0084F83E6023
:1019800084F83C600020D4E70220D2E70200100077
:101990000000FFFF040001002DE9F84F1F469046AC
:1019A0008A460446DDF82890FFF7AAFC054694F81D
:1019B0003D0020287FD1192301224049204600956F
:1019C00001F0BEFF002876D194F83C00012872D0C7
:1019D000012084F83C0020680168C90703D1016830
:1019E00041F0010101602068016821F4006101609B
:1019F000212084F83D00102084F83E000026266453
:101A0000C4F824806785608D20852D48E0622B46D0
:101A10004A465146204601F081FC90B92068416950
:101A20008069009036E02A464946204602F03AF89E
:101A300050B1206C042804D12068016841F4007181
:101A400001600120BDE8F88F606A216800780861B4
:101A5000606A401C6062618D491E6185218D491E4E
:101A600089B2218522685369DB435B070BD451B1EE
:101A700000781061606A401C6062608D401E608565
:101A8000208D401E20852A464946204601F032FF1F
:101A90000028CED1208D0028C5D154F83D0B016817
:101AA00041F400710160202004F81E09E677667792
:101AB0000020C7E7FFE70220C4E700000200100093
:101AC0000000FFFF7047704710B586B00446142130
:101AD0006846FEF71FFC1C492068884231D11B482C
:101AE000016841F0020101600068694600F00200EF
:101AF00005904FF440700090122001900120029058
:101B000003200390042004901148FFF713FB0F48B3
:101B10001030016841F4001101600068002200F4F7
:101B20000010059005211F2000F0ACF81F2000F0E8
:101B30009CF800220521202000F0A4F8202000F0CD
:101B400094F806B010BD0000005400403038024048
:101B500000040240704770470248816802781144CF
:101B600081607047F40000200B4810B5016841F413
:101B700000710160016841F480610160016841F415
:101B800080710160032000F09DF8002000F006F84D
:101B900000F03EF8002010BD003C024010B50146A8
:101BA00088B00022362000F06DF8362000F05DF895
:101BB00013480024016841F010010160006805A984
:101BC00000F010000690684600F028F900F046F991
:101BD0000C494000B0FBF1F10C480B4A491E026071
:101BE00040F2E732C0E90324C0E9011400F0AAFB87
:101BF00010B1012008B010BD044800F0FDFCF9E769
:101C00004038024040420F000010004018C8002039
:101C10000C4882B0016841F480410160006800F422
:101C2000804000900748001F016841F0805101602A
:101C30000068002200F0805000900F21901E02B03A
:101C400000F020B84438024000280DDB00F01F02ED
:101C5000012191404009800000F1E020C0F880118E
:101C6000BFF34F8FBFF36F8F7047002809DB00F081
:101C70001F02012191404009800000F1E020C0F8DE
:101C800000117047F0B40E4B1B680C46C3F30223DF
:101C9000C3F10705042D00D90425191D072901D218
:101CA000002300E0DB1E012606FA05F1491E214053
:101CB00099409E40761E16403143F0BC03F04EB969
:101CC0000CED00E0064900F0070208684FF6FF033C
:101CD000184040EA0220034A1043086070470000A1
:101CE0000CED00E00000FA052DE9F0470E46050076
:101CF00065D0DFF81481D8F80000F7B200F00F00CB
:101D0000B04207D288F80070D8F8000000F00F0049
:101D1000B04254D128683D4C810712D5400703D505
:101D2000206840F4E05020602878000703D5206840
:101D300040F4604020602068A96820F0F00008436B
:101D400020602878C0072DD03049686808390128FC
:101D500012D0022813D0032811D00968890700295E
:101D60002DDA216821F0030101432160FFF7C8FA51
:101D7000814641F2883A0EE009688903EFE7096875
:101D80008901ECE7FFF7BCFAA0EB0901514502D944
:101D90000320BDE8F0872068696800F00C00B0EB14
:101DA000810FEFD1D8F80010404601F00F01B14289
:101DB00007D90770006800F00F00B04201D0012081
:101DC000E7E72878400705D52068E96820F4E05067
:101DD000084320602878000706D52068296920F488
:101DE000604040EAC100206000F058F82168084ACD
:101DF000C1F30311515CC8400649086006480068F9
:101E0000FFF7CCFE0020C4E7003C02400838024047
:101E10008C86000800010020F80000200F220260DC
:101E20000C4A136803F003034360136803F0F003E4
:101E30008360136803F4E053C36012684FF4E05307
:101E400003EAD20202610448006800F00F00086053
:101E50007047000008380240003C02400448054931
:101E600000680968044AC1F38221515CC840704788
:101E700000010020083802409C86000804480549FB
:101E800000680968044AC1F34231515CC840704798
:101E900000010020083802409C860008154810B553
:101EA000006810F00C02144813D01449042A0FD013
:101EB000082A0ED10F4C241F2268236802F03F022B
:101EC0005B0207D52068C0F38810A0FB010106E083
:101ED000084610BD2168C1F38811A1FB0001002351
:101EE000FEF7CEF92168C1F30141491C4900B0FB5E
:101EF000F1F010BD083802400024F40040787D0164
:101F00002DE9F84F040076D02078DFF838A3CE4DC5
:101F1000C00749D0DAF800105046C1F38101012909
:101F200008D00068C0F3810002280AD1281D00688B
:101F3000400206D52868800336D560680028E2D0C4
:101F400032E06068B0F5803F10D0B0F5A02F28686F
:101F500010D020F480302860286820F48020286089
:101F60006068A0B1FFF7CCF906460CE0286840F4A1
:101F70008030F4E740F480202860F7E7FFF7C0F9ED
:101F8000801B642873D828688003F7D50CE0FFF71E
:101F9000B7F9064605E000BFFFF7B2F9801B6428D9
:101FA000F0D828688003F7D42078DFF8A082800773
:101FB0004FF000093ED5DAF80010504611F00C0F32
:101FC00009D00068C0F3810002280BD19D48001F92
:101FD0000068400206D42868800715D5E06801280B
:101FE00009D111E0E068B8B10120C8F80000FFF79E
:101FF00087F9064605E020E1FFF782F9801B0228F9
:10200000C0D828688007F7D52868216920F0F80033
:1020100040EAC10028600DE0C8F80090FFF770F9B1
:10202000064604E0FFF76CF9801B02281FD82868D9
:102030008007F7D42078000722D5824E8448616952
:102040006C3671B101210160FFF75AF9074604E0CF
:10205000FFF756F9C01B022809D830688007F7D56A
:102060000EE0C0F80090FFF74BF9074605E082E06C
:10207000FFF746F9C01B02287DD830688007F7D4E7
:102080002078400768D5DFF8BCB100270BF1380B8A
:10209000DBF80000C0000BD4DBF8001041F08051E9
:1020A000CBF80010DBF80000012700F08050009012
:1020B000684E3068C00510D4306840F480703060DD
:1020C000FFF71EF9009005E0FFF71AF90099401A92
:1020D000022850D83068C005F6D55A4EA068683638
:1020E00001280FD00528306810D020F001003060A2
:1020F000306820F004003060A068B8B1FFF700F944
:1021000000900FE0306840F00100F4E740F0040078
:102110003060F7E7FFF7F4F80099411A41F2883090
:10212000814266D830688007F4D50EE0FFF7E8F802
:10213000009007E0FFF7E4F80099411A41F2883077
:10214000814256D830688007F4D42FB1DBF80010F4
:1021500021F08051CBF80010A069D0B3DAF800204C
:102160005146C2F38102022A4AD00228484607D0CB
:10217000C8F8600000E03CE0FFF7C2F804463BE02E
:102180004746C8F86000FFF7BBF8064605E000BF09
:10219000FFF7B6F8801B02282BD828688001F7D4F7
:1021A000D4E907010843A16A2B4A490802EB01411F
:1021B000626A41EA8211084394F82C1040EA0161F6
:1021C0002048001F016001203866FFF799F8044697
:1021D00005E034E0FFF794F8001B022809D82868CE
:1021E0008001F7D52BE000BFFFF78AF8001B02281B
:1021F00002D90320BDE8F88F28688001F4D41EE0DE
:102200000128F7D00868E26900F48001914214D1F6
:10221000226A00F03F0191420FD147F6C071626A15
:102220000140914209D1A26A00F44031914204D1A7
:10223000E16A00F07060884201D00120DAE70020F6
:10224000D8E700000838024000380240000047424A
:10225000800E4742007000400000FFFF704770474B
:1022600010B590F83C20012A22D0012280F83C20B1
:10227000CA688C6822F4407222434C6822F480625F
:1022800022430C6822F4006222430C6922F480523B
:1022900022434C6922F400522243C969002322F4EC
:1022A00080420A4301684A6480F83C30002010BD37
:1022B000022010BD70B590F83C20012A32D00124D4
:1022C00080F83C40022280F83D2003685A689D68EF
:1022D00022F070060A6832435A60134B02689A4231
:1022E00014D0B2F1804F11D0104B9A420ED0104B47
:1022F0009A420BD00F4B9A4208D00F4B9A4205D00E
:102300000E4B9A4202D00E4B9A4204D1496825F0F6
:1023100080031943916080F83D40002180F83C1013
:10232000084670BD022070BD00000140000400405E
:1023300000080040000C0040000401400040014043
:102340000018004010B5040003D094F83D0010B10F
:1023500007E0012010BD002084F83C00204600F07A
:102360000DF8022084F83D00211D206802F0F4FAE7
:10237000012084F83D00002010BD000008B5016870
:102380009048914A814226D1106840F001001060C7
:102390001068002200F00100009005211820FFF7CE
:1023A00071FC1820FFF761FC002205211920FFF7BE
:1023B00069FC1920FFF759FC002205211A20FFF7BC
:1023C00061FC1A20FFF751FC002205211B20FFF7BA
:1023D00059FC1B20F0E07C48001FB1F1804F11D068
:1023E0007A4B99421DD1016841F0020101600068F9
:1023F000002200F00200009005211D20FFF742FCA2
:102400001D20D9E0016841F001010160006800224F
:1024100000F00100009005211C20FFF733FC1C2078
:10242000CAE06B4B99420ED1016841F00401016092
:102430000068002200F00400009005211E20FFF734
:1024400021FC1E20B8E0634B99420ED1016841F097
:10245000080101600068002200F0080000900521DA
:102460003220FFF70FFC3220A6E05B4B99420ED1E1
:10247000016841F0200101600068002200F02000A6
:10248000009005213720FFF7FDFB372094E0534BE8
:10249000994226D1106840F00200106010680022B6
:1024A00000F00200009005212B20FFF7EBFB2B2012
:1024B000FFF7DBFB002205212C20FFF7E3FB2C209C
:1024C000FFF7D3FB002205212D20FFF7DBFB2D209A
:1024D000FFF7CBFB002205212E20FFF7D3FB2E2098
:1024E0006AE03F4B99420ED1106840F48030106092
:1024F0001068002200F48030009005211820FFF7BA
:10250000C1FB182058E0374B99420ED1106840F4B7
:10251000003010601068002200F4003000900521A7
:102520001920FFF7AFFB192046E02F4B99420ED13F
:10253000106840F4802010601068002200F48020B1
:10254000009005211A20FFF79DFB1A2034E0274A4E
:1025500091420ED1016841F0400101600068002203
:1025600000F04000009005212B20FFF78BFB2B2073
:1025700022E01F4A91420ED1016841F080010160C2
:102580000068002200F08000009005212C20FFF759
:1025900079FB2C2010E0174A914211D1016841F4D7
:1025A000807101600068002200F4807000900521B5
:1025B0002D20FFF767FB2D20BDE80840FFF755BB36
:1025C00008BD000000000140443802400004004003
:1025D00000080040000C00400014004000040140CE
:1025E0000040014000440140004801400018004004
:1025F000001C0040002000400168CA6842F001024F
:10260000CA600068816801F00701062903D00168EB
:1026100041F0010101600020704770B5044690F858
:102620003C00012817D0012584F83C50022084F892
:102630003D002068826822F0770222F47F428260A7
:102640000868502830D00DDC20284DD005DC98B328
:1026500010283BD148E0022070BD302844D04028EB
:1026600034D139E0602828D0702806D0B0F5805FDA
:102670002CD0B0F5005F29D10AE0CB68D1E9012167
:10268000206802F0DAF92068816841F0770109E0FA
:10269000CB68D1E90121206802F0CFF92068816878
:1026A00041F48041816011E0CA684968206802F005
:1026B00099FA5021206807E016E0CA684968206846
:1026C00002F0A1FA6021206802F0C1F984F83D50BF
:1026D000002084F83C0070BDCA684968206802F098
:1026E00081FA40212068EFE7226801461046EBE7B7
:1026F000704770B50446006801694FF00005C94392
:10270000890715D4C168C943890711D4E91E01613D
:1027100001202077206880698007204602D0FFF7DB
:10272000E7FF04E000F000F9204600F082F9257789
:1027300020680169C943490717D4C168C9434907DB
:1027400013D46FF0040101610220207720688069B2
:1027500010F4407F204602D0FFF7CAFF04E000F0EB
:10276000E3F8204600F065F9257720680169C94340
:10277000090716D4C168C943090712D46FF00801CC
:102780000161042020772068C0698007204602D0BC
:10279000FFF7AEFF04E000F0C7F8204600F049F96B
:1027A000257720680169C943C90617D4C168C943A0
:1027B000C90613D46FF0100101610820207720684A
:1027C000C06910F4407F204602D0FFF791FF04E07B
:1027D00000F0AAF8204600F02CF92577206801695E
:1027E000C943C90708D1C168C943C90704D1891EB3
:1027F0000161204600F040F920680169C9430906DB
:1028000009D4C168C943090605D46FF0800101618C
:102810002046FFF723FD20680169C943490609D412
:10282000C168C943490605D46FF0400101612046E3
:1028300000F02CF920680169C94389060BD4C168EE
:10284000C943890607D46FF0200101612046BDE825
:102850007040FFF704BD70BD30B587B00446142149
:102860006846FDF757FD24682848002228490223BE
:10287000012584420ED1086840F010000860086805
:1028800000F01000059048150090CDE9013269462E
:10289000204821E02048B4F1804F10D01F4DAC42B9
:1028A00020D10C6844F001040C60096801F00101BA
:1028B000059140210091CDE90132694623E00C6881
:1028C00044F001040C60096801F001010591202128
:1028D0000091CDE901326946CDE90325FEF72AFCD6
:1028E00007B030BD0E488442FAD1086840F00800B5
:1028F00008600868694600F008000590A014009080
:10290000CDE901320748CDE90323E7E700000140A4
:102910003038024000100240000002400004004035
:1029200000080040000C0240704770B5044690F863
:102930003C000D4601280DD0012684F83C600220A1
:1029400084F83D0042B1042A18D0082A2AD00C2A63
:102950004DD139E0022070BD206802F081F8206876
:10296000816941F0080181612068816921F00401D9
:102970008161206881692A69114311E0206802F0B1
:102980009FF82068816941F4006181612068816954
:1029900021F480618161206881692A6941EA02210C
:1029A000816124E0206802F0C1F82068C16941F02B
:1029B0000801C1612068C16921F00401C16120687A
:1029C000C1692A69114311E0206802F0E3F8206828
:1029D000C16941F40061C1612068C16921F480616D
:1029E000C1612068C1692A6941EA0221C16184F894
:1029F0003D60002084F83C0070BD10B5040003D099
:102A000094F83D0010B107E0012010BD002084F8CB
:102A10003C00204600F00CF8022084F83D00211D07
:102A2000206801F099FF012084F83D00002010BDCE
:102A30007047704710B504460068012201F0F0FFAE
:102A40000B492068884202D00A49884203D1416C70
:102A500041F4004141642068816801F007010629C2
:102A600003D0016841F001010160002010BD0000A9
:102A7000000001400004014000680349884201D180
:102A8000FFF76AB8704700000010004070477047B9
:102A900070B5026804461068D168536910F00F0FD2
:102AA00052D003F0010501F490762E435FD0C207A7
:102AB00005D0CA0503D5E26B42F00102E26342078A
:102AC00005D5DA0703D0E26B42F00202E263820727
:102AD00005D5DA0703D0E26B42F00402E263020795
:102AE00007D501F020022A4303D0E26B42F008022E
:102AF000E263E26B002A33D0800604D5880602D553
:102B0000204602F0AFF820684069E16BC0F3801006
:102B1000090700D428B3204602F096F820684169DE
:102B200049061AD5416921F040014161606BA0B1AD
:102B30001B490165606BFEF713FA002810D0606B2B
:102B4000016DBDE870400847830610D58B060ED591
:102B50002046BDE8704002F085B82046FFF797FF99
:102B600070BD2046FFF793FF0020E06370BD0306B1
:102B700006D50B0604D52046BDE8704002F052B9D8
:102B80004006F3D54806F1D5D168204621F0400132
:102B9000D160202184F8391000F084F970BD000064
:102BA000394C000870B5040004D094F839000025B1
:102BB00010B106E0012070BD84F83850204600F0C6
:102BC00023F8242084F839002068C16821F40051DA
:102BD000C160204602F092F82068016921F490411A
:102BE00001612068416921F02A0141612068C168C2
:102BF00041F40051C160E563202084F8390084F875
:102C00003A00002070BD00002DE9F04786B0044670
:102C100014216846FDF77EFB6B496A4B27686A4AB8
:102C200010390124022503266848DFF8A4A14FF0DB
:102C300008099F4231D1136843F4002313601268DE
:102C400002F4002205920A6842F001020A600A6852
:102C500002F0010205920A6842F004020A60096863
:102C6000CDE9004501F00401CDE90491CDE902462A
:102C70004F466946FEF75EFAE002CDE9000502AB79
:102C8000694683E8D0005046FEF754FA0022052139
:102C90003420FEF7F7FF342047E04B4BDFF8348158
:102CA0001B1D4FF0070C47451CD11A6842F010025B
:102CB0001A601A6802F0100205920A6842F00102D6
:102CC0000A60096802AA01F0010105914FF4C06190
:102CD000CDE9001582E850106946FEF72BFA06B0E0
:102CE000BDE8F087DFF8F080474521D1136843F451
:102CF00000331360126802F4003205920A6842F051
:102D000001020A60096802AB01F0010105910C2182
:102D1000CDE9001583E850106946FEF70BFA002252
:102D200005212620FEF7AEFF2620FEF79EFFD6E700
:102D30002A48874221D1106840F480201060106832
:102D400000F480200590086840F0080008600868DA
:102D500002AB00F0080005904FF44070CDE900058B
:102D600083E8501069461E48FEF7E4F90022052169
:102D70002720FEF787FF2720D7E71A488742AED1E2
:102D8000186840F020001860186800F020000590D6
:102D9000086840F004000860086802AA00F0040017
:102DA0000590C020CDE9000582E8500269465046F2
:102DB000FEF7C0F9002205214720FEF763FF4720F8
:102DC000B3E70000004C00404038024000000240E1
:102DD000000802400010014000440040004800404C
:102DE000000C02400014014070472DE9F8430446EE
:102DF00090F839001F4616460D46202850D1B5B12F
:102E0000AEB194F8380001284AD0012084F8380087
:102E10004FF00008C4F83C80212084F83900FEF708
:102E20006FFAA6848146E68484F8388026E0012083
:102E3000BDE8F883E08C401EE084A0684B46B0F506
:102E4000805F4FF000024FF080012046009703D0D2
:102E500002F019F8E8B90DE002F015F8C8B92888B1
:102E60002168C0F308004860206908B16D1C05E0C6
:102E7000AD1C03E0216815F8010B4860E08C0028C8
:102E8000D8D14B46002240212046009701F0FBFF9D
:102E900008B10320CCE7202084F839000020C7E7E0
:102EA0000220C5E77047FEE70148FEF731BA00008F
:102EB000C4C700200148FEF788BA0000C4C700203C
:102EC00010B5806B90F83D20436B002103B1D963AE
:102ED000836B03B1D96303681C6824F480641C60AD
:102EE0004185436B03B11965836B03B119650368B1
:102EF0001C6824F001041C6090F83D402023602CE5
:102F00000BD0282434EA02020FD080F83D3080F83C
:102F10003E1000BFFEF786FB10BD80F83D3080F804
:102F20003E100164FEF7F2F910BD0268136843F029
:102F3000010313600268136843F480631360016344
:102F400080F83D40E6E7000070B5044690F83D008B
:102F500094F83E10102906D1222804D121680A686D
:102F600022F400620A60282131EA00024FF00005D5
:102F70004FF0200626D021684968090503D460284F
:102F800001D084F83D60256384F83E502068416894
:102F9000090537D5416821F400614160606B90F804
:102FA00035203C49012A11D00165606BFDF7D8FF3F
:102FB00038B32068016821F00101016084F83D60A8
:102FC000606B1CE0256384F83D10DFE7A06B0165B2
:102FD000A06BFDF7C5FFA0B120684169C943490650
:102FE00005D40069616A0870606A401C60622068EC
:102FF000016821F00101016084F83D60A06B016D62
:10300000884710E094F83D10602910D04169C94309
:10301000490605D40069616A0870606A401C6062F4
:103020002046FEF7FFFA206CC1071CD115E084F89A
:103030003D6025644169C943490605D40069616A58
:103040000870606A401C60622068016821F001011C
:1030500001602046FEF75AF9E5E7810703D44107EE
:1030600001D4000704D52068416821F4E061416083
:1030700094F83D00216C49070BD5282809D1064852
:10308000E062256384F83D6084F83E502046FEF7F8
:103090008FFB70BDC12E00080000FFFF01684A6968
:1030A000D24352050FD46FF480624A61002140F888
:1030B000301F202242738173026942F004020261D0
:1030C0000173012070470020704710B5C26A438D1C
:1030D0000168042B06D0438D032B08D0438D022BAF
:1030E0001DD012E04A6822F480624A600CE04B680E
:1030F00023F480634B60042A06D0022A04D00168BE
:103100000A6822F480620A6001680969426A1170E3
:10311000416A491C4162418D491E418510BD012A09
:1031200030D0102A2ED0042A30D0022A2ED00A689D
:1031300042F400720A6001680969426A1170416ACA
:10314000491C4162428D521E4285026812690A7012
:10315000416A491C4162418D491E418501684A68A6
:1031600022F440724A60202180F83D1090F83E2001
:103170000021402A80F83E100CD012210163FEF796
:1031800018FB10BD0A6822F48062D3E70A6842F493
:103190008062CFE70163FEF795FC10BD10B590F893
:1031A0003D10222914D1418D032912D901680969E2
:1031B000426A1170416A491C4162418D491E418534
:1031C000418D032904D10068416821F48061416088
:1031D00010BDC26A022AFBD0012901D00029F7D113
:1031E00001680A6822F480620A6001684A6822F471
:1031F000E0624A6001680969426A1170416A491CCB
:103200004162418D491E4185202180F83D1090F892
:103210003E200021402A80F83E1004D01221016394
:10322000FEF7C7FA10BD0163FEF74CFC10BD0000AD
:103230002DE9F84F0446C06A1E4693460D462168A4
:103240000A6842F480620A60082807D0012805D085
:1032500010F5803F02D0206B112804D1206801684E
:1032600041F4807101604FF001195B46002249462C
:103270002046009600F064FB4FF4007840B12068CF
:103280000068C00501D5C4F840800320BDE8F88F70
:103290002069DFF884A0B0F5804F0FD006202168A8
:1032A00000EAD51747F0F000086133465A460AF1A4
:1032B0000601204600F078FB58BB03E0E8B240F07E
:1032C00001001CE02168E8B2086133465A465146C5
:1032D000204600F069FBE0B92068416981690091EE
:1032E000016841F4807101605B4600224946204636
:1032F000009600F025FB0028C1D147F0F1002168BD
:10330000086133465A465146204600F04DFB0028DE
:10331000BCD00120BAE7000002000100F8B5044665
:10332000C06A1E460D461746082807D0012805D05A
:1033300010F5803F02D0206B122804D1206801686C
:1033400041F480710160134600224FF001112046C4
:10335000009600F0F5FA40B120680068C00502D57B
:103360004FF4007020640320F8BD2069B0F5804F51
:103370000ED00620216800EAD51040F0F000086168
:1033800033463A460B49204600F00EFB78B902E07E
:1033900005F0FE0000E0E8B2216808610549334607
:1033A0003A46891F204600F0FFFA0028DCD00120B1
:1033B000F8BD00000800010010B5C26A90F83D1089
:1033C000212907D090F83E1040290FD1BDE81040C8
:1033D00000F06AB9418D51B1416A02680978116102
:1033E000416A491C4162418D491E418510BD20231F
:1033F0000021082A13D0202A11D012F5803F0ED0C8
:103400000268546824F4E06454601122026380F876
:103410003E1080F83D3000BFFEF7CCF910BD0268C9
:10342000546824F4E06454600268146844F400743E
:103430001460016380F83D3090F83E2080F83E1023
:10344000402AE9D1FEF73FFB10BD000010B590F80F
:103450003D1090F83E30C26A048DB4B1212903D0EA
:10346000402B11D122290FD1418DE1B390F83E10AC
:10347000402942D0416A026809781161416A491CB9
:103480004162418D491E418510BD2129E8D120238B
:103490000021082A13D0202A11D012F5803F0ED027
:1034A0000268546824F4E06454601122026380F8D6
:1034B0003E1080F83D3000BFFEF77CF910BD026879
:1034C000546824F4E06454600268146844F400749E
:1034D0001460016380F83D3090F83E2080F83E1083
:1034E000402AE9D100E002E0FEF7EDFA10BD0068E5
:1034F000416821F48061416010BDBDE8104000F0DA
:10350000D3B8000078B590F83E50C26A036B90F8CB
:103510003D6000240168222E7AD1066D0EB9402D3F
:1035200076D0056D1DB90569B5F5404F09D0458DBB
:1035300005B3468D384D012E0ED0438D022B3AD067
:103540005DE04A698A6900920A6842F480720A6002
:10355000016D491C016578BDAA4213D10A6822F4A5
:1035600080620A6001684A68120503D50A6822F47D
:10357000806216E04A698A6900920A6842F4007221
:103580000A6039E0082A10D0202A0ED0122B0AD067
:10359000042A03D0022A01D0102AE7D10A6842F493
:1035A00080620A6024E0012AE0D00A6822F4806286
:1035B0000A600168DEE7042A21D0022A1FD0102AFF
:1035C0001DD00B6823F480630B6001680B6843F423
:1035D00000630B6001684B681B0509D5AA4212D035
:1035E000012A10D0082A0ED0102A0CD0202A0AD086
:1035F00001684A6989690091046578BD08E00B6833
:1036000043F48063E5E74A6842F480524A60EFE79A
:10361000486988690090F0E70000FFFF90F83E10CD
:10362000402910D00169B1F5804F19D0016DA9B3BF
:10363000016D012910D1416C5FF0F10201F440717C
:1036400042EAD11106E0016D0029416C05D0C9B2F2
:1036500041F0010100680161704701F0FE01F9E7E6
:1036600090F83D102129416C09D0C9B241F0010107
:1036700002681161416B29B1C96B49B902E001F0DF
:10368000FE01F5E7816B0029E6D0C96B0029E3D084
:103690000068416841F4006141607047FFE7416C98
:1036A000F02201F44071CBE7016DC1B1016D012938
:1036B00023D0016D022911D190F83D10222923D089
:1036C00090F83D10212909D1416A026809781161F9
:1036D000416A491C4162418D491E41857047C16C58
:1036E0000129816C02D0C1F3072108E00268C9B248
:1036F0001161016D891C01657047816CC9B2026856
:103700001161016D491CF6E70068016841F48071A0
:10371000016070472DE9F04190F83D40C26A0023F6
:1037200020261C4F01686FF48065082A01D0202AEA
:1037300001D1282C04D0212C16D04D61BDE8F08198
:10374000C7624A6822F4E0624A6001684D6101681C
:103750000A6822F480620A60036380F83D6080F8A2
:103760003E30FEF725F8E9E7C7622122026380F8C0
:103770003D6080F83E304A6822F4E0624A600168A9
:103780004D6101680A6822F480620A60FEF7E3F97D
:10379000D4E700000000FFFFF8B590F83D60044654
:1037A0000068416821F4E0614160206800254169BA
:1037B0000091016841F0010101602068016821F475
:1037C0008061016020684168090520D5474F222E9D
:1037D00048D02A2E46D0616B096849686185618DA1
:1037E00019B1216C41F004012164416821F40061A8
:1037F0004160606BFDF7C6FB012808D0606B076570
:10380000606BFDF7ADFB10B1606B016D8847608D9B
:1038100008B320684169C943490708D40069616A4F
:103820000870606A401C6062608D401E6085206880
:103830004169C943490608D40069616A0870606A31
:10384000401C6062608D401E6085608D18B1206CE8
:1038500040F004002064206C00B32046BDE8F8402E
:10386000FFF772BBA16B096849686185618D19B169
:10387000216C41F004012164416821F40061416040
:10388000A06BFDF77FFB0128C1D0A06B0765A06B83
:10389000FDF766FB0028BAD0A06BB6E72A2E06D14A
:1038A0002563282084F83D002046FEF753F994F85C
:1038B0003D10202028290DD0216B222901D0222E55
:1038C00007D1256384F83D0084F83E502046FEF77A
:1038D00041F9F8BD0649E162256384F83D0084F8AA
:1038E0003E502046FDF764FFF8BD0000C12E0008E1
:1038F0000000FFFF70B516460D4604460DE0204659
:10390000FFF7CCFB08B1012070BD681C05D0FDF7A6
:10391000F7FC801BA84207D835B120684069C04336
:103920004007ECD4002070BD002044F8300F202167
:103930006173A073216941F0200121612073E2E7E6
:103940002DE9F0471E4690460D460446C1F3074751
:10395000DDF8209008E0701C06D0FDF7D1FCA0EB4C
:103960000900B0420FD876B12068012F18D08069C5
:1039700025EA00000004000C14D000214145EAD0E3
:103980000020BDE8F087002044F8300F202161734B
:10399000A073216941F02001216120730120F0E72B
:1039A0004069E5E70121E9E72DE9F0479A469146AC
:1039B0000E46044600254FF02008C1F3074725E0D6
:1039C00020684069C043400514D42068016841F470
:1039D0000071016021686FF480604861256384F89C
:1039E0003D8084F83E50206C40F00400206484F850
:1039F0003C501FE0B9F1FF3F08D0FDF781FCA0EB80
:103A00000A0149450CD8B9F1000F09D02068012FEF
:103A100013D0806926EA00000004000C0BD0CFE729
:103A200044F8305F84F80D80A573206940F02000D1
:103A3000206125730120BDE8F0874069EAE72DE9A0
:103A4000F041002590460E460446202717E04069C5
:103A5000C043C0060CD454F8301B6FF0100048610E
:103A600044F810596777A577206A2062257717E018
:103A7000FDF746FCA0EB0800B04208D83EB1206834
:103A80004169C9434906E2D40020BDE8F08144F809
:103A9000305F6773A573206940F0200020612573B3
:103AA0000120F2E770B516460D4604460DE02046AB
:103AB000FFF7F4FA08B1012070BD681C05D0FDF7CE
:103AC0001FFC801BA84207D835B120684069C0435D
:103AD0000006ECD4002070BD002044F8300F2021F7
:103AE0006173A073216941F0200121612073E2E735
:103AF0000D4810B50B490160102141600021816023
:103B0000C16001614161017641768176C1760177BC
:103B10004177FDF70EF8002803D0BDE81040FCF710
:103B200072BD10BD00640040640D00200D4810B54A
:103B30000B4901601021416000218160C160016179
:103B40004161017641768176C17601774177FCF754
:103B5000F0FF002803D0BDE81040FCF754BD10BDB5
:103B6000006800408C0D0020074910B5054808602A
:103B70000846FDF7D0F9002803D0BDE81040FCF757
:103B800042BD10BD003002409400002030B5F9B0B5
:103B900002F08EF8182258496CA8FCF7A2FB4FF4EB
:103BA00080756CAA3821284602F0BEF8534C524961
:103BB00018222063183172A8FCF793FB72AA3821EF
:103BC000284602F0B1F84C4960632422303168463F
:103BD000FCF787FB6A460021494802F0DFF84649B6
:103BE00020602422543109A8FCF77BFB09AA00219C
:103BF000444802F0D3F8404960602422783112A88A
:103C0000FCF76FFB12AA00213F4802F0C7F83A49BF
:103C1000A06024229C311BA8FCF763FB1BAA002197
:103C20003A4802F0BBF83449E0602422C03124A8AD
:103C3000FCF757FB24AA0021354802F0AFF82E49C3
:103C400020612422E4312DA8FCF74BFB2DAA002192
:103C5000304802F0A3F8606124222F4936A8FCF70F
:103C600040FB36AA00212D4802F098F82A49A061AD
:103C7000242224313FA8FCF734FB3FAA0021284826
:103C800002F08CF82449E0612422483148A8FCF76E
:103C900028FB48AA0021234802F080F81E49206230
:103CA00024226C3151A8FCF71CFB51AA00211E48AC
:103CB00002F074F818496062242290315AA8FCF787
:103CC00010FB5AAA0021194802F068F81249A062B4
:103CD0002422B43163A8FCF704FB63AA0021144832
:103CE00002F05CF8E06202F0C9FD03F003F901F0B4
:103CF00087FA79B030BD0000AC8400089C00002039
:103D0000A1450008F56B0008856C0008CD68000827
:103D10001D690008416D0008B48500086969000844
:103D2000396C0008896D0008C5680008156A00082C
:103D3000B56900082DE9F04F87B014216846FCF7FB
:103D4000E9FA6B480024016841F010010160016844
:103D500001F010010591016841F020010160016846
:103D600001F020010591016841F001010160016845
:103D700001F001010591016841F002010160016853
:103D800001F002010591016841F00801016001683C
:103D900001F008010591016841F0400101600168EE
:103DA00001F040010591016841F0040101600068E3
:103DB000DFF840A100F0040046F6880605900022D6
:103DC00031465046FDF797FADFF82CB14FF4C17732
:103DD000002239465846FDF78EFA48F6014800227F
:103DE00041464648FDF787FA4FF4604900224946AC
:103DF0004348FDF780FA00220C214248FDF77BFA88
:103E0000772001258DE8310069465046FDF792F98B
:103E10000096CDE90154694650460394FDF78AF9AE
:103E20004FF6FF7000903848CDE9010569463748E4
:103E3000FDF780F90097CDE901546946584603948F
:103E4000FDF778F9CDF80080CDE9015469462B489B
:103E50000394FDF76FF9CDF80090CDE90154694660
:103E600027480394FDF766F90C200090CDE9015432
:103E7000694624480394FDF75DF9002205210620D8
:103E8000FDF700FF0620FDF7F0FE002205210720C8
:103E9000FDF7F8FE0720FDF7E8FE002205210820C7
:103EA000FDF7F0FE0820FDF7E0FE002205210920C5
:103EB000FDF7E8FE0920FDF7D8FE002205210A20C3
:103EC000FDF7E0FE0A20FDF7D0FE002205211720B5
:103ED000FDF7D8FE1720FDF7C8FE00220521282097
:103EE000FDF7D0FE2820FDF7C0FE07B0BDE8F08F3B
:103EF000303802400010024000000240000402403E
:103F0000000C024000180240000021100014024082
:103F10000D4810B50B4901600C49416000214FF478
:103F200080428160C0E903120322C0E90512C16129
:103F30000162FDF779FB002803D0BDE81040FCF7D3
:103F400062BB10BD00540040C4C70020A086010021
:103F50000C4810B50A49016044F29F1141600021EC
:103F600041F28732C0E90212016180218161FEF7CE
:103F7000E9F9002803D0BDE81040FCF744BB10BDB0
:103F80000044014058CA00200C4810B50A4901609D
:103F900044F29F114160002142F20F72C0E9021207
:103FA000016180218161FEF7CDF9002803D0BDE8D1
:103FB0001040FCF728BB10BD0048014098CA002003
:103FC0001FB500210F480091019102910C4A039105
:103FD000C0E900218160C16001618161FEF7B2F931
:103FE00008B1FCF710FB4FF480500090694605487B
:103FF000FEF713FB002801D0FCF705FB1FBD0000F6
:1040000000180040D8CA00200A4810B508490160CD
:10401000002141608160C16001618161FEF792F918
:10402000002803D0BDE81040FCF7EDBA10BD000039
:10403000001C004018CB00200B4810B50949016056
:104040005321416000216322C0E9021201618021F5
:104050008161FEF777F9002803D0BDE81040FCF736
:10406000D2BA10BD0020004058CB002010B596B049
:1040700000240F9410941194129413941C2108A8F6
:104080001494FCF747F920216846FCF743F92A48C5
:1040900028490160A721C0E9011440F2E731C0E9D5
:1040A00003148021C0E90541FEF74CF908B1FCF783
:1040B000AAFA4FF480500F900FA91F48FEF7ADFAEF
:1040C00008B1FCF7A0FA1C48FEF797FC08B1FCF712
:1040D0009AFA139413A918481494FEF7EBF808B150
:1040E000FCF791FA6020089040F2F310CDE9090442
:1040F0000B940C940D94002208A90F480E94FEF71F
:1041000014FC08B1FCF77FFA00944FF40050CDE99D
:104110000440029401940394694607480794FEF70B
:104120009FF808B1FCF76FFA0348FEF795FB16B04D
:1041300010BD00000000014058C8002010B58EB02E
:1041400000240794089409940A940B941C2168464F
:104150000C94FCF7DFF81F484FF0804101605321B9
:10416000C0E9011440F2E731C0E903148021816104
:10417000FEF7E8F808B1FCF746FA4FF480500790D4
:1041800007A91448FEF749FA08B1FCF73CFA1148B0
:10419000FEF733FC08B1FCF736FA0B940BA90D4877
:1041A0000C94FEF787F808B1FCF72DFA6020009018
:1041B00040F2F310CDE90104002269460548049459
:1041C000FEF7B3FB08B1FCF71EFA0248FEF744FB0A
:1041D0000EB010BD98C8002010B58EB00024079412
:1041E000089409940A940B941C2168460C94FCF7DB
:1041F00091F820481E4901605321C0E9011440F2A2
:10420000E731C0E9031480218161FEF79BF808B112
:10421000FCF7F9F94FF48050079007A91548FEF70D
:10422000FCF908B1FCF7EFF91248FEF7E6FB08B11C
:10423000FCF7E9F90B940BA90E480C94FEF73AF839
:1042400008B1FCF7E0F96020009040F2F310CDE9EE
:1042500001040022694607480494FEF766FB08B192
:10426000FCF7D1F90348FEF7F7FA0EB010BD0000D5
:1042700000040040D8C8002010B58EB00024079478
:10428000089409940A940B941C2168460C94FCF73A
:1042900041F820481E4901605321C0E9011440F251
:1042A000E731C0E9031480218161FEF74BF808B1C2
:1042B000FCF7A9F94FF48050079007A91548FEF7BD
:1042C000ACF908B1FCF79FF91248FEF796FB08B16C
:1042D000FCF799F90B940BA90E480C94FDF7EAFF33
:1042E00008B1FCF790F96020009040F2F310CDE99E
:1042F00001040022694607480494FEF716FB08B142
:10430000FCF781F90348FEF7A7FA0EB010BD0000D4
:104310000008004018C9002010B586B000241748D6
:104320000094019402940394049413490594016049
:104330005321C0E9011444F61F61C0E90314802130
:104340008161FDF7FFFF08B1FCF75DF94FF4805084
:10435000009069460948FEF760F908B1FCF753F987
:10436000049404A905480594FDF7A4FF002801D092
:10437000FCF749F906B010BD000C004058C90020F8
:104380001CB500240F4800940D490194016042F2CD
:10439000CF01C0E9011442F20F71C1608021816137
:1043A000FDF7D0FF08B1FCF72EF9009469460548E7
:1043B0000194FDF77FFF002801D0FCF724F91CBD14
:1043C0000014004098C9002010B586B00024184899
:1043D0000094019402940394049414490594016098
:1043E00044F29F11C0E9011440F2E731C0E903141F
:1043F0008021C0E90541FDF7A5FF08B1FCF703F9ED
:104400004FF48050009069460948FEF706F908B15C
:10441000FCF7F9F8049404A905480594FDF74AFF50
:10442000002801D0FCF7EFF806B010BD00040140F1
:10443000D8C900201FB500211148009101910291B7
:104440000E4A0391026044F29F12C0E9012140F23A
:10445000E732C0E9032180218161FDF773FF08B1D4
:10446000FCF7D1F84FF48050009069460448FEF7FD
:10447000D4F8002801D0FCF7C6F81FBD0040014069
:1044800018CA00200C4810B50A4901604FF4E13108
:104490004160002181600C22C160C0E90412816189
:1044A000C161FEF77FFB002803D0BDE81040FCF798
:1044B000AAB810BD004C004098CB00200C4810B5A5
:1044C0000A4901604FF4E1314160002181600C2212
:1044D000C160C0E904128161C161FEF763FB00287D
:1044E00003D0BDE81040FCF78EB810BD00100140AD
:1044F000D8CB00200C4810B50A4901604FF4E131D7
:104500004160002181600C22C160C0E90412816118
:10451000C161FEF747FB002803D0BDE81040FCF75F
:1045200072B810BD0044004018CC00200C4810B5F3
:104530000A4901604FF4E1314160002181600C22A1
:10454000C160C0E904128161C161FEF72BFB002844
:1045500003D0BDE81040FCF756B810BD004800403D
:1045600058CC00200C4810B50A4901604FF4E131E5
:104570004160002181600C22C160C0E904128161A8
:10458000C161FEF70FFB002803D0BDE81040FCF727
:104590003AB810BD0014014098CC0020FEE77047E7
:1045A00008B500244FF4FA65661E00942B466A464F
:1045B0003146002003F0A0FD009870B10948009436
:1045C00002F034FF074908A000F0A4FC054802F0FF
:1045D000CBFE044904A000F09DFC012001F04EFB3D
:1045E000E4E700008801002025730A0010B5502080
:1045F00080F31188BFF34F8FBFF36F8F03F018FD67
:1046000018B104494FF080500860002080F31188F1
:1046100010BD000004ED00E030B593B030216846D5
:10462000FBF778FE14210CA8FBF774FE194800254F
:10463000016841F080510160006800F080501190E5
:104640001548016841F4804101600068022400F4CB
:104650008040119001200390102000940694049053
:10466000CDE907504FF4A870CDE9090404200B9060
:104670006846FDF745FC0CA90F2081E831004FF496
:10468000A0500F90E002109005210CA8FDF72CFB24
:1046900013B030BD4038024000700040054801684A
:1046A00041F47001016003494FF0006080390860F7
:1046B0007047000088ED00E0F8B51848184C194E16
:1046C00000684FF0805570B104F110010122009193
:1046D0000023114603F020FC206920B13560BFF3B0
:1046E0004F8FBFF36F8F1048006870B10C490122E3
:1046F000143100910023114603F00EFC606920B1D3
:104700003560BFF34F8FBFF36F8F0848FDF7F1FFA0
:10471000BDE8F8400648FDF7ECBF0000B4000020FB
:10472000D400002004ED00E0B800002058C80020AC
:1047300018CA00200148FDF7DCBF000058C800205F
:104740000F4808B5006890B10E490122009100237E
:10475000114603F0E1FB0B480838806838B10A497C
:104760004FF080500860BFF34F8FBFF36F8F074843
:10477000FDF7BFFFBDE808400548FDF7BABF0000E0
:10478000A0000020DC00002004ED00E058C800205C
:1047900098CA0020124808B500680069C043C007E5
:1047A00015D11048006890B10F49012200910023F3
:1047B000114603F0B1FB0C481838806938B10B4939
:1047C0004FF080500860BFF34F8FBFF36F8F0848E2
:1047D000FDF78FFFBDE808400148FDF78ABF0000E4
:1047E00058CA0020A8000020EC00002004ED00E0E2
:1047F00058C800200148FDF77CBF000098C8002081
:104800000148FDF776BF0000D8C800200148FDF739
:1048100070BF000018C900200D4808B5006890B1AD
:104820000C49012200910023114603F075FB094851
:10483000001F406838B108494FF080500860BFF34E
:104840004F8FBFF36F8FBDE808400448FDF751BF9D
:10485000B0000020D800002004ED00E058C900207E
:104860000148FDF746BF000018C800200D4808B5F4
:10487000006888B10C49012200910023114603F021
:104880004BFB0948006838B108494FF08050086078
:10489000BFF34F8FBFF36F8FBDE808400448FDF7AB
:1048A00028BF00009C000020D400002004ED00E0A0
:1048B00098C9002010B50448FDF71BFFBDE8104063
:1048C0000248FDF716BF0000D8C90020D8CA002052
:1048D0000148FDF70EBF0000D8C90020064810B5FA
:1048E0000168491C01600548FDF703FFBDE8104061
:1048F0000348FDF7FEBE000008000020D8C90020D4
:1049000058CB00200F4808B5006890B10E4901222D
:1049100000910023114603F0FFFA0B480C38C068E1
:1049200038B10A494FF080500860BFF34F8FBFF392
:104930006F8F0748FDF7DDFEBDE808400548FDF72D
:10494000D8BE0000AC000020E000002004ED00E034
:10495000D8C9002018CB0020F0B50268254C264DA0
:10496000264E274F274B4FF0804CA04209D0604580
:1049700007D0A84205D0B04203D0B84201D0984237
:1049800004D122F0700E4A6842EA0E02A0421BD007
:10499000604519D0A84217D0B04215D0B84213D004
:1049A000984211D0184DA8420ED0184DA8420BD0F5
:1049B000174DA84208D0174DA84205D0164DA84261
:1049C00002D0164DA84203D122F44075CA682A438A
:1049D0004D6922F080022A4302608A68C2620A6836
:1049E0008262A04201D0984201D10969016301218C
:1049F0004161F0BD0000014000040040000800409B
:104A0000000C00400004014000400140004401400F
:104A10000048014000180040001C004000200040F9
:104A200010B501F01F030121046A99408C43046210
:104A3000016A9A401143016210BD10B5846842EAD0
:104A4000032224F47F440A432243826010BD82681B
:104A500022F070020A4342F00701816070470000B3
:104A6000F0B5026A22F001020262036A42688469B8
:104A7000124E24F073050C682C4323F002058B685A
:104A80002B430D4DA84201D0B04205D123F00807B9
:104A9000CB683B4323F00403A84201D0B04205D1C8
:104AA0004D6922F4407215438A692A434260846149
:104AB000496841630362F0BD000001400004014009
:104AC000F0B5026A22F010020262026A4368846949
:104AD0000D6824F4E64444EA05248D6822F020029F
:104AE00042EA05120F4D104EA84201D0B04206D145
:104AF000CF6822F0800242EA071222F04002A84268
:104B000001D0B04207D14D6923F4406343EA8503E5
:104B10008D6943EA85034360846149688163026269
:104B2000F0BD00000000014000040140F0B5026A41
:104B300022F480720262026A4368C46922F400723D
:104B400024F073050C68124E2C438D6842EA05224E
:104B50000E4DA84201D0B04206D1CF6822F40062C7
:104B600042EA072222F48062A84201D0B04207D173
:104B70004D6923F4405343EA05138D6943EA051355
:104B80004360C4614968C1630262F0BD0000014036
:104B90000004014030B5026A22F480520262046AC5
:104BA0004268C3690D6823F4E64343EA05238D6830
:104BB00024F4005444EA0534084DA84202D0084DBC
:104BC000A84204D14D6922F4804242EA8512426033
:104BD000C36149680164046230BD00000000014007
:104BE0000004014010B5036A046A24F00104046261
:104BF000846924F0F00444EA021423F00A020A4310
:104C00008461026210BD10B5036A23F010030362D1
:104C10008369046A23F4704343EA023224F0A00358
:104C200043EA01118261016210BD00000148FDF7F5
:104C30002FBF000098CB002010B5806B0021C185EC
:104C4000C184FDF724FF10BD0168CA6822F4907288
:104C5000CA6001684A6922F001024A61202180F895
:104C60003A10704710B590F83A10222901D002206E
:104C700010BD8168B1F5805F11D00169002901681C
:104C80001FD0496801F07F03816A4A1C82620B7061
:104C9000C18D491E0904090CC18518D02BE0026999
:104CA000816A002A0268526805D0D2B20A80816AFD
:104CB000491C8162ECE7C2F308020A80816A891C00
:104CC000F7E74A68816A4B1C83620A70E0E7016873
:104CD000CA6822F02002CA600168CA6822F48072A1
:104CE000CA6001684A6922F001024A61202180F805
:104CF0003A10FEF779F8002010BD00002DE9F041D0
:104D0000044600680169E26821F4405111430161E1
:104D10002169A068E2690843616911430843216879
:104D2000CA6849F20C639A430243CA602068416929
:104D3000A26921F4407111434161E069192764259A
:104D40003226B0F5004F354A354920684FF000084B
:104D500006D0884201D0904236D1FDF78FF835E079
:104D6000884201D0904202D1FDF788F801E0FDF7BA
:104D700075F861684A18A0FB070148EB0803FBF7C8
:104D80007FFA0146B0FBF5F00201B1FBF5F06FF0E0
:104D90001803584301EB800006EBC000B0FBF5F0B0
:104DA00000F0F80002EB4002B1FBF5F0584301EBD4
:104DB000800006EBC000B0FBF5F000F007002168B2
:104DC00010448860BDE8F081FDF748F861688B0FFA
:104DD0008A00A0FB0701FBF753FA0146B0FBF5F090
:104DE0006FF01802504301EB800006EB0010B0FB9F
:104DF000F5F000F0F002B1FBF5F002EB0012B1FBB0
:104E0000F5F06FF01803584301EB800006EB00103B
:104E1000B0FBF5F000F00F00D1E7000000140140F6
:104E20000010014090F83910212901D0022070476C
:104E30008168B1F5805F016A0BD04A1C026202688A
:104E400009785160C18C491E0904090CC1840ED037
:104E500017E009880268C1F308015160016900295F
:104E6000016A02D0491C0162ECE7891CFBE701687A
:104E7000CA6822F08002CA600068C16841F040013F
:104E8000C160002070472DE9F041984617460E4654
:104E90000446069D1DE0681C1BD02DB1FCF730FABE
:104EA000A0EB0800A84214D92068C16821F4D07191
:104EB000C1602068416921F001014161202084F82E
:104EC000390084F83A00002084F838000320BDE857
:104ED000F0812068006836EA000004D00020B84263
:104EE000D9D00020F3E70120F9E700000148FDF7E1
:104EF000CFBD000018CC00200148FDF7C9BD00005F
:104F000058CC00200148FDF7C3BD000098CC00201C
:104F1000FEE700000FB4054B10B503A9044A029840
:104F200000F03CF810BC5DF814FB0000315900089B
:104F3000840100200FB4084B10B504A902AA0398FD
:104F400000F02CF8044602A9002000F003F92046E6
:104F500010BC5DF814FB0000555100080907090E4C
:104F6000002804DB00F1E02080F80014704700F016
:104F70000F0000F1E02080F8141D704702E008C81F
:104F8000121F08C1002AFAD170477047002001E0C3
:104F900001C1121F002AFBD1704700002DE9FF4F0D
:104FA0008BB09A460F460546002606E025280BD012
:104FB00052460D9990476D1C761C28780028F5D133
:104FC0000FB03046BDE8F08F0024A04601226049B2
:104FD00000E0044315F8013F203B02FA03F00842C9
:104FE000F7D128782E2817D115F8010F44F00404C2
:104FF0002A280ED06FF02F022878A0F1300109295D
:105000000AD808EB880102EB410100EB01086D1C96
:10501000F2E757F8048B6D1C287869283ED006DC2F
:105020000028CDD063280BD0642804D136E0732843
:1050300010D075284BD052460D999047761C85E0CC
:1050400017F8040B8DF8000000208DF80100E946E8
:10505000012003E057F8049B4FF0FF3061074FF049
:10506000000401D40AE0641C44450DDA8442FADBF2
:1050700019F804100029F6D106E0641C8442FCDB18
:1050800019F804100029F8D1264404E019F8010B9E
:1050900052460D999047641EF8D257E001CF4FF069
:1050A0000A0B002802DA40422D2102E0210504D536
:1050B0002B218DF82410012103E0E10705D02021E8
:1050C000F7E70DF1200908910CE00021F9E701CF85
:1050D0004FF00A0BF9E75946FBF737F901F13002B7
:1050E00009F8012D0028F6D1ADEB090000F1200BE5
:1050F000600701D44FF00108D84502DDA8EB0B0092
:1051000000E000208046002406E009A85246005D29
:105110000D999047641C761C08988442F5DB04E0E6
:10512000302052460D999047761CB8F10001A8F145
:105130000108F5DC05E019F8010B52460D9990477E
:10514000761CBBF10001ABF1010BF4DC6D1C34E704
:10515000092801000A68531C0B601070704700009A
:105160000FB4002000B587B00421CDE902100090F3
:105170008DF814009DF8290008283AD89DF82A10C7
:105180000490002001F0070140EA81609DF82C1096
:1051900006AB01F01F0140EA41509DF82B100DF1C4
:1051A000210201F01F0140EA01409DF82D1001F09D
:1051B0007F0140EA41209DF82E1001F0010140EAF4
:1051C00001209DF82F1001F0010140EAC1109DF867
:1051D000301001F0010140EA81119DF8310000F02A
:1051E00007000843019069460448FBF71FFA0028AE
:1051F00000D0042007B05DF814FB0000640D00200F
:1052000010B58AB01B48FBF7FBFA1A481A4900246C
:105210000160047644768476C476047744774FF44C
:1052200000318460C0E90341090141610621416008
:10523000FBF77FFC012018210594CDE90640009181
:105240000421CDE901140394089004940E200990E0
:1052500069460848FBF74EFA18B90648FBF7F8FD0F
:1052600010B105200AB010BD02210248FBF7CCF9AD
:105270000020F7E7640D0020006400402DE9F04FA6
:105280000025DFF8E4A0DFF8E4B08FB00F462C462D
:105290004FF001084FF0030905EB850000EBC51145
:1052A0000BEB81060022B6F8E811D6F8E40106F50A
:1052B000F276FCF720F8B1883068FCF717F838B3BD
:1052C000012F21D18DF80D408DF80C908DF80B40F9
:1052D0008DF80A908DF80E4006208DF810808DF81C
:1052E0000F408DF809808DF8010000231A466946A9
:1052F000DAF8000002F01EFB012801D01CA100E03A
:105300001FA129A0FFF706FE06200FB0BDE8F08F11
:105310006D1CEDB2042DBFD3012F22D18DF80D40AD
:105320008DF80C908DF80B408DF800408DF80A90A8
:105330008DF80E408DF810808DF80F408DF80980A3
:105340008DF8014000231A466946DAF8000002F0A1
:10535000F1FA012801D006A100E014A112A0FFF784
:10536000D9FD0020D1E70000CC000020BC040020C3
:105370007175657565206F766572666C6F77000074
:1053800073656E6420636F6D6D616E64203020659F
:1053900072726F7220746F20717565756520616C13
:1053A000726561647900000025730A0073656E649C
:1053B00020636F6D6D616E6420302073756363656B
:1053C000737320746F20717565756520616C7265EB
:1053D0006164790070B50278407800248EB0C1F322
:1053E0000015012800D10124002A59D12D4E224652
:1053F00008213046FBF77FFF08213046FBF776FF98
:10540000002101230322284EA04226D015B38DF897
:105410000D308DF80B108DF80C208DF80A208DF8CA
:1054200000108DF810308DF80E108DF809308DF8C1
:105430000F1007208DF8010000231A4669463068D6
:1054400002F078FA012801D018A100E01BA125A0E4
:10545000FFF760FD07200EB070BD0DB38DF80D3065
:105460008DF80B108DF80C208DF80A208DF80010A7
:105470008DF810308DF80E108DF809308DF80F1062
:105480008DF8011000231A466946306802F052FA7E
:10549000012801D005A100E013A112A0FFF73AFDF9
:1054A0000020D8E700100240CC000020717565751F
:1054B00065206F766572666C6F77000073656E6449
:1054C00020636F6D6D616E642031206572726F7242
:1054D00020746F20717565756520616C72656164FB
:1054E0007900000025730A0073656E6420636F6D98
:1054F0006D616E642031207375636365737320740E
:105500006F20717565756520616C726561647900E5
:10551000002070470020704700207047002070472F
:10552000002070470020704700207047002070471F
:1055300000207047002070472DE9F04FC1F30010A4
:10554000F02400258FB000286AD000274FF0010911
:105550004FF0020B4FF00308DFF8CCA06E4602E0DC
:10556000012001F09FFEE9B20823721C002000F028
:10557000F1F90028F4D18DF80DB08DF80C808DF87C
:105580000B708DF80A808DF80F7008208DF8007070
:105590008DF810908DF80E908DF8090000231A46B2
:1055A0006946DAF8000002F0C5F9012801D01FA110
:1055B00000E022A12BA0FFF7ADFC083C0835A4B207
:1055C000ADB2082CCFD802E0012001F06BFEE3B2AF
:1055D000E9B2721C002000F0BDF90028F4D18DF86A
:1055E0000DB08DF80C808DF80B708DF80A808DF859
:1055F0000F708DF800708DF810908DF80E708DF88A
:10560000094000231A466946DAF8000002F092F9D0
:10561000012801D005A100E008A112A0FFF77AFC43
:105620000FB00020BDE8F08FCC00002071756575CB
:1056300065206F766572666C6F77000073656E64C7
:1056400020636F6D6D616E642032207375636365D6
:10565000737320746F20717565756520616C726558
:105660006164790025730A000020704700207047AC
:1056700000207047002070470020704700207047CE
:105680000020704770B50646284C8EB0C1F3001557
:10569000C1F3401018B90EE0012001F003FE21789B
:1056A00008233246012000F055F90028F4D1208863
:1056B0000830208037E018B135E0012001F0F2FD1C
:1056C00020883246C0F1F001CBB2C1B2012000F017
:1056D00041F90028F1D120802DB302218DF80D1061
:1056E00003228DF80C208DF80B008DF800008DF84A
:1056F0000F0001218DF80A208DF80E008DF80100B1
:105700000B488DF810108DF8091000231A466946D1
:10571000006802F00FF9012801D006A100E009A1FC
:1057200012A0FFF7F7FB0EB0002070BD04000020B0
:10573000CC0000207175657565206F766572666CAA
:105740006F77000073656E6420636F6D6D616E64CA
:105750002032207375636365737320746F207175D5
:1057600065756520616C72656164790025730A0056
:1057700000207047002070470020704770B5C1F3CB
:1057800000140168C07809BA21F0FF028EB002430C
:10579000322000902C4800230421806902F052FE40
:1057A0000021012207260323284D012826D014B307
:1057B0008DF80D608DF80C308DF80B108DF80A30D7
:1057C0008DF800108DF80E108DF810208DF80F1048
:1057D0008DF809200D208DF8010000231A46694636
:1057E000286802F0A7F8012801D019A100E01CA147
:1057F00025A0FFF78FFB0D200EB070BD0CB38DF808
:105800000D608DF80C308DF80B108DF80A308DF886
:1058100000108DF80E108DF810208DF80F108DF8F7
:1058200009208DF8011000231A466946286802F005
:1058300081F8012801D006A100E014A112A0FFF711
:1058400069FB0020D8E7000004000020CC00002005
:105850007175657565206F766572666C6F7700008F
:1058600073656E6420636F6D6D616E6420372065B3
:1058700072726F7220746F20717565756520616C2E
:10588000726561647900000025730A0073656E64B7
:1058900020636F6D6D616E6420372073756363657F
:1058A0007320746F20717565756520616C72656118
:1058B00064790000002070470020704701490020F3
:1058C000486070470400002070B5040005D0164EF3
:1058D0003068844209D1002070BD502080F31188C7
:1058E000BFF34F8FBFF36F8FFEE701F007FC6569D1
:1058F00001F024FC7068854202D0B068854201D175
:10590000022070BD0948854204D1A06A0028F7D161
:10591000032070BD05481438854202D00DB1012026
:1059200070BD042070BD000004010020C8D100201B
:1059300013B54FF6FF73012269460248FDF755FA89
:1059400000981CBDD8CB002001484068704700007B
:10595000040000202DE9F043ADF5737D0F460646A7
:105960004FF4F0751C469046294601A8FAF7D2FC80
:10597000294679A8FAF7CEFC002001AD04E02F54A7
:105980007F1C401CFFB280B2A042F8D3002005E08B
:1059900018F800100219401CA95480B2A042F7D395
:1059A0006427012E01D0FEB154E0002616E0A85D68
:1059B0008DF8C40330190223285C8DF8C503F1AAC1
:1059C000A02125480097FBF7E7FF08B123A12DE0B0
:1059D00028A12FA0FFF79EFA761CB6B2A642E6D306
:1059E0000120FBF7D3FA35E000260DF5F2792FE020
:1059F000A85D8DF8C4030123F1AAA02116480097E1
:105A0000FBF7CAFF08B123A110E029A120A0FFF7EE
:105A100081FA0120FBF7BAFA09EB06020123A02163
:105A20000D480097FBF7C8FE40B128A118A0FFF76A
:105A300071FA24200DF5737DBDE8F08319F8061086
:105A400008F8061027A112A0FFF764FA761CB6B278
:105A5000A642CDD30020EDE7C4C700207374617265
:105A60007420746B206969632073656E64206572AD
:105A7000726F7200737461727420746B2069696351
:105A80002073656E64207375636365737300000033
:105A900025730A00737461727420746B20696963E2
:105AA0002073656E642032206572726F7200000090
:105AB000737461727420746B206969632073656EFE
:105AC000642032207375636365737300737461724D
:105AD0007420746B20696963207265636520657248
