:020000040800F2
:10000000402601205D0200081B4E0008B93600089A
:10001000194E00082F0400089D5900080000000038
:100020000000000000000000000000009D0100082A
:100030004506000800000000F9010008694E0008AC
:1000400077020008770200087702000877020008AC
:1000500077020008770200084706000883060008B8
:10006000890600088F060008950600087702000838
:10007000770200087702000877020008770200087C
:100080008905000895050008770200084D0500085D
:100090003104000835050008410500089B060008EA
:1000A000354F000811500008BD4F0008B14F00083F
:1000B000715000087D50000889500008C9360008BA
:1000C000BD360008770200087702000877020008B2
:1000D0007702000877020008915800088559000847
:1000E0004D06000877020008770200083151000829
:1000F000D1510008A95100089D510008770200085D
:10010000770200087702000895500008770200087F
:10011000F954000877020008DD500008E950000893
:1001200077020008770200087702000877020008CB
:100130007702000877020008770200087D050008B2
:1001400059050008650500087105000877020008D8
:10015000770200087702000877020008915900082A
:10016000770200087702000877020008770200088B
:1001700077020008770200087702000800000000FC
:100180007702000877020008DFF80CD000F012F9BF
:1001900000480047DD6A0008402601202C4B196802
:1001A0000868B0E8F04F80F30988BFF36F8F4FF015
:1001B000000080F3118870470000000008480068C4
:1001C000006880F308884FF0000080F3148862B65E
:1001D00061B6BFF34F8FBFF36F8F00DF00BF00BF6B
:1001E00008ED00E0DFF80C00016841F470010160E7
:1001F000704700BF88ED00E0EFF30980BFF36F8F19
:10020000134B1A681EF0100F08BF20ED108A20E96A
:10021000F04F106009B44FF0500080F31188BFF325
:100220004F8FBFF36F8F08F063FB4FF0000080F338
:10023000118809BC19680868B0E8F04F1EF0100F6B
:1002400008BFB0EC108A80F30988BFF36F8F704746
:1002500004020020EFF30580704700000648804745
:1002600006480047FEE7FEE7FEE7FEE7FEE7FEE79B
:10027000FEE7FEE7FEE7FEE7194F000889010008E8
:100280002DE9F05F0546002092469B4688460646CB
:10029000814640241BE0284641464746224600F05E
:1002A00079F853465A46C01A914110D31146184660
:1002B000224600F060F82D1A67EB01084F462246EF
:1002C0000120002100F057F817EB00094E41201ED5
:1002D000A4F10104DFDC484631462A464346BDE826
:1002E000F09F40EA01039B0703D009E008C9121FF1
:1002F00008C0042AFAD203E011F8013B00F8013BE0
:10030000521EF9D27047D2B201E000F8012B491E0B
:10031000FBD270470022F6E710B513460A460446A2
:100320001946FFF7F0FF204610BD421C10F8011BD4
:100330000029FBD1801A7047034611F8012B00F801
:10034000012B002AF9D11846704730B50B460146FB
:1003500000202022012409E021FA02F59D4205D364
:1003600003FA02F5491B04FA02F52844151EA2F10E
:100370000102F1DC30BD202A04DB203A00FA02F150
:10038000002070479140C2F1200320FA03F3194383
:1003900090407047202A04DB203A21FA02F0002125
:1003A000704721FA02F3D040C2F120029140084385
:1003B00019467047064C074D06E0E06840F001031F
:1003C00094E8070098471034AC42F6D3FFF7E0FEFC
:1003D000049C0008249C000870B58C1810F8015B80
:1003E00015F0070301D110F8013B2A1106D110F8CE
:1003F000012B03E010F8016B01F8016B5B1EF9D1D2
:100400002B0705D40023521E0DD401F8013BFAE757
:1004100010F8013BCB1A921C03E013F8015B01F8C2
:10042000015B521EF9D5A142D8D3002070BDFEE772
:1004300010B51F4890B00068002830D000211D483A
:1004400008AA0DF1010300F060FA08B100F039F9D3
:10045000194C2068002828D00021164800F044FAE2
:10046000024616A11AA005F09BFA00231A4A694613
:10047000206808F03BFC012801D018A100E01BA176
:1004800022A005F08DFA14481C38C06938B1204903
:100490004FF080500860BFF34F8FBFF36F8F10B0E5
:1004A0000448BDE8104000F0A4BA1AA1E8E7000033
:1004B000BC010020940E0020CC0100207278206640
:1004C00069666F206C6576656C20697300000000BA
:1004D000257325640A000000EC0100207175657524
:1004E00065206F766572666C6F77000073656E6469
:1004F000206D65737361676520746F207175657514
:100500006520616C726561647900000025730A00E2
:1005100004ED00E073656E64206D61737465722094
:100520006F72646572207175657565206572726F92
:1005300072000000014800F05CBA0000940E002038
:10054000014800F056BA0000940E0020014800F067
:1005500050BA0000940E0020014800F04ABA000092
:10056000BC0E0020014800F044BA0000BC0E002080
:10057000014800F03EBA0000BC0E0020014800F027
:1005800038BA0000BC0E0020014800F0D5BD0000C4
:10059000DCD80020014800F0CFBD00003CD700208F
:1005A00001681823CAB2103AB2FBF3F2054B6FF39D
:1005B0000901032A9B5CC36500D9091D81650846B2
:1005C00070470000149B000810B5014600208B699D
:1005D0008A6A4FF0C07453B1B3F5005F15D072B1A1
:1005E000012A0CD0022A0AD0032A09D104E01AB148
:1005F000012A06D0022A03D1C96AC90100D5012007
:1006000010BDC96AA142FAD010BD002AF7D0012A54
:10061000F2D0022AF3D0032AF3D010BD30B504681B
:10062000256825F480252560046863608368402B75
:10063000036803D099600068C26030BD9A600068AA
:10064000C16030BD7047012000F0B0BF10B54FF45D
:10065000806000F0ABFF4FF4006000F0A7FF4FF4A4
:10066000805000F0A3FF4FF4005000F09FFF4FF4C4
:10067000804000F09BFFBDE810404FF4004000F0C8
:1006800095BF022000F092BF042000F08FBF082029
:1006900000F08CBF102000F089BF10B5202000F0C2
:1006A00085FF402000F082FF802000F07FFF4FF4A4
:1006B000807000F07BFFBDE810404FF4007000F048
:1006C00075BF704790F82020012A07D0022A05D074
:1006D000416A41F48021416201207047006842690B
:1006E0000A43426100207047F0B590F8205004683A
:1006F000A468012D05D0022D03D0416A41F4802168
:1007000053E014F0406F01D1E5004BD5C4F3016410
:10071000022C03D9416A41F4000146E00125A540BD
:100720001D608D684FF4C0739DB1CE6835434E682F
:1007300045EAC605066803EB0417F5514FF4C27588
:10074000076805EB04150E697E51097D012905D066
:1007500009E00E88CD6845EA4655EBE701684E5939
:1007600046F480764E511179D2F805504FF4C67692
:1007700041EA0525016806EB04168D511178D2F87F
:1007800001204FF4C47541EA0221026805EB04150B
:100790005151006803EB0411425842F001024250EB
:1007A0000020F0BD416A41F4001141620120F0BD1A
:1007B00010B590F82020012A07D0022A05D0416AFE
:1007C00041F480214162012010BD3B48D0F8002255
:1007D00042F00102C0F80022D0F8002222F47C523C
:1007E000C0F80022D0F800224B6A42EA0322C0F887
:1007F00000220A7D02F01F0301229A40D0F81C3229
:100800009343C0F81C32CB69B3B9D0F80C32934390
:10081000C0F80C328C894B6864F31F434C6900EBC1
:10082000C404C4F840320C890B6864F31F434C695C
:1008300000EBC404C4F84432CB69012B16D1D0F8C4
:100840000C321343C0F80C320C884B6864F31F431E
:100850004C6900EBC404C4F840320C89CB6864F3E3
:100860001F434C6900EBC404C4F844328B69002B6D
:10087000D0F804320ED01343C0F804320B69002BB9
:10088000D0F8143208D01343C0F81432096A012991
:1008900004D008E09343EFE79343F5E7D0F81C1248
:1008A0001143C0F81C12D0F8001221F00101C0F869
:1008B0000012002010BD00000064004010B50400CC
:1008C0000ED000F04FFB204600F01EFA20680168B1
:1008D00041F4004101600020606284F8200010BDF6
:1008E000012010BD704700000246002092F8203021
:1008F000012B01D0022B05D1106821B1D0F81000D6
:1009000000F003007047C068FAE730B590F8204067
:10091000012C05D0022C03D0416A41F480215DE016
:100920000468002955D02469A40754D04FF4D87422
:10093000056804EB01142D5915F004059560056850
:100940002D594ED0ED08556005682C5904F002046D
:10095000D4604FF4DA74056804EB01142D5905F0E6
:100960000F05156105682D59C5F3072595610568C3
:100970002C59240C54614FF4DC72046802EB011210
:10098000A4581C700468A458240A5C700468A45815
:10099000240C9C700468A258120EDA704FF4DE72B8
:1009A000046802EB0112A4581C710468A458240ABC
:1009B0005C710468A458240C9C710468A258120E3F
:1009C000DA71006881B1016941F020010161002004
:1009D00030BDE468A8E7416A41F40011416201209A
:1009E00030BD6D0D1560AFE7C16841F02001C160F9
:1009F000EDE72DE9F05F0546006800244669D0F870
:100A000004908768D0F80CB0D0F810A0D0F8188007
:100A1000F10748D0F90714D001218160B80703D548
:100A2000284600F0D0FA0CE0780702D54FF40064B5
:100A300007E0380702D54FF4805402E0284600F062
:100A4000C1FAF80516D529684FF480708860B8059A
:100A500003D5284600F0B9FA0CE0780502D544F435
:100A6000005407E0380502D544F4804402E02846EB
:100A700000F0AAFAF80316D529684FF48030886090
:100A8000B80303D5284600F0A2FA0CE0780302D59B
:100A900044F4004407E0380302D544F4803402E013
:100AA000284600F093FA300707D55FEACB6004D5FB
:100AB0002968102044F40074C86070074FF00807DC
:100AC00007D55FEA0B7004D52868C760284600F098
:100AD00017FAB00706D52868C068800702D02846F4
:100AE00000F00FFA700607D55FEACA6004D52968DE
:100AF000102044F480640861B00607D55FEA0A70EC
:100B000004D528680761284600F0FCF9F00606D5F0
:100B100028680069800702D0284600F0F4F9B00385
:100B200008D55FEAC96005D52968102048602846C5
:100B300000F0EAF9F00307D55FEA097004D52868E8
:100B40004760284600F044FA300446D55FEA497011
:100B500040D5F00504D55FEAC87001D044F0010427
:100B6000B00504D55FEA887001D544F00204700531
:100B700004D55FEA487001D544F00404300529D556
:100B800018F0700F26D008F07000402815D006DC51
:100B9000102809D020280AD0302816D10AE0502881
:100BA0000ED0602811D10EE044F008040DE044F0AE
:100BB00010040AE044F0200407E044F0400404E09C
:100BC00044F0800401E044F480742868816921F0D5
:100BD00070018161296804204860002C05D0686A92
:100BE000204368622846FFF77DFEBDE8F09F70B5A0
:100BF000040003D094F8200010B104E0012070BD7F
:100C0000204600F0CDF82068016821F00201016063
:100C100000F0BEFD0546052604E000F0B9FD401BCE
:100C20000A2811D8206840688007F6D42068016837
:100C300041F00101016000F0ABFD05460BE000F062
:100C4000A7FD401B0A2806D9606A40F400306062A4
:100C500084F82060D2E720684068C007EFD0207E8B
:100C60000128206801683DD021F080010160607E8C
:100C700001282068016838D021F040010160A07E81
:100C800001282068016833D021F020010160E07E56
:100C90000128206801682ED041F010010160207FFA
:100CA00001282068016829D021F008010160607FD7
:100CB00001282068016824D021F004010160D4E9F2
:100CC00002010843D4E90412114308436168491E34
:100CD00008432168C86100206062012084F8200078
:100CE000002070BD41F08001C0E741F04001C5E740
:100CF00041F02001CAE721F01001CFE741F00801DF
:100D0000D4E741F00401D9E710B5204A03681E4C2E
:100D100010681F49401EA34215D1106018B9086819
:100D200020F0007008604FF4C0511A4800F088FBB2
:100D3000132001F0D1F9142001F0CEF9152001F0B3
:100D4000CBF916201BE0144CA3421CD10B6823F0F6
:100D500080630B60106018B9086820F000700860AC
:100D60004FF440510D4800F06BFB3F2001F0B4F907
:100D7000402001F0B1F9412001F0AEF94220BDE878
:100D8000104001F0A9B910BD0064004088010020A6
:100D90004038024000000240006800400004024069
:100DA000F0B587B0044614216846FFF7B3FA4F4BFD
:100DB0004F48DFF834E11968D4F800C04C4A0225E6
:100DC0000326092710300024491CF4453CD1196042
:100DD000012907D1016841F000710160006800F04D
:100DE00000700590106840F001001060106802ABC0
:100DF00000F0010005904FF4C050CDE9000583E8F4
:100E0000D00069463B4800F0DDFB0022052113209D
:100E100001F080F9132001F070F90022052114205F
:100E200001F078F9142001F068F90022052115205D
:100E300001F070F9152001F060F90022052116205B
:100E400001F068F916204BE0DFF8ACE0F44549D139
:100E5000D0F800C04CF0806CC0F800C0D0F800C0E2
:100E600001290CF0806CCDF814C0196007D101681D
:100E700041F000710160006800F00070059010689A
:100E800040F002001060106802AB00F00200059014
:100E90004FF44050CDE9000583E8D000694617487B
:100EA00000F090FB002205213F2001F033F93F20A4
:100EB00001F023F900220521402001F02BF9402008
:100EC00001F01BF900220521412001F023F9412006
:100ED00001F013F900220521422001F01BF9422004
:100EE00001F00BF907B0F0BD00640040880100205C
:100EF0003038024000000240006800400004024018
:100F000070477047704770477047000070B50446DF
:100F100090F82000012804D0606A40F4002060624C
:100F200018E0022084F820002068016821F0010107
:100F3000016000F02DFC05460EE000BF00F028FC2B
:100F4000401B0A2808D9606A40F40030606205201E
:100F500084F82000012070BD20684068C007EDD1F2
:100F6000606270BD70B5044690F82000022804D07D
:100F7000606A40F48010606214E02068016841F00B
:100F80000101016000F004FC05460DE000F000FCEA
:100F9000401B0A2808D9606A40F4003060620520CE
:100FA00084F82000012070BD20684068C007EDD0A3
:100FB0002068016821F002010160012084F820000E
:100FC000002070BD7047704770477047704770478A
:100FD000704710B5040002D0607910B106E001201E
:100FE00010BD00202071204600F004F8012060713F
:100FF000002010BD08B500680649884208D106489F
:10100000016841F480510160006800F48050009054
:1010100008BD000000300240303802402DE9F041A8
:101020000446876D00F0B4FB064694F835000025B1
:10103000022806D08020606584F834500120BDE885
:10104000F0812068016821F0160101602068416983
:1010500021F080014161206C08B9A06C20B12068AA
:10106000016821F0080101602068016821F0010198
:1010700001600BE000F08CFB801B052806D92020C6
:10108000606504F8345F03206070D8E7206800686A
:10109000C007EFD194F85C103F208840B86004F896
:1010A000345F012060700020C9E790F835100229F4
:1010B00003D08021416501207047052180F835105B
:1010C0000068016821F0010101600020704770B5DF
:1010D00004002BD094F83500022826D0206801683F
:1010E00021F001010160206800250560206845604D
:1010F000206885602068C56020680561216821201E
:1011000048612046FFF74CFAE56325646564A564F1
:10111000E564256594F85C203F2191408160656518
:1011200084F8355084F83450002070BD012070BD23
:1011300090F83500704700002DE9F84304464FF061
:101140000009CDF8009063484FF41651A56D006872
:10115000B0FBF1F72E6894F85C10082000FA01F15A
:1011600031420FD021680A6852070BD50A6822F075
:1011700004020A6094F85C108840A860606D40F03A
:101180000100606594F85C104FF0010808FA01F066
:10119000304208D021684969090604D5A860606D0D
:1011A00040F00200606594F85C10042088403042F2
:1011B00008D021680968890704D5A860606D40F0EF
:1011C0000400606594F85C1010208840304218D00C
:1011D00021680968090714D5A860206801684903D7
:1011E00004D50068000308D5A16C07E00168C905B3
:1011F00003D4016821F008010160216C09B1204687
:10120000884794F85C1020208840304231D0216813
:101210000968C9062DD5A86094F83500052820680E
:10122000016806D0490347D5006800031DD4616CEE
:101230001CE021F0160101602068416921F0800165
:101240004161206C08B9A06C20B12068016821F0D0
:101250000801016094F85C103F208840A86084F881
:10126000349084F83580216D1FE0E16B09B1204690
:101270008847606D00282BD0606DC00714D0052012
:1012800084F835002068016821F0010101600098B0
:10129000401C0090B84203D820680068C007F6D10F
:1012A00084F8349084F83580E16C002910D001B0C6
:1012B0002046BDE8F04308470168C905D5D4016858
:1012C00021F01001016084F8349084F83580CCE777
:1012D000BDE8F883000200202DE9F041044600F04B
:1012E00057FA06465CB1002584F83450022084F891
:1012F00035002068016821F0010101600DE0012046
:10130000BDE8F08100F044FA801B052805D92020B3
:101310006065032084F83500F2E720680068C007A4
:10132000F0D12268116820480140D4E90103184334
:10133000D4E903363343184363691843A369184358
:10134000E3691843236A18430843616A042903D1F7
:10135000D4E90B1319430843106020684069666A9A
:1013600020F0070130460E43012704280CD1A06A63
:101370000643E06A40B12046FFF726F920B140203D
:10138000606584F83570BAE7206846612046FFF74B
:1013900007F994F85C203F2191408160656584F8ED
:1013A00035700020ACE700003F8010F02DE9F041DF
:1013B0000446866D90F83400002501280DD00120E8
:1013C00084F8340094F835700020012F07D084F899
:1013D000340002252846BDE8F0810220FBE7022701
:1013E00084F8357060652046FFF718F994F85C10B2
:1013F0003F208840B0602068016841F0160101601C
:10140000206C20B12068016841F00801016020686B
:10141000016841F001010160DCE7000070B504469D
:1014200000F0B6F90546601C02D004480078044478
:1014300000F0AEF9401BA042FAD370BDF4010020C9
:101440002DE9F04F0022DFF838B101264FF00F09E7
:1014500006FA02F401EA0403A3427DD122F0030755
:101460005F44D7F8088895074FEA157C09FA0CFA0B
:101470000AEA0805DFF80C81404502D14FF0000868
:1014800032E0DFF80481404502D14FF001082BE043
:10149000DFF8F880404502D14FF0020824E0DFF881
:1014A000F080404502D14FF003081DE0DFF8E480F2
:1014B000404502D14FF0040816E0DFF8DC804045DB
:1014C00002D14FF005080FE0DFF8D080404502D18F
:1014D0004FF0060808E0DFF8C880404502D14FF021
:1014E000070801E04FF0080808FA0CF8A84522D1D7
:1014F0002C4DD5F800C02CEA030CC5F800C005F14E
:10150000040CDCF800509D43CCF800500CF10405AD
:10151000D5F800C02CEA030CC5F800C02D1DD5F885
:1015200000C02CEA030CC5F800C0D7F8085825EA1B
:101530000A05C7F80858056857000323BB409D43B8
:101540000560D50800EB8505D5F820C057074FEAA0
:10155000D76809FA08F700E00CE02CEA070CC5F898
:1015600020C0C5689D43C5604568A5434560846843
:101570009C438460521C102AFFF46AAFBDE8F08FD0
:101580000030014000000240000402400008024018
:10159000000C0240001002400014024000180240FB
:1015A000001C0240003C014070470000044910B597
:1015B0000A68024202D00860FFF7F6FF10BD000083
:1015C000143C01402DE9F84F00224FF0010803259B
:1015D0004FF00F0E0B6808FA02F42340A3426ED1BD
:1015E0004E68012E05D0022E03D0112E01D0122EEE
:1015F00012D186684FEA420C05FA0CF7BE43CF6859
:1016000007FA0CF7374387604668A6430C79C4F3A2
:101610000014944034434460C668570005FA07FC40
:101620008C6826EA0C06BC403443C4604C68022C2B
:1016300001D0122C13D1D40800EB8404A346D4F8B3
:10164000209054074FEAD46A0EFA0AF629EA0609EE
:101650000E6906FA0AF646EA0906CBF82060066823
:101660000C7926EA0C0604F00304BC403443046001
:101670004C68E40065D5364C266846F48046266002
:10168000246822F0030604F480440094314C34446E
:10169000A446D4F808489607370F0EFA07F6B44365
:1016A0002D4EB04201D1002624E02C4EB04201D193
:1016B00001261FE02A4EB04202D102261AE040E085
:1016C000284EB04201D1032614E0274EB04201D18A
:1016D00004260FE0254EB04201D105260AE0244E33
:1016E000B04201D1062605E0224EB04201D10726C4
:1016F00000E00826BE402643CCF808681E4E346839
:101700004F689C43FF0300D51C4334601A4C241DD2
:1017100026684F689E43BF0300D51E432660164EC1
:10172000083634684F689C43FF0200D51C43346080
:10173000114E0C3634684F689C43BF0200D51C43E1
:101740003460521C102AFFF445AFBDE8F88F00004A
:1017500044380240003001400000024000040240D2
:1017600000080240000C0240001002400014024039
:1017700000180240001C0240003C01400069084083
:1017800000D0012070470AB1816170470904FBE76E
:101790000148806870470000F401002070477047DE
:1017A0002DE9F041016804464A694E6890F83E0010
:1017B0000025D743FA0506D4F243D20503D46FF4CB
:1017C000807201254A61B90508D4F143C90505D4E1
:1017D00022686FF4007145F002055161790525D446
:1017E000F143C90522D4638D94F83D10226B202863
:1017F00008D13BB9212910D029290ED0282901D19F
:10180000212A0AD022686FF48061516145F00405F5
:10181000102806D0402804D008E0204602F084FBBF
:1018200004E02068016841F400710160380508D4C3
:10183000F043C00505D421686FF4006045F0080549
:101840004861002D07D0206C284320642046BDE865
:10185000F04101F083BFBDE8F0812DE9F04102685D
:1018600000245168C56A90F83E3090F83D60102B16
:101870001CD0402B1AD0036C002B7ED053694FF044
:101880002805DB439F0779D4CF43BF0576D4016C8D
:1018900001B1946990F83D3000219D430B467FD003
:1018A000C91E516180F83C30BDE8F08194695369EC
:1018B0004FF42A07DB435FEAC37C4FF02A4604D08B
:1018C000BD42F1D0B542EFD010E0CD43AD050DD40F
:1018D000C16AB94201D1012103E0C16AB14201D11B
:1018E0000821C162BDE8F04102F0A2BA1D0716D47A
:1018F000CD43AD0513D4416CC9B21161416B11B92F
:10190000826B002AD0D0C96B19B9816BC96B0029D1
:10191000CAD00068416841F400614160C4E79D0796
:1019200006D4CD43AD0503D4BDE8F04102F0F4B9CF
:10193000E443526864074FEA025215D4002AB3DB2D
:101940001A0608D4CA43520505D45A0705D5BDE87E
:10195000F04102F085B95A07A6D4C9438905A3D43A
:10196000BDE8F04102F032B9002A9DDB5A060CD4E2
:10197000CA43520509D45A0702E00FE023E00FE002
:1019800005D5BDE8F04102F013B85A078CD4C9431D
:10199000890589D4BDE8F04101F0A1BF94696DE7E4
:1019A000556825F480655560E243540700D5012150
:1019B000120601D5828900E0028B80F83C3092B299
:1019C000FFF7EDFE70E7DC0606D4CC43A40503D494
:1019D000BDE8F04102F0EABA212E27D0292E25D009
:1019E0005C0655D4CC43640552D45B0752D590F8BD
:1019F0003D10438D002B91D01269436A1A70426AE0
:101A0000521C4262428D521E4285428D002A85D16F
:101A10002A29D7D101684A6822F480624A602221CB
:101A2000016380F83D5000F0DDFA3DE71C0623D449
:101A3000CC43640520D45B0720D590F83D10438D3E
:101A4000002BBFD0436A1B781361426A521C42626A
:101A5000428D521E4285428D002AB3D12929B1D12F
:101A600001684A6822F480624A602121016380F89B
:101A70003D5000F0B8FA17E75B07A3D4C9438905C6
:101A8000A0D4418D00299DD0416A097811610AE0F6
:101A90005B0797D4C943890594D4418D002991D01F
:101AA0001169426A1170416A491C4162418D491EA7
:101AB0004185F9E67047000070B5040025D094F820
:101AC0003D00002520B984F83C50204600F044FA3F
:101AD000242084F83D002068016821F001010160A4
:101AE0002068016841F4004101602068016821F428
:101AF0000041016000F0FAFB4D4A6168914201D853
:101B00004C4900E04C49884201D2012070BD4B494C
:101B10002368B0FBF1F15E6826F03F060E435E607D
:101B20006368934206D94FF4967359434FF47A731E
:101B3000B1FBF3F12368491C1E6A26F03F063143CE
:101B400019626168914210D84900401EB0FBF1F261
:101B5000521CC2F30B02042A01D2042022E0B0FB83
:101B6000F1F0401CC0F30B001CE0A268F2B301EBE3
:101B7000C10303EB0116431EB3FBF6F35B1C43F4F6
:101B800080431B0549D092B301EBC10202EB011166
:101B9000401EB0FBF1F0401CC0F30B0040F480404D
:101BA00040F400402168CA694CF6FF739A43104321
:101BB000C861D4E9071001432068026822F0C0021E
:101BC00011430160D4E9030101432068826848F2AF
:101BD000FF339A4311438160D4E90501084321682A
:101BE000CA6822F0FF021043C86001E00EE016E070
:101BF0002068016841F0010101602564202084F81B
:101C00003D00256384F83E50002070BD01EB410685
:101C1000431EB3FBF6F35B1CB3E70120C2E701EB05
:101C20004101401EB0FBF1F0401CC0F30B00B7E7D0
:101C3000A086010080841E0000093D0040420F0084
:101C400070477047704700002DE9F84F1F469046D7
:101C50008A460446DDF82890FFF79AFD054694F879
:101C60003D00202875D1192301226C49204600959A
:101C700002F070FA0028F5D194F83C00012868D0F1
:101C8000012084F83C0020680168C90703D101687D
:101C900041F0010101602068016821F400610160E8
:101CA000222084F83D00102084F83E00002626649F
:101CB000C4F824806785608D20855948E0622B46F2
:101CC0004A465146204601F0BDFE002878D1208DBD
:101CD000544F68B1012814D002282068016816D03A
:101CE00041F480610160206841698069009087E06B
:101CF0002068416981690091016841F400710160C7
:101D00007EE02068016821F480610160F0E721F441
:101D1000806101602068016841F40061E2E7032806
:101D200048D801280AD0022814D04B460022394650
:101D30002046009502F00EFAD8BB27E02A46494615
:101D4000204602F086FAA0BB20680069616A08702C
:101D50004DE061E04B46002239462046009502F0F6
:101D6000F9F930BB2068016841F400710160206816
:101D70000069616A0870606A401C6062218D491EBA
:101D80002185618D491E618521682EE020680168EA
:101D900021F48061016020680069616A0870606AEE
:101DA000401C6062208D401E2085608D401E608535
:101DB000D0E705E02A464946204602F04AFA10B12B
:101DC0000120BDE8F88F20680069616A0870606AC8
:101DD000401C6062218D491E2185618D491E6185EF
:101DE00021684A69D24352070AD409690170606ABE
:101DF000401C6062208D401E2085608D401E6085E5
:101E0000208D00288BD1202084F83D0084F83E608E
:101E100084F83C600020D4E70220D2E702001000E2
:101E20000000FFFF040001002DE9F84F1F46904617
:101E30008A460446DDF82890FFF7AAFC054694F888
:101E40003D0020287FD119230122404920460095DA
:101E500002F080F9002876D194F83C00012872D075
:101E6000012084F83C0020680168C90703D101689B
:101E700041F0010101602068016821F40061016006
:101E8000212084F83D00102084F83E0000262664BE
:101E9000C4F824806785608D20852D48E0622B463C
:101EA0004A465146204601F043FE90B920684169F8
:101EB0008069009036E02A464946204602F0FCF947
:101EC00050B1206C042804D12068016841F40071ED
:101ED00001600120BDE8F88F606A21680078086120
:101EE000606A401C6062618D491E6185218D491EBA
:101EF00089B2218522685369DB435B070BD451B15A
:101F000000781061606A401C6062608D401E6085D0
:101F1000208D401E20852A464946204602F0F4F8CE
:101F20000028CED1208D0028C5D154F83D0B016882
:101F300041F400710160202004F81E09E6776677FD
:101F40000020C7E7FFE70220C4E7000002001000FE
:101F50000000FFFF7047704710B586B0044614219B
:101F60006846FEF7D7F91C492068884231D11B48E2
:101F7000016841F0020101600068694600F002005A
:101F800005904FF4407000901220019001200290C3
:101F900003200390042004901148FFF713FB0F481F
:101FA0001030016841F4001101600068002200F463
:101FB0000010059005211F2000F0ACF81F2000F054
:101FC0009CF800220521202000F0A4F8202000F039
:101FD00094F806B010BD00000054004030380240B4
:101FE000000402407047704702488168027811443B
:101FF00081607047F40100200B4810B5016841F47E
:1020000000710160016841F480610160016841F480
:1020100080710160032000F09DF8002000F006F8B8
:1020200000F03EF8002010BD003C024010B5014613
:1020300088B00022362000F06DF8362000F05DF800
:1020400013480024016841F010010160006805A9EF
:1020500000F010000690684600F028F900F046F9FC
:102060000C494000B0FBF1F10C480B4A491E0260DC
:1020700040F2E732C0E90324C0E9011400F0C6FBD6
:1020800010B1012008B010BD044800F0A3FDF9E72D
:102090004038024040420F0000100040BCD30020F6
:1020A0000C4882B0016841F480410160006800F48E
:1020B000804000900748001F016841F08051016096
:1020C0000068002200F0805000900F21901E02B0A6
:1020D00000F020B84438024000280DDB00F01F0259
:1020E000012191404009800000F1E020C0F88011FA
:1020F000BFF34F8FBFF36F8F7047002809DB00F0ED
:102100001F02012191404009800000F1E020C0F849
:1021100000117047F0B40E4B1B680C46C3F302234A
:10212000C3F10705042D00D90425191D072901D283
:10213000002300E0DB1E012606FA05F1491E2140BE
:1021400099409E40761E16403143F0BC03F04CBCD3
:102150000CED00E0064900F0070208684FF6FF03A7
:10216000184040EA0220034A10430860704700000C
:102170000CED00E00000FA052DE9F0470E460500E1
:1021800065D0DFF81481D8F80000F7B200F00F0036
:10219000B04207D288F80070D8F8000000F00F00B5
:1021A000B04254D128683D4C810712D5400703D571
:1021B000206840F4E05020602878000703D52068AC
:1021C00040F4604020602068A96820F0F0000843D7
:1021D00020602878C0072DD0304968680839012868
:1021E00012D0022813D0032811D0096889070029CA
:1021F0002DDA216821F0030101432160FFF7C8FABD
:10220000814641F2883A0EE009688903EFE70968E0
:102210008901ECE7FFF7BCFAA0EB0901514502D9AF
:102220000320BDE8F0872068696800F00C00B0EB7F
:10223000810FEFD1D8F80010404601F00F01B142F4
:1022400007D90770006800F00F00B04201D00120EC
:10225000E7E72878400705D52068E96820F4E050D2
:10226000084320602878000706D52068296920F4F3
:10227000604040EAC100206000F058F82168084A38
:10228000C1F30311515CC840064908600648006864
:10229000FFF7CCFE0020C4E7003C024008380240B3
:1022A0001C9B000800020020F80100200F220260A1
:1022B0000C4A136803F003034360136803F0F00350
:1022C0008360136803F4E053C36012684FF4E05373
:1022D00003EAD20202610448006800F00F000860BF
:1022E0007047000008380240003C0240044805499D
:1022F00000680968044AC1F38221515CC8407047F4
:1023000000020020083802402C9B000804480549C0
:1023100000680968044AC1F34231515CC840704703
:1023200000020020083802402C9B0008154810B518
:10233000006810F00C02144813D01449042A0FD07E
:10234000082A0ED10F4C241F2268236802F03F0296
:102350005B0207D52068C0F38810A0FB010106E0EE
:10236000084610BD2168C1F38811A1FB00010023BC
:10237000FDF786FF2168C1F30141491C4900B0FB0C
:10238000F1F010BD083802400024F40040787D01CF
:102390002DE9F84F040076D02078DFF838A3CE4D31
:1023A000C00749D0DAF800105046C1F38101012975
:1023B00008D00068C0F3810002280AD1281D0068F7
:1023C000400206D52868800336D560680028E2D030
:1023D00032E06068B0F5803F10D0B0F5A02F2868DB
:1023E00010D020F480302860286820F480202860F5
:1023F0006068A0B1FFF7CCF906460CE0286840F40D
:102400008030F4E740F480202860F7E7FFF7C0F958
:10241000801B642873D828688003F7D50CE0FFF789
:10242000B7F9064605E000BFFFF7B2F9801B642844
:10243000F0D828688003F7D42078DFF8A0828007DE
:102440004FF000093ED5DAF80010504611F00C0F9D
:1024500009D00068C0F3810002280BD19D48001FFD
:102460000068400206D42868800715D5E068012876
:1024700009D111E0E068B8B10120C8F80000FFF709
:1024800087F9064605E020E1FFF782F9801B022864
:10249000C0D828688007F7D52868216920F0F8009F
:1024A00040EAC10028600DE0C8F80090FFF770F91D
:1024B000064604E0FFF76CF9801B02281FD8286845
:1024C0008007F7D42078000722D5824E84486169BE
:1024D0006C3671B101210160FFF75AF9074604E03B
:1024E000FFF756F9C01B022809D830688007F7D5D6
:1024F0000EE0C0F80090FFF74BF9074605E082E0D8
:10250000FFF746F9C01B02287DD830688007F7D452
:102510002078400768D5DFF8BCB100270BF1380BF5
:10252000DBF80000C0000BD4DBF8001041F0805154
:10253000CBF80010DBF80000012700F0805000907D
:10254000684E3068C00510D4306840F48070306048
:10255000FFF71EF9009005E0FFF71AF90099401AFD
:10256000022850D83068C005F6D55A4EA0686836A3
:1025700001280FD00528306810D020F0010030600D
:10258000306820F004003060A068B8B1FFF700F9AF
:1025900000900FE0306840F00100F4E740F00400E4
:1025A0003060F7E7FFF7F4F80099411A41F28830FC
:1025B000814266D830688007F4D50EE0FFF7E8F86E
:1025C000009007E0FFF7E4F80099411A41F28830E3
:1025D000814256D830688007F4D42FB1DBF8001060
:1025E00021F08051CBF80010A069D0B3DAF80020B8
:1025F0005146C2F38102022A4AD00228484607D037
:10260000C8F8600000E03CE0FFF7C2F804463BE099
:102610004746C8F86000FFF7BBF8064605E000BF74
:10262000FFF7B6F8801B02282BD828688001F7D462
:10263000D4E907010843A16A2B4A490802EB01418A
:10264000626A41EA8211084394F82C1040EA016161
:102650002048001F016001203866FFF799F8044602
:1026600005E034E0FFF794F8001B022809D8286839
:102670008001F7D52BE000BFFFF78AF8001B022886
:1026800002D90320BDE8F88F28688001F4D41EE049
:102690000128F7D00868E26900F48001914214D162
:1026A000226A00F03F0191420FD147F6C071626A81
:1026B0000140914209D1A26A00F44031914204D113
:1026C000E16A00F07060884201D00120DAE7002062
:1026D000D8E70000083802400038024000004742B6
:1026E000800E4742007000400000FFFF70477047B7
:1026F00010B590F83C20012A22D0012280F83C201D
:10270000CA688C6822F4407222434C6822F48062CA
:1027100022430C6822F4006222430C6922F48052A6
:1027200022434C6922F400522243C969002322F457
:1027300080420A4301684A6480F83C30002010BDA2
:10274000022010BD70B590F83C20012A32D001243F
:1027500080F83C40022280F83D2003685A689D685A
:1027600022F070060A6832435A60134B02689A429C
:1027700014D0B2F1804F11D0104B9A420ED0104BB2
:102780009A420BD00F4B9A4208D00F4B9A4205D079
:102790000E4B9A4202D00E4B9A4204D1496825F062
:1027A00080031943916080F83D40002180F83C107F
:1027B000084670BD022070BD0000014000040040CA
:1027C00000080040000C00400004014000400140AF
:1027D0000018004010B50446022084F83D0020682F
:1027E000016A41F21112114207D1016A921011429D
:1027F00003D1016821F001010160204600F022F8B8
:10280000002084F83D0084F83C0010BD10B50400A1
:1028100003D094F83D0010B107E0012010BD002066
:1028200084F83C00204600F097F8022084F83D0030
:10283000211D206802F0F6FC012084F83D000020F4
:1028400010BD000001683748374A814205D1106841
:1028500020F0010010601B2036E03348001FB1F16A
:10286000804F08D0314B99420BD1016821F0020111
:1028700001601D2028E0016821F0010101601C2099
:1028800022E02B4B994205D1016821F0040101603F
:102890001E2019E0274B994205D1016821F008015B
:1028A0000160322010E0244B994205D1016821F0EB
:1028B00020010160372007E0204B994206D11068C3
:1028C00020F0020010602E20FFF706BC1C4B99423E
:1028D00003D1106820F4803005E01A4B994204D1EE
:1028E000106820F4003010607047174B994203D1F4
:1028F000106820F48020F6E7144A914203D1016861
:1029000021F0400105E0124A914204D1016821F012
:102910008001016070470F4A9142FBD1016821F4A8
:102920008071F6E700000140443802400004004096
:1029300000080040000C004000140040000401406A
:1029400000400140004401400048014000180040A0
:10295000001C00400020004008B501689048914AE2
:10296000814226D1106840F00100106010680022FA
:1029700000F00100009005211820FFF7CBFB182084
:10298000FFF7BBFB002205211920FFF7C3FB19202D
:10299000FFF7B3FB002205211A20FFF7BBFB1A202B
:1029A000FFF7ABFB002205211B20FFF7B3FB1B2029
:1029B000F0E07C48001FB1F1804F11D07A4B994272
:1029C0001DD1016841F0020101600068002200F0A1
:1029D0000200009005211D20FFF79CFB1D20D9E07F
:1029E000016841F0010101600068002200F001006F
:1029F000009005211C20FFF78DFB1C20CAE06B4BCB
:102A000099420ED1016841F0040101600068002282
:102A100000F00400009005211E20FFF77BFB1E2024
:102A2000B8E0634B99420ED1016841F008010160A2
:102A30000068002200F00800009005213220FFF716
:102A400069FB3220A6E05B4B99420ED1016841F050
:102A5000200101600068002200F0200000900521A4
:102A60003720FFF757FB372094E0534B994226D18C
:102A7000106840F0020010601068002200F00200B0
:102A8000009005212B20FFF745FB2B20FFF735FB9E
:102A9000002205212C20FFF73DFB2C20FFF72DFB0A
:102AA000002205212D20FFF735FB2D20FFF725FB08
:102AB000002205212E20FFF72DFB2E206AE03F4B40
:102AC00099420ED1106840F48030106010680022E6
:102AD00000F48030009005211820FFF71BFB182020
:102AE00058E0374B99420ED1106840F40030106026
:102AF0001068002200F40030009005211920FFF733
:102B000009FB192046E02F4B99420ED1106840F482
:102B1000802010601068002200F4802000900521C1
:102B20001A20FFF7F7FA1A2034E0274A91420ED113
:102B3000016841F0400101600068002200F040009F
:102B4000009005212B20FFF7E5FA2B2022E01F4AF9
:102B500091420ED1016841F08001016000680022BD
:102B600000F08000009005212C20FFF7D3FA2C20E4
:102B700010E0174A914211D1016841F4807101605F
:102B80000068002200F48070009005212D20FFF7DE
:102B9000C1FA2D20BDE80840FFF7AFBA08BD00001C
:102BA000000001404438024000040040000800409A
:102BB000000C0040001400400004014000400140AF
:102BC000004401400048014000180040001C004043
:102BD000002000400168CA6842F00102CA60006833
:102BE000816801F00701062903D0016841F0010165
:102BF000016000207047022180F83D1001680A6AD8
:102C000041F211131A4207D10A6A9B101A4203D1EA
:102C10000A6822F001020A60012180F83D100020BC
:102C2000704770B5044690F83C00012817D0012584
:102C300084F83C50022084F83D002068826822F02D
:102C4000770222F47F4282600868502830D00DDC81
:102C500020284DD005DC98B310283BD148E0022055
:102C600070BD302844D0402834D139E0602828D0C5
:102C7000702806D0B0F5805F2CD0B0F5005F29D168
:102C80000AE0CB68D1E90121206802F03CFB206812
:102C9000816841F0770109E0CB68D1E90121206822
:102CA00002F031FB2068816841F48041816011E0CD
:102CB000CA684968206802F0FBFB5021206807E0E1
:102CC00016E0CA684968206802F003FC60212068A9
:102CD00002F023FB84F83D50002084F83C0070BDD6
:102CE000CA684968206802F0E3FB40212068EFE7EA
:102CF000226801461046EBE7704770B5044600684D
:102D000001694FF00005C943890715D4C168C9435B
:102D1000890711D4E91E01610120207720688069AC
:102D20008007204602D0FFF7E7FF04E000F000F93B
:102D3000204600F082F9257720680169C9434907D8
:102D400017D4C168C943490713D46FF00401016166
:102D5000022020772068806910F4407F204602D04E
:102D6000FFF7CAFF04E000F0E3F8204600F065F941
:102D7000257720680169C943090716D4C168C9438A
:102D8000090712D46FF00801016104202077206840
:102D9000C0698007204602D0FFF7AEFF04E000F0D4
:102DA000C7F8204600F049F9257720680169C94332
:102DB000C90617D4C168C943C90613D46FF01001FE
:102DC0000161082020772068C06910F4407F204608
:102DD00002D0FFF791FF04E000F0AAF8204600F0CF
:102DE0002CF9257720680169C943C90708D1C16852
:102DF000C943C90704D1891E0161204600F040F98A
:102E000020680169C943090609D4C168C943090694
:102E100005D46FF0800101612046FFF767FC206850
:102E20000169C943490609D4C168C943490605D4A3
:102E30006FF040010161204600F02CF92068016923
:102E4000C94389060BD4C168C943890607D46FF00A
:102E5000200101612046BDE87040FFF748BC70BD0D
:102E600030B587B0044614216846FDF753FA24684C
:102E70002848002228490223012584420ED10868EF
:102E800040F010000860086800F010000590481538
:102E90000090CDE901326946204821E02048B4F194
:102EA000804F10D01F4DAC4220D10C6844F001047B
:102EB0000C60096801F00101059140210091CDE904
:102EC0000132694623E00C6844F001040C60096893
:102ED00001F00101059120210091CDE901326946FF
:102EE000CDE90325FEF76EFB07B030BD0E488442E6
:102EF000FAD1086840F0080008600868694600F0E8
:102F000008000590A0140090CDE901320748CDE9F2
:102F10000323E7E700000140303802400010024080
:102F2000000002400004004000080040000C024085
:102F3000704770B5044690F83C000D4601280DD04E
:102F4000012684F83C60022084F83D0042B1042A46
:102F500018D0082A2AD00C2A4DD139E0022070BDA1
:102F6000206802F0E3F92068816941F0080181617D
:102F70002068816921F004018161206881692A69E2
:102F8000114311E0206802F001FA2068816941F4E0
:102F9000006181612068816921F48061816120681C
:102FA00081692A6941EA0221816124E0206802F0F6
:102FB00023FA2068C16941F00801C1612068C16934
:102FC00021F00401C1612068C1692A69114311E03F
:102FD000206802F045FA2068C16941F40061C161CE
:102FE0002068C16921F48061C1612068C1692A69D2
:102FF00041EA0221C16184F83D60002084F83C0070
:1030000070BD10B5040003D094F83D0010B107E086
:10301000012010BD002084F83C00204600F00CF890
:10302000022084F83D00211D206802F0FBF80120F9
:1030300084F83D00002010BD7047704710B504466D
:103040000068012202F052F90B492068884202D040
:103050000A49884203D1416C41F40041416420682F
:10306000816801F00701062903D0016841F00101E0
:103070000160002010BD000000000140000401407C
:1030800000680349884201D1FEF7AEBF70470000D7
:1030900000100040704710B504460068416994F87C
:1030A0003920C1F3C011212A0BD151B1416921F05E
:1030B00080014161206B08B1FDF7B0FF204602F0AE
:1030C0009BFA2068416994F83A20C1F38011222AC2
:1030D0000BD151B1416921F040014161606B08B1F0
:1030E000FDF79CFF204602F079FA002010BD7047E2
:1030F00070B5026804461068D168536910F00F0F6C
:1031000052D003F0010501F490762E435FD0C20740
:1031100005D0CA0503D5E26B42F00102E263420723
:1031200005D5DA0703D0E26B42F00202E2638207C0
:1031300005D5DA0703D0E26B42F00402E26302072E
:1031400007D501F020022A4303D0E26B42F00802C7
:10315000E263E26B002A33D0800604D5880602D5EC
:10316000204602F052FA20684069E16BC0F38010FB
:10317000090700D428B3204602F030FA20684169DC
:1031800049061AD5416921F040014161606BA0B147
:103190001B490165606BFDF788FF002810D0606B4C
:1031A000016DBDE870400847830610D58B060ED52B
:1031B0002046BDE8704002F028BA2046FFF797FF8E
:1031C00070BD2046FFF793FF0020E06370BD03064B
:1031D00006D50B0604D52046BDE8704002F0F4BACF
:1031E0004006F3D54806F1D5D168204621F04001CC
:1031F000D160202184F8391000F05CFA70BD000025
:103200000555000870B5040004D094F83900002575
:1032100010B106E0012070BD84F83850204600F05F
:1032200023F8242084F839002068C16821F4005173
:10323000C160204602F034FA2068016921F490410F
:1032400001612068416921F02A0141612068C1685B
:1032500041F40051C160E563202084F8390084F80E
:103260003A00002070BD00002DE9F04F87B00746FE
:1032700014216846FDF74EF88D488C4A3C688C490D
:103280001038012502268B4B4FF003084FF0080A37
:103290004FF0000B944232D10A6842F400220A60D7
:1032A000096801F400210591016841F00101016004
:1032B000016801F001010591016841F0040101601C
:1032C0000068CDE9005600F00400CDE904A0CDE986
:1032D0000258544669461846FEF774F9E802CDE9EB
:1032E00000060295CDE9038469467348FEF76AF942
:1032F000002205213420FEF70DFF3420ACE0DFF87A
:10330000BCC1DFF8AC91072209F10409644520D162
:10331000D9F8004044F01004C9F80040D9F8001072
:1033200001F010010591016841F0010101600068A0
:10333000029500F0010005904FF4C060CDE9000651
:10334000CDE9038269461846FEF73CF907B0BDE8AF
:10335000F08FDFF86CC164455AD1D1F800C05C46EB
:103360004CF4003CC1F800C0096801F4003105913B
:10337000016841F0010101600068029500F0010060
:1033800005900C20CDE90006CDE903826946184678
:10339000FEF718F94C4D4B484FF00066E5E8020681
:1033A00040204FF48068A5E81101474845F81449CA
:1033B000AC61EC612C626C62FDF78EFF08B1FDF729
:1033C00080F93D63AF633F48404D18382860C5E938
:1033D0000164C5E903486C61AC61EC612C6228466C
:1033E0006C62FDF779FF08B1FDF76BF97D63002290
:1033F00005212620AF63FEF78DFE2620FEF77DFE19
:103400003248C0380068C16841F01001C1609DE7D2
:103410002F4B9C4223D10B6843F480230B60096837
:1034200001F480210591016841F008010160006804
:10343000029500F0080005904FF44070CDE90006B9
:10344000CDE9038269462348FEF7BCF80022052136
:103450002720FEF75FFE2720FEF74FFE76E71E4986
:103460008C42D4D1D9F8002042F02002C9F80020C3
:10347000D9F8001001F020010591016841F0040124
:103480000160006802AA00F004000590C020CDE9A8
:10349000000682E8200569460748FEF793F80022F7
:1034A00005214720FEF736FE4720D5E7004C0040B7
:1034B0004038024000000240000802400010014075
:1034C00000440040A06002403CD70020DCD800202F
:1034D00000480040000C024000140140F8B50446CA
:1034E00090F83A0020283CD1C1B3BAB394F8380020
:1034F000012836D0012084F83800A162A285002579
:10350000E563222084F83A00636B1748D863636B45
:1035100016481864636B1648D864606B13460565DB
:103520000846666B216802463046091DFDF73EFFDE
:10353000206801684168009184F83850C16841F4FE
:103540008071C1602068416941F0010141612068DA
:10355000416941F0400141610020F8BDFFE70120D1
:10356000FBE70220F9E700005F5500089B550008C3
:1035700015550008704770472DE9F843044690F848
:1035800039001F4616460D46202850D1B5B1AEB1C0
:1035900094F8380001284AD0012084F838004FF010
:1035A0000008C4F83C80212084F83900FEF7F0F8C8
:1035B000A6848146E68484F8388026E00120BDE8B0
:1035C000F883E08C401EE084A0684B46B0F5805F35
:1035D0004FF000024FF080012046009703D002F028
:1035E00024F9E8B90DE002F020F9C8B9288821686B
:1035F000C0F308004860206908B16D1C05E0AD1CEF
:1036000003E0216815F8010B4860E08C0028D8D150
:103610004B46002240212046009702F006F908B1EF
:103620000320CCE7202084F839000020C7E70220DF
:10363000C5E7000070B5044690F83900202830D165
:1036400069B362B394F8380001282AD0012084F8C5
:1036500038002162A284E2840025E563212084F8F9
:103660003900236B1048D863236B10481864236B10
:103670000F48D864206B134605652668206B321D01
:10368000FDF794FE21686FF04000086084F8385020
:103690002068416941F080014161002070BD012036
:1036A00070BD022070BD0000A5550008D35500086C
:1036B0001555000870477047FEE700000148FEF707
:1036C0006FB8000068D300200148FEF7C6B80000BC
:1036D00068D3002010B5806B90F83D20436B00212B
:1036E00003B1D963836B03B1D96303681C6824F405
:1036F00080641C604185436B03B11965836B03B122
:10370000196503681C6824F001041C6090F83D40B2
:103710002023602C0BD0282434EA02020FD080F83A
:103720003D3080F83E1000BFFEF7C4F910BD80F8B0
:103730003D3080F83E100164FEF730F810BD02689D
:10374000136843F0010313600268136843F4806355
:103750001360016380F83D40E6E7000070B5044661
:1037600090F83D0094F83E10102906D1222804D18B
:1037700021680A6822F400620A60282131EA000206
:103780004FF000054FF0200626D021684968090552
:1037900003D4602801D084F83D60256384F83E504E
:1037A00020684168090537D5416821F4006141600E
:1037B000606B90F835203C49012A11D00165606B9F
:1037C000FDF773FC38B32068016821F00101016046
:1037D00084F83D60606B1CE0256384F83D10DFE7F2
:1037E000A06B0165A06BFDF760FCA0B1206841698A
:1037F000C943490605D40069616A0870606A401CC3
:1038000060622068016821F00101016084F83D6078
:10381000A06B016D884710E094F83D10602910D02E
:103820004169C943490605D40069616A0870606A44
:10383000401C60622046FEF73DF9206CC1071CD198
:1038400015E084F83D6025644169C943490605D403
:103850000069616A0870606A401C606220680168E3
:1038600021F0010101602046FDF798FFE5E781079F
:1038700003D4410701D4000704D52068416821F42E
:10388000E061416094F83D00216C49070BD5282880
:1038900009D10648E062256384F83D6084F83E5013
:1038A0002046FEF7CDF970BDD53600080000FFFFB9
:1038B00001684A69D24352050FD46FF480624A61AD
:1038C000002140F8301F202242738173026942F0C8
:1038D000040202610173012070470020704710B597
:1038E000C26A438D0168042B06D0438D032B08D098
:1038F000438D022B1DD012E04A6822F480624A6098
:103900000CE04B6823F480634B60042A06D0022A43
:1039100004D001680A6822F480620A6001680969BB
:10392000426A1170416A491C4162418D491E4185BC
:1039300010BD012A30D0102A2ED0042A30D0022AFD
:103940002ED00A6842F400720A6001680969426A6E
:103950001170416A491C4162428D521E42850268C3
:1039600012690A70416A491C4162418D491E4185B4
:1039700001684A6822F440724A60202180F83D10B4
:1039800090F83E200021402A80F83E100CD01221F1
:103990000163FEF756F910BD0A6822F48062D3E78E
:1039A0000A6842F48062CFE70163FEF7D3FA10BDE4
:1039B00010B590F83D10222914D1418D032912D958
:1039C00001680969426A1170416A491C4162418D6E
:1039D000491E4185418D032904D10068416821F4C5
:1039E0008061416010BDC26A022AFBD0012901D06A
:1039F0000029F7D101680A6822F480620A60016830
:103A00004A6822F4E0624A6001680969426A1170FA
:103A1000416A491C4162418D491E4185202180F83F
:103A20003D1090F83E200021402A80F83E1004D03E
:103A300012210163FEF705F910BD0163FEF78AFA52
:103A400010BD00002DE9F84F0446C06A1E4693469B
:103A50000D4621680A6842F480620A60082807D08F
:103A6000012805D010F5803F02D0206B112804D129
:103A70002068016841F4807101604FF001195B46D4
:103A8000002249462046009600F064FB4FF400787F
:103A900040B120680068C00501D5C4F8408003200B
:103AA000BDE8F88F2069DFF884A0B0F5804F0FD013
:103AB0000620216800EAD51747F0F0000861334678
:103AC0005A460AF10601204600F078FB58BB03E095
:103AD000E8B240F001001CE02168E8B2086133461A
:103AE0005A465146204600F069FBE0B9206841691A
:103AF00081690091016841F4807101605B46002298
:103B000049462046009600F025FB0028C1D147F029
:103B1000F1002168086133465A465146204600F0BC
:103B20004DFB0028BCD00120BAE7000002000100D4
:103B3000F8B50446C06A1E460D461746082807D049
:103B4000012805D010F5803F02D0206B122804D147
:103B50002068016841F480710160134600224FF033
:103B600001112046009600F0F5FA40B12068006887
:103B7000C00502D54FF4007020640320F8BD206911
:103B8000B0F5804F0ED00620216800EAD51040F035
:103B9000F000086133463A460B49204600F00EFB20
:103BA00078B902E005F0FE0000E0E8B221680861A3
:103BB000054933463A46891F204600F0FFFA00289F
:103BC000DCD00120F8BD00000800010010B5C26A79
:103BD00090F83D10212907D090F83E1040290FD1D0
:103BE000BDE8104000F06AB9418D51B1416A0268E8
:103BF00009781161416A491C4162418D491E418524
:103C000010BD20230021082A13D0202A11D012F53C
:103C1000803F0ED00268546824F4E064546011229E
:103C2000026380F83E1080F83D3000BFFEF70AF8CE
:103C300010BD0268546824F4E0645460026814689B
:103C400044F400741460016380F83D3090F83E2025
:103C500080F83E10402AE9D1FEF77DF910BD000042
:103C600010B590F83D1090F83E30C26A048DB4B1A2
:103C7000212903D0402B11D122290FD1418DE1B34D
:103C800090F83E10402942D0416A026809781161DB
:103C9000416A491C4162418D491E418510BD21295F
:103CA000E8D120230021082A13D0202A11D012F5B0
:103CB000803F0ED00268546824F4E06454601122FE
:103CC000026380F83E1080F83D3000BFFDF7BAFF78
:103CD00010BD0268546824F4E064546002681468FB
:103CE00044F400741460016380F83D3090F83E2085
:103CF00080F83E10402AE9D100E002E0FEF72BF9FF
:103D000010BD0068416821F48061416010BDBDE8CC
:103D1000104000F0D3B8000078B590F83E50C26A69
:103D2000036B90F83D6000240168222E7AD1066D65
:103D30000EB9402D76D0056D1DB90569B5F5404F1A
:103D400009D0458D05B3468D384D012E0ED0438DDB
:103D5000022B3AD05DE04A698A6900920A6842F40F
:103D600080720A60016D491C016578BDAA4213D1B9
:103D70000A6822F480620A6001684A68120503D565
:103D80000A6822F4806216E04A698A6900920A6829
:103D900042F400720A6039E0082A10D0202A0ED0BE
:103DA000122B0AD0042A03D0022A01D0102AE7D10C
:103DB0000A6842F480620A6024E0012AE0D00A68BE
:103DC00022F480620A600168DEE7042A21D0022A18
:103DD0001FD0102A1DD00B6823F480630B6001688C
:103DE0000B6843F400630B6001684B681B0509D541
:103DF000AA4212D0012A10D0082A0ED0102A0CD0C4
:103E0000202A0AD001684A6989690091046578BD51
:103E100008E00B6843F48063E5E74A6842F48052A7
:103E20004A60EFE7486988690090F0E70000FFFF0B
:103E300090F83E10402910D00169B1F5804F19D09B
:103E4000016DA9B3016D012910D1416C5FF0F10240
:103E500001F4407142EAD11106E0016D0029416C84
:103E600005D0C9B241F0010100680161704701F05D
:103E7000FE01F9E790F83D102129416C09D0C9B243
:103E800041F0010102681161416B29B1C96B49B967
:103E900002E001F0FE01F5E7816B0029E6D0C96B75
:103EA0000029E3D00068416841F400614160704737
:103EB000FFE7416CF02201F44071CBE7016DC1B125
:103EC000016D012923D0016D022911D190F83D1017
:103ED000222923D090F83D10212909D1416A026896
:103EE00009781161416A491C4162418D491E418531
:103EF0007047C16C0129816C02D0C1F3072108E031
:103F00000268C9B21161016D891C01657047816C3D
:103F1000C9B202681161016D491CF6E700680168C9
:103F200041F48071016070472DE9F04190F83D4007
:103F3000C26A002320261C4F01686FF48065082A9E
:103F400001D0202A01D1282C04D0212C16D04D617B
:103F5000BDE8F081C7624A6822F4E0624A60016805
:103F60004D6101680A6822F480620A60036380F888
:103F70003D6080F83E30FDF763FEE9E7C76221222D
:103F8000026380F83D6080F83E304A6822F4E062C7
:103F90004A6001684D6101680A6822F480620A6023
:103FA000FEF721F8D4E700000000FFFFF8B590F815
:103FB0003D6004460068416821F4E061416020688A
:103FC000002541690091016841F00101016020680C
:103FD000016821F48061016020684168090520D5ED
:103FE000474F222E48D02A2E46D0616B0968496877
:103FF0006185618D19B1216C41F004012164416832
:1040000021F400614160606BFDF792F8012808D04F
:10401000606B0765606BFDF748F810B1606B016D70
:104020008847608D08B320684169C943490708D4AF
:104030000069616A0870606A401C6062608D401EA1
:10404000608520684169C943490608D40069616AEE
:104050000870606A401C6062608D401E6085608DE3
:1040600018B1206C40F004002064206C00B320469E
:10407000BDE8F840FFF772BBA16B0968496861852C
:10408000618D19B1216C41F004012164416821F472
:1040900000614160A06BFDF74BF80128C1D0A06B17
:1040A0000765A06BFDF701F80028BAD0A06BB6E752
:1040B0002A2E06D12563282084F83D002046FDF7EE
:1040C00091FF94F83D10202028290DD0216B222942
:1040D00001D0222E07D1256384F83D0084F83E509C
:1040E0002046FDF77FFFF8BD0649E162256384F8AD
:1040F0003D0084F83E502046FDF7A2FDF8BD0000CB
:10410000D53600080000FFFF70B516460D46044680
:104110000DE02046FFF7CCFB08B1012070BD681C04
:1041200005D0FDF735FB801BA84207D835B12068C4
:104130004069C0434007ECD4002070BD002044F823
:10414000300F20216173A073216941F020012161AA
:104150002073E2E72DE9F0471E4690460D460446DF
:10416000C1F30747DDF8209008E0701C06D0FDF78A
:104170000FFBA0EB0900B0420FD876B12068012FE9
:1041800018D0806925EA00000004000C14D000213A
:104190004145EAD00020BDE8F087002044F8300F08
:1041A00020216173A073216941F0200121612073F6
:1041B0000120F0E74069E5E70121E9E72DE9F04753
:1041C0009A4691460E46044600254FF02008C1F35A
:1041D000074725E020684069C043400514D42068A3
:1041E000016841F40071016021686FF480604861EA
:1041F000256384F83D8084F83E50206C40F0040034
:10420000206484F83C501FE0B9F1FF3F08D0FDF76F
:10421000BFFAA0EB0A0149450CD8B9F1000F09D04B
:104220002068012F13D0806926EA00000004000CEA
:104230000BD0CFE744F8305F84F80D80A573206978
:1042400040F02000206125730120BDE8F08740691F
:10425000EAE72DE9F041002590460E460446202766
:1042600017E04069C043C0060CD454F8301B6FF00F
:104270001000486144F810596777A577206A2062DA
:10428000257717E0FDF784FAA0EB0800B04208D8C4
:104290003EB120684169C9434906E2D40020BDE827
:1042A000F08144F8305F6773A573206940F0200007
:1042B000206125730120F2E770B516460D460446CD
:1042C0000DE02046FFF7F4FA08B1012070BD681C2C
:1042D00005D0FDF75DFA801BA84207D835B12068EC
:1042E0004069C0430006ECD4002070BD002044F8B3
:1042F000300F20216173A073216941F020012161F9
:104300002073E2E70D4810B50B49016010214160B0
:1043100000218160C1600161416101764176817651
:10432000C17601774177FCF762FC002803D0BDE835
:104330001040FCF7C6B910BD00640040940E002088
:104340000D4810B50B4901601021416000218160CA
:10435000C16001614161017641768176C176017764
:104360004177FCF744FC002803D0BDE81040FCF77F
:10437000A8B910BD00680040BC0E0020074910B568
:10438000054808600846FCF724FE002803D0BDE875
:104390001040FCF796B910BD003002408C0100209F
:1043A0000D4808B5016841F4001101600068002261
:1043B00000F40010009005211020FDF7ABFE102046
:1043C000FDF79BFE002205211120FDF7A3FEBDE8AD
:1043D00008401120FDF791BE3038024030B5ADF5F0
:1043E000017D02F065FD18225E4975A8FBF779FF93
:1043F0004FF4807575AA3C21284602F095FD5A4C71
:1044000058491822606318317BA8FBF76AFF7BAA22
:104410003C21284602F088FD5249A0632422303115
:104420006846FBF75EFF6A460021504802F0B6FD81
:104430004C4920602422543109A8FBF752FF09AAF5
:1044400000214B4802F0AAFD4649606024227831E1
:1044500012A8FBF746FF12AA0021464802F09EFD73
:104460004049A06024229C311BA8FBF73AFF1BAAFD
:104470000021414802F092FD3A49E0602422C03117
:1044800024A8FBF72EFF24AA00213C4802F086FD59
:10449000344920612422E4312DA8FBF722FF2DAA04
:1044A0000021374802F07AFD60612422354936A8A0
:1044B000FBF717FF36AA0021334802F06FFD3149A0
:1044C000A061242224313FA8FBF70BFF3FAA002163
:1044D0002E4802F063FD2B49E0612422483148A8B0
:1044E000FBF7FFFE48AA0021294802F057FD2549A5
:1044F000206224226C3151A8FBF7F3FE51AA00215F
:10450000244802F04BFD1F496062242290315AA8D2
:10451000FBF7E7FE5AAA00211F4802F03FFD1949A8
:10452000A0622422B43163A8FBF7DBFE63AA00215A
:104530001A4802F033FD1349E0622422D8316CA8F6
:10454000FBF7CFFE6CAA0021154802F027FD20637F
:1045500003F022FA03F0EAFD01F098FB0DF5017D6E
:1045600030BD000010990008940100201D4E000885
:10457000F17C00088D7E0008E9790008397A00088E
:10458000797F0008189A0008857A0008357D0008B0
:10459000C17F0008E1790008317B0008D17A00086A
:1045A000817D00082DE9F04F87B014216846FBF7A4
:1045B000B1FE6B480024016841F010010160016800
:1045C00001F010010591016841F0200101600168CE
:1045D00001F020010591016841F0010101600168CD
:1045E00001F001010591016841F0020101600168DB
:1045F00001F002010591016841F0080101600168C4
:1046000001F008010591016841F040010160016875
:1046100001F040010591016841F00401016000686A
:10462000DFF840A100F0040046F68806059000225D
:1046300031465046FDF7A7F8DFF82CB14FF4C177AB
:10464000002239465846FDF79EF848F601480022F8
:1046500041464648FDF797F84FF460490022494625
:104660004348FDF790F800224C214248FDF78BF8B3
:10467000772001258DE8310069465046FCF7A2FFFE
:104680000096CDE90154694650460394FCF79AFF21
:104690004FF6FF7000903848CDE90105694637486C
:1046A000FCF790FF0097CDE9015469465846039402
:1046B000FCF788FFCDF80080CDE9015469462B480E
:1046C0000394FCF77FFFCDF80090CDE901546946D3
:1046D00027480394FCF776FF4C200090CDE9015465
:1046E000694624480394FCF76DFF0022052106204B
:1046F000FDF710FD0620FDF700FD00220521072033
:10470000FDF708FD0720FDF7F8FC00220521082031
:10471000FDF700FD0820FDF7F0FC0022052109202F
:10472000FDF7F8FC0920FDF7E8FC002205210A202E
:10473000FDF7F0FC0A20FDF7E0FC00220521172020
:10474000FDF7E8FC1720FDF7D8FC00220521282002
:10475000FDF7E0FC2820FDF7D0FC07B0BDE8F08FA6
:1047600030380240001002400000024000040240C5
:10477000000C02400018024000002110001402400A
:104780000D4810B50B4901600C49416000214FF400
:1047900080428160C0E903120322C0E90512C161B1
:1047A0000162FDF789F9002803D0BDE81040FBF74E
:1047B00088BF10BD0054004068D30020A0860100CF
:1047C0000C4810B50A49016044F29F114160002174
:1047D00041F28732C0E90212016180218161FEF756
:1047E00015F8002803D0BDE81040FBF76ABF10BDE4
:1047F00000440140FCD500200C4810B50A49016076
:1048000044F29F114160002142F20F72C0E902128E
:10481000016180218161FDF7F9FF002803D0BDE827
:104820001040FBF74EBF10BD004801403CD60020B1
:104830001FB5002110480091019102910D4A03918A
:10484000026042F2CF02C0E90121DB22C0E903216C
:104850008161FDF7DBFF08B1FBF733FF4FF48050B8
:10486000009069460448FEF7DCF9002801D0FBF708
:1048700028FF1FBD001800407CD600200A4810B554
:1048800008490160002141608160C160016181616E
:10489000FDF7BCFF002803D0BDE81040FBF711BFB7
:1048A00010BD0000001C0040BCD600200B4810B515
:1048B000094901605321416000216322C0E90212CD
:1048C000016180218161FDF7A1FF002803D0BDE8CF
:1048D0001040FBF7F6BE10BD00200040FCD60020C3
:1048E00010B596B000240F94109411941294139460
:1048F0001C2108A81494FBF70DFD20216846FBF746
:1049000009FD2A4828490160A721C0E9011440F2A5
:10491000E731C0E903148021C0E90541FDF776FFC6
:1049200008B1FBF7CEFE4FF480500F900FA91F483F
:10493000FEF777F908B1FBF7C4FE1C48FEF761FBF0
:1049400008B1FBF7BEFE139413A918481494FDF7A1
:10495000F9FE08B1FBF7B5FE6020089040F2F310B5
:10496000CDE909040B940C940D94002208A90F487A
:104970000E94FEF7DEFA08B1FBF7A3FE00944FF4A5
:104980000050CDE90440029401940394694607481D
:104990000794FDF7ADFE08B1FBF793FE0348FEF761
:1049A0005FFA16B010BD000000000140FCD30020EB
:1049B00010B58EB000240794089409940A940B94BF
:1049C0001C2168460C94FBF7A5FC1F484FF0804162
:1049D00001605321C0E9011440F2E731C0E903143A
:1049E00080218161FDF712FF08B1FBF76AFE4FF4E9
:1049F0008050079007A91448FEF713F908B1FBF798
:104A000060FE1148FEF7FDFA08B1FBF75AFE0B9461
:104A10000BA90D480C94FDF795FE08B1FBF751FE6C
:104A20006020009040F2F310CDE9010400226946B5
:104A300005480494FEF77DFA08B1FBF742FE0248F0
:104A4000FEF70EFA0EB010BD3CD4002010B58EB0AB
:104A500000240794089409940A940B941C21684636
:104A60000C94FBF757FC20481E4901605321C0E914
:104A7000011440F2E731C0E9031480218161FDF7A0
:104A8000C5FE08B1FBF71DFE4FF48050079007A943
:104A90001548FEF7C6F808B1FBF713FE1248FEF7FB
:104AA000B0FA08B1FBF70DFE0B940BA90E480C945D
:104AB000FDF748FE08B1FBF704FE6020009040F2CD
:104AC000F310CDE901040022694607480494FEF77B
:104AD00030FA08B1FBF7F5FD0348FEF7C1F90EB057
:104AE00010BD0000000400407CD4002010B58EB042
:104AF00000240794089409940A940B941C21684696
:104B00000C94FBF707FC20481E4901605321C0E9C3
:104B1000011440F2E731C0E9031480218161FDF7FF
:104B200075FE08B1FBF7CDFD4FF48050079007A943
:104B30001548FEF776F808B1FBF7C3FD1248FEF7FB
:104B400060FA08B1FBF7BDFD0B940BA90E480C945D
:104B5000FDF7F8FD08B1FBF7B4FD6020009040F2CE
:104B6000F310CDE901040022694607480494FEF7DA
:104B7000E0F908B1FBF7A5FD0348FEF771F90EB0A7
:104B800010BD000000080040BCD4002010B586B065
:104B90000024174800940194029403940494134948
:104BA000059401605321C0E9011444F61F61C0E976
:104BB000031480218161FDF729FE08B1FBF781FD17
:104BC0004FF48050009069460948FEF72AF808B172
:104BD000FBF777FD049404A905480594FDF7B2FDA1
:104BE000002801D0FBF76DFD06B010BD000C0040A1
:104BF000FCD400201CB500240F4800940D490194FA
:104C0000016042F2CF01C0E9011442F20F71C160AC
:104C100080218161FDF7FAFD08B1FBF752FD009498
:104C2000694605480194FDF78DFD002801D0FBF78A
:104C300048FD1CBD001400403CD5002010B586B0D6
:104C40000024184800940194029403940494144995
:104C50000594016044F29F11C0E9011440F2E7316C
:104C6000C0E903148021C0E90541FDF7CFFD08B17B
:104C7000FBF727FD4FF48050009069460948FDF787
:104C8000D0FF08B1FBF71DFD049404A90548059465
:104C9000FDF758FD002801D0FBF713FD06B010BD4D
:104CA000000401407CD500201FB50021114800916F
:104CB000019102910E4A0391026044F29F12C0E9F1
:104CC000012140F2E732C0E9032180218161FDF733
:104CD0009DFD08B1FBF7F5FC4FF48050009069464C
:104CE0000448FDF79EFF002801D0FBF7EAFC1FBD3A
:104CF00000400140BCD500200C4810B50A490160B5
:104D00004FF4E1314160002181600C22C160C0E9B3
:104D100004128161C161FEF775FA002803D0BDE875
:104D20001040FBF7CEBC10BD004C00409CD70020CB
:104D30000C4810B50A4901604FF4E131416000218F
:104D400081600C22C160C0E904128161C161FEF77B
:104D500059FA002803D0BDE81040FBF7B2BC10BDE3
:104D600000100140DCD700200E4810B50C4901604E
:104D70004FF4964141604FF48051816000214FF41F
:104D80008062C0E903120C22C0E90521C161FEF76F
:104D900039FA002803D0BDE81040FBF792BC10BDE3
:104DA000004400401CD800200C4810B50A4901609E
:104DB0004FF4E1314160002181600C22C160C0E903
:104DC00004128161C161FEF71DFA002803D0BDE81D
:104DD0001040FBF776BC10BD004800405CD80020B6
:104DE0000C4810B50A4901604FF4E13141600021DF
:104DF00081600C22C160C0E904128161C161FEF7CB
:104E000001FA002803D0BDE81040FBF75ABC10BDE2
:104E1000001401409CD80020FEE7704708B500242C
:104E20004FF4FA65661E00942B466A463146002010
:104E300004F094FA009870B10948009403F028FC3B
:104E4000074908A000F0ACFD054803F0BFFB04498A
:104E500004A000F0A5FD012002F010F8E4E7000036
:104E60008802002025730A0010B5502080F31188B5
:104E7000BFF34F8FBFF36F8F04F00CFA18B10449E2
:104E80004FF080500860002080F3118810BD0000B2
:104E900004ED00E030B593B030216846FBF73AFAF4
:104EA00014210CA8FBF736FA19480025016841F0D7
:104EB00080510160006800F0805011901548016831
:104EC00041F4804101600068022400F480401190A8
:104ED000012003901020009406940490CDE907501F
:104EE0004FF4A870CDE9090404200B906846FDF743
:104EF0004FFA0CA90F2081E831004FF4A0500F9019
:104F0000E002109005210CA8FDF736F913B030BD72
:104F100040380240007000400548016841F47001CB
:104F2000016003494FF0006080390860704700005D
:104F300088ED00E0F8B51848184C194E00684FF09D
:104F4000805570B104F11001012200910023114637
:104F500004F014F9206920B13560BFF34F8FBFF31F
:104F60006F8F1048006870B10C4901221431009114
:104F70000023114604F002F9606920B13560BFF3E7
:104F80004F8FBFF36F8F0848FDF7B7FEBDE8F840BD
:104F90000648FDF7B2BE0000AC010020D0010020A1
:104FA00004ED00E0B0010020FCD30020BCD50020BF
:104FB0000148FDF7A2BE0000FCD300200F4808B551
:104FC000006890B10E49012200910023114604F0BF
:104FD000D5F80B480838806838B10A494FF080503E
:104FE0000860BFF34F8FBFF36F8F0748FDF785FE53
:104FF000BDE808400548FDF780BE0000980100208C
:10500000D801002004ED00E0FCD300203CD60020B5
:10501000124808B500680069C043C00715D11048A0
:10502000006890B10F49012200910023114604F05D
:10503000A5F80C481838806938B10B494FF08050FA
:105040000860BFF34F8FBFF36F8F0848FDF755FE21
:10505000BDE808400148FDF750BE0000FCD5002027
:10506000A0010020E801002004ED00E0FCD30020B6
:105070000148FDF742BE00003CD400200148FDF786
:105080003CBE00007CD400200148FDF736BE000085
:10509000BCD400200D4808B5006890B10C4901222D
:1050A00000910023114604F069F80948001F406888
:1050B00038B108494FF080500860BFF34F8FBFF3FD
:1050C0006F8FBDE808400448FDF717BEA801002017
:1050D000D401002004ED00E0FCD400200148FDF7DD
:1050E0000CBE0000BCD300200D4808B5006888B194
:1050F0000C49012200910023114604F03FF80948B1
:10510000006838B108494FF080500860BFF34F8FF6
:10511000BFF36F8FBDE808400448FDF7EEBD000007
:1051200094010020D001002004ED00E03CD50020D7
:1051300038B5154C20680069C043C00719D1134821
:10514000006890B11249009100230122212104F04E
:1051500015F80F482038006A38B10E494FF08050DA
:105160000860BFF34F8FBFF36F8F21686FF00100AE
:1051700008610948FDF7C1FD0348FDF7BEFDBDE824
:1051800038400148FDF737BD7CD60020C40100201F
:10519000F001002004ED00E07CD500200148FDF77F
:1051A000ACBD00007CD50020064810B50168491C44
:1051B00001600548FDF7A1FDBDE810400348FDF77B
:1051C0009CBD0000140000207CD50020FCD60020EF
:1051D0000F4808B5006890B10E49012200910023E4
:1051E000114603F0CBFF0B480C38C06838B10A49B0
:1051F0004FF080500860BFF34F8FBFF36F8F0748A9
:10520000FDF77BFDBDE808400548FDF776BD0000D1
:10521000A4010020DC01002004ED00E07CD500208A
:10522000BCD60020F0B50268254C264D264E274FEF
:10523000274B4FF0804CA04209D0604507D0A842D0
:1052400005D0B04203D0B84201D0984204D122F038
:10525000700E4A6842EA0E02A0421BD0604519D087
:10526000A84217D0B04215D0B84213D0984211D0FE
:10527000184DA8420ED0184DA8420BD0174DA84289
:1052800008D0174DA84205D0164DA84202D0164DA1
:10529000A84203D122F44075CA682A434D6922F01E
:1052A00080022A4302608A68C2620A688262A0425F
:1052B00001D0984201D10969016301214161F0BD2A
:1052C000000001400004004000080040000C0040C5
:1052D00000040140004001400044014000480140FA
:1052E00000180040001C00400020004010B501F0F4
:1052F0001F030121046A99408C430462016A9A40A9
:105300001143016210BD10B5846842EA032224F4FF
:105310007F440A432243826010BD826822F07002FB
:105320000A4342F00701816070470000F0B5026A4D
:1053300022F001020262036A42688469124E24F07C
:1053400073050C682C4323F002058B682B430D4D2D
:10535000A84201D0B04205D123F00807CB683B43F7
:1053600023F00403A84201D0B04205D14D6922F4D4
:10537000407215438A692A434260846149684163E7
:105380000362F0BD0000014000040140F0B5026A74
:1053900022F010020262026A436884690D6824F4F4
:1053A000E64444EA05248D6822F0200242EA051210
:1053B0000F4D104EA84201D0B04206D1CF6822F066
:1053C000800242EA071222F04002A84201D0B04215
:1053D00007D14D6923F4406343EA85038D6943EAAD
:1053E000850343608461496881630262F0BD000007
:1053F0000000014000040140F0B5026A22F480720E
:105400000262026A4368C46922F4007224F07305E0
:105410000C68124E2C438D6842EA05220E4DA842BC
:1054200001D0B04206D1CF6822F4006242EA0722DE
:1054300022F48062A84201D0B04207D14D6923F422
:10544000405343EA05138D6943EA05134360C46181
:105450004968C1630262F0BD0000014000040140E0
:1054600030B5026A22F480520262046A4268C3695B
:105470000D6823F4E64343EA05238D6824F40054C1
:1054800044EA0534084DA84202D0084DA84204D190
:105490004D6922F4804242EA85124260C361496844
:1054A0000164046230BD00000000014000040140BE
:1054B00010B5036A046A24F001040462846924F0CC
:1054C000F00444EA021423F00A020A4384610262EF
:1054D00010BD10B5036A23F0100303628369046AE8
:1054E00023F4704343EA023224F0A00343EA01119B
:1054F0008261016210BD00000148FDF7F9BD0000A6
:105500009CD7002010B5806B0021C185C184FDF7B8
:10551000EEFD10BD70B5846B2068406994F83910B9
:10552000C0F3C0100025212904D118B1E58420461C
:1055300000F062F82068406994F83A10C0F38010D7
:10554000222904D118B1E585204600F047F8E06B28
:1055500040F01000E0632046FDF7C9FD70BD10B5B6
:105560000146806B09680968C90513D40021C1850B
:105570000168CA6822F48072CA6001684A6922F030
:1055800001024A6101684A6922F040024A61202111
:1055900080F83A10FDF7EEFF10BD10B5806BFDF7F7
:1055A000EAFF10BD10B50146806B09680968C9059E
:1055B0000CD40021C18401684A6922F080024A614A
:1055C0000068C16841F04001C16010BDFEF772F88B
:1055D00010BD10B5806BFEF76EF810BD0168CA688B
:1055E00022F49072CA6001684A6922F001024A619D
:1055F000202180F83A1070470168CA6822F0C00282
:10560000CA60202180F83910704710B590F83A1020
:10561000222901D0022010BD8168B1F5805F11D030
:105620000169002901681FD0496801F07F03816A80
:105630004A1C82620B70C18D491E0904090CC18588
:1056400018D02BE00269816A002A0268526805D0EE
:10565000D2B20A80816A491C8162ECE7C2F3080277
:105660000A80816A891CF7E74A68816A4B1C836259
:105670000A70E0E70168CA6822F02002CA60016887
:10568000CA6822F48072CA6001684A6922F0010285
:105690004A61202180F83A10FDF76CFF002010BD10
:1056A0002DE9F041044600680169E26821F44051A7
:1056B000114301612169A068E269084361691143EE
:1056C00008432168CA6849F20C639A430243CA60DE
:1056D00020684169A26921F4407111434161E06988
:1056E000192764253226B0F5004F354A3549206820
:1056F0004FF0000806D0884201D0904236D1FCF726
:1057000005FE35E0884201D0904202D1FCF7FEFD53
:1057100001E0FCF7EBFD61684A18A0FB070148EBCC
:105720000803FAF7ADFD0146B0FBF5F00201B1FB4D
:10573000F5F06FF01803584301EB800006EBC00052
:10574000B0FBF5F000F0F80002EB4002B1FBF5F021
:10575000584301EB800006EBC000B0FBF5F000F011
:105760000700216810448860BDE8F081FCF7BEFDA9
:1057700061688B0F8A00A0FB0701FAF781FD0146E3
:10578000B0FBF5F06FF01802504301EB800006EB20
:105790000010B0FBF5F000F0F002B1FBF5F002EB09
:1057A0000012B1FBF5F06FF01803584301EB8000D5
:1057B00006EB0010B0FBF5F000F00F00D1E70000A1
:1057C000001401400010014090F83910212901D047
:1057D000022070478168B1F5805F016A0BD04A1CD6
:1057E0000262026809785160C18C491E0904090CE3
:1057F000C1840ED017E009880268C1F30801516026
:1058000001690029016A02D0491C0162ECE7891C88
:10581000FBE70168CA6822F08002CA600068C168BC
:1058200041F04001C160002070472DE9F0419846E9
:1058300017460E460446069D1DE0681C1BD02DB180
:10584000FBF7A6FFA0EB0800A84214D92068C168A6
:1058500021F4D071C1602068416921F001014161EA
:10586000202084F8390084F83A00002084F83800B9
:105870000320BDE8F0812068006836EA000004D00B
:105880000020B842D9D00020F3E70120F9E700005A
:105890002DE9F84F2F4D28680068DFF8C090C0430D
:1058A000DFF8B4B0DFF8B8802E4C40064FF00006A9
:1058B000A9F1200A4FF080571FD49BF8001001294E
:1058C0001BD18BF800602068A0B127A12BA000F0AD
:1058D00067F80122CDF8009000231146206803F0FC
:1058E0004DFCDAF8200028B1C8F80070BFF34F8FE4
:1058F000BFF36F8F1748FDF7CEFB28680068C043E1
:10590000C00622D42068A0B117A11CA000F048F85E
:10591000CDF80090002301220221206803F02EFC24
:10592000DAF8200028B1C8F80070BFF34F8FBFF33A
:105930006F8F28680168406800908BF80060054808
:10594000FDF7A9FB0E48FDF756F9BDE8F84F0148F1
:10595000FDF7CEBB1CD8002006000020F00100207F
:1059600004ED00E0C4010020646D61207472616E7A
:10597000736D6974206F76657200000025730A00EC
:105980007CD600200148FDF7B3BB00005CD80020A6
:105990000148FDF7ADBB00009CD80020FEE70000E9
:1059A0000FB4054B10B503A9044A029800F03CF867
:1059B00010BC5DF814FB0000296800088402002078
:1059C0000FB4084B10B504A902AA039800F02CF8F4
:1059D000044602A9002000F003F9204610BC5DF83F
:1059E00014FB0000E15B00080907090E002804DB36
:1059F00000F1E02080F80014704700F00F0000F183
:105A0000E02080F8141D704702E008C8121F08C18A
:105A1000002AFAD170477047002001E001C1121F2F
:105A2000002AFBD1704700002DE9FF4F8BB09A464A
:105A30000F460546002606E025280BD052460D9954
:105A400090476D1C761C28780028F5D10FB03046A1
:105A5000BDE8F08F0024A0460122604900E0044325
:105A600015F8013F203B02FA03F00842F7D12878ED
:105A70002E2817D115F8010F44F004042A280ED05F
:105A80006FF02F022878A0F1300109290AD808EB1D
:105A9000880102EB410100EB01086D1CF2E757F8A9
:105AA000048B6D1C287869283ED006DC0028CDD0F8
:105AB00063280BD0642804D136E0732810D07528F1
:105AC0004BD052460D999047761C85E017F8040B91
:105AD0008DF8000000208DF80100E946012003E068
