:020000040800F2
:10000000086801205D0200081F510008493A0008F5
:100010001D510008C3050008A95D0008000000008C
:100020000000000000000000000000009D0100082A
:10003000BD07000800000000F90100088D5100080C
:1000400077020008770200087702000877020008AC
:100050007702000877020008C10700083908000885
:1000600079080008B9080008F908000877020008B4
:10007000B9060008C5060008D1060008DD0600081C
:10008000E9060008F506000877020008AD0600083A
:10009000C505000895060008A106000839090008F2
:1000A000595200080D530008B9520008AD5200081B
:1000B0006D5300087953000885530008593A000829
:1000C0004D3A00087702000877020008770200081E
:1000D0007702000877020008FD5B0008CD5C00088D
:1000E0000108000877020008770200083954000868
:1000F000E5540008BD540008B15400087702000818
:100100007702000877020008915300087702000880
:100110006558000877020008E5530008F15300080D
:10012000770200080107000877020008770200083C
:1001300077020008770200087702000877020008BB
:1001400077020008770200087702000877020008AB
:10015000770200080D07000877020008D95C000844
:10016000770200087702000877020008770200088B
:1001700077020008770200087702000800000000FC
:100180007702000877020008DFF80CD000F0DCF9F5
:100190000048004719900008086801202C4B196896
:1001A0000868B0E8F04F80F30988BFF36F8F4FF015
:1001B000000080F3118870470000000008480068C4
:1001C000006880F308884FF0000080F3148862B65E
:1001D00061B6BFF34F8FBFF36F8F00DF00BF00BF6B
:1001E00008ED00E0DFF80C00016841F470010160E7
:1001F000704700BF88ED00E0EFF30980BFF36F8F19
:10020000134B1A681EF0100F08BF20ED108A20E96A
:10021000F04F106009B44FF0500080F31188BFF325
:100220004F8FBFF36F8F0DF0BBF84FF0000080F3DE
:10023000118809BC19680868B0E8F04F1EF0100F6B
:1002400008BFB0EC108A80F30988BFF36F8F704746
:1002500028100020EFF30580704700000648804713
:1002600006480047FEE7FEE7FEE7FEE7FEE7FEE79B
:10027000FEE7FEE7FEE7FEE73D52000889010008C1
:100280002DE9F05F0546002092469B4688460646CB
:10029000814640241BE0284641464746224600F05E
:1002A000E6F853465A46C01A914110D311461846F3
:1002B000224600F0CDF82D1A67EB01084F46224682
:1002C0000120002100F0C4F817EB00094E41201E68
:1002D000A4F10104DFDC484631462A464346BDE826
:1002E000F09F40EA01039B0703D009E008C9121FF1
:1002F00008C0042AFAD203E011F8013B00F8013BE0
:10030000521EF9D27047D2B201E000F8012B491E0B
:10031000FBD270470022F6E710B513460A460446A2
:100320001946FFF7F0FF204610BD421C10F8011BD4
:100330000029FBD1801A7047034611F8012B00F801
:10034000012B002AF9D1184670470EB5C10F80EA7B
:10035000E0700844CA07002140F233438DE80E00E4
:100360000A460B4600F0A2F803B000BD0EB540F2FD
:10037000334102910021CDE900110A460B4600F0FD
:1003800095F803B000BD70B5C1F30A5201F0004505
:100390000024C1F3130140F2FF3341F480119A426B
:1003A00001DA002070BD40F233439A42A2F2334298
:1003B00003DC524200F05BF800E090402C43F1D0A7
:1003C000404270BD30B5041E71F1000404DB4FF0F3
:1003D0000044404264EB0101141E73F1000405DB8C
:1003E0001C464FF00043524263EB04038B4208BFAC
:1003F000824230BD30B5041E71F1000404DB4FF0C1
:100400000044404264EB0101141E73F1000405DB5B
:100410001C464FF00043524263EB0403994208BF6D
:10042000904230BD30B50B46014600202022012409
:1004300009E021FA02F59D4205D303FA02F5491BB2
:1004400004FA02F52844151EA2F10102F1DC30BDC8
:10045000202A04DB203A00FA02F100207047914084
:10046000C2F1200320FA03F3194390407047202A79
:1004700004DB203A21FA02F00021704721FA02F34E
:10048000D040C2F12002914008431946704710B590
:10049000141E73F1000408DA401C41F100019218A7
:1004A0005B411A4301D120F0010010BD2DE9F04D50
:1004B00092469B4611B1B1FA81F202E0B0FA80F2A5
:1004C00020329046FFF7C4FF04460F4640EA0A0078
:1004D00041EA0B0153465A46084313D0114653EAEA
:1004E000010019D0C8F140025046FFF7C0FF054691
:1004F0000E46504659464246FFF7AAFF084305D02C
:10050000012004E020463946BDE8F08D0020054377
:1005100046EAE0762C4337430A986305E40AA0EBE9
:1005200008000022FD0A44EA47540A3002D50020A0
:100530000146E9E7010510196941DDE9084500199F
:100540006941BDE8F04DA2E7064C074D06E0E068C2
:1005500040F0010394E8070098471034AC42F6D30A
:10056000FFF716FE20EB000840EB000870B58C1872
:1005700010F8015B15F0070301D110F8013B2A11B7
:1005800006D110F8012B03E010F8016B01F8016BA4
:100590005B1EF9D12B0705D40023521E0DD401F8A0
:1005A000013BFAE710F8013BCB1A921C03E013F869
:1005B000015B01F8015B521EF9D5A142D8D300209E
:1005C00070BDFEE700B5194891B0006828B300215E
:1005D000174809AA0DF1010300F03FFB08B100F034
:1005E00029FA14480068F0B10023134A69460DF057
:1005F000D5F8012801D011A100E014A11BA005F03D
:10060000D5FB0D481838806938B119494FF0805032
:100610000860BFF34F8FBFF36F8F11B004485DF8D0
:1006200004EB00F08EBB13A1E8E70000D00F002020
:10063000781E0020E00F00201010002071756575F5
:1006400065206F766572666C6F77000073656E6407
:10065000206D65737361676520746F2071756575B2
:100660006520616C726561647900000025730A0081
:1006700004ED00E073656E64206D61737465722033
:100680006F72646572207175657565206572726F31
:1006900072000000014800F054BB0000781E0020EA
:1006A000014800F04EBB0000781E0020014800F019
:1006B00048BB0000781E0020014800F061BE000029
:1006C000BC050120014800F05BBE00009C04012035
:1006D000014800F055BE00001C060120014800F052
:1006E0004FBE0000FC040120014800F049BE00009C
:1006F0005C050120014800F043BE0000FC0201201F
:10070000014800F03DBE0000DC060120014800F079
:1007100037BE00007C06012001681823CAB2103AD7
:10072000B2FBF3F2054B6FF30901032A9B5CC3652F
:1007300000D9091D8165084670470000B0E900082E
:1007400010B5014600208B698A6A4FF0C07453B11E
:10075000B3F5005F15D072B1012A0CD0022A0AD07D
:10076000032A09D104E01AB1012A06D0022A03D1D2
:10077000C96AC90100D5012010BDC96AA142FAD0D9
:1007800010BD002AF7D0012AF2D0022AF3D0032AA2
:10079000F3D010BD30B50468256825F480252560A8
:1007A000046863608368402B036803D09960006825
:1007B000C26030BD9A600068C16030BD7047000003
:1007C0000D4810B50068C00710D00C4CB4F880116B
:1007D000D4F8840101F0F6F884F87F0120790F281D
:1007E00004D194F84402401E84F84402BDE810404D
:1007F000012000F0FFBF0000143C0140581400200D
:1008000010B54FF4806000F0F5FF4FF4006000F089
:10081000F1FF4FF4805000F0EDFF4FF4005000F076
:10082000E9FF4FF4804000F0E5FFBDE810404FF4D1
:10083000004000F0DFBF00000D4810B500688007E1
:1008400010D50C4CB4F88C11D4F8900101F0BAF822
:1008500084F88B0120790F2804D194F84402401EBB
:1008600084F84402BDE81040022000F0C3BF00003D
:10087000143C0140581400200D4810B50068400792
:1008800010D50C4CB4F89811D4F89C0101F09AF8EA
:1008900084F8970120790F2804D194F84402401E6F
:1008A00084F84402BDE81040042000F0A3BF00001B
:1008B000143C0140581400200D4810B50068000792
:1008C00010D50C4CB4F8A411D4F8A80101F07AF8B2
:1008D00084F8A30120790F2804D194F84402401E23
:1008E00084F84402BDE81040082000F083BF0000F7
:1008F000143C0140581400200D4810B50068C00693
:1009000011D50C4CB4F85016D4F8540601F05AF82E
:1009100084F84F0694F8D404112804D194F81407ED
:10092000401E84F81407BDE81040102000F062BF9C
:10093000143C01405814002070B53C4D28683C4CD4
:10094000800610D5B4F85C16D4F8600601F03AF8C9
:1009500084F85B0694F8D404112804D194F81407A1
:10096000401E84F814072868400610D5B4F86816AD
:10097000D4F86C0601F026F884F8670694F8D404DD
:10098000112804D194F81407401E84F8140728682D
:10099000000610D5B4F8B818D4F8BC0801F012F865
:1009A00084F8B70894F83C07122804D194F87C091D
:1009B000401E84F87C092868C00510D5B4F8C41816
:1009C000D4F8C80800F0FEFF84F8C30894F83C0788
:1009D000122804D194F87C09401E84F87C09286808
:1009E000800510D5B4F8D018D4F8D40800F0EAFF88
:1009F00084F8CF0894F83C07122804D194F87C09B5
:100A0000401E84F87C09202000F0F4FE402000F015
:100A1000F1FE802000F0EEFE4FF4807000F0EAFE60
:100A2000BDE870404FF4007000F0E4BE143C01409B
:100A300058140020704790F82020012A07D0022A7D
:100A400005D0416A41F4802141620120704700686D
:100A500042690A43426100207047F0B590F8205087
:100A60000468A468012D05D0022D03D0416A41F429
:100A7000802153E014F0406F01D1E5004BD5C4F361
:100A80000164022C03D9416A41F4000146E00125CA
:100A9000A5401D608D684FF4C0739DB1CE6835438D
:100AA0004E6845EAC605066803EB0417F5514FF496
:100AB000C275076805EB04150E697E51097D012991
:100AC00005D009E00E88CD6845EA4655EBE7016898
:100AD0004E5946F480764E511179D2F805504FF4B4
:100AE000C67641EA0525016806EB04168D5111789A
:100AF000D2F801204FF4C47541EA0221026805EBE7
:100B000004155151006803EB0411425842F00102F0
:100B100042500020F0BD416A41F4001141620120C1
:100B2000F0BD000010B590F82020012A07D0022A5D
:100B300005D0416A41F480214162012010BD3B484B
:100B4000D0F8002242F00102C0F80022D0F80022C2
:100B500022F47C52C0F80022D0F800224B6A42EA0C
:100B60000322C0F800220A7D02F01F0301229A40EE
:100B7000D0F81C329343C0F81C32CB69B3B9D0F81B
:100B80000C329343C0F80C328C894B6864F31F43DA
:100B90004C6900EBC404C4F840320C890B6864F360
:100BA0001F434C6900EBC404C4F84432CB69012BE9
:100BB00016D1D0F80C321343C0F80C320C884B68B5
:100BC00064F31F434C6900EBC404C4F840320C8941
:100BD000CB6864F31F434C6900EBC404C4F844328F
:100BE0008B69002BD0F804320ED01343C0F80432C6
:100BF0000B69002BD0F8143208D01343C0F814321C
:100C0000096A012904D008E09343EFE79343F5E72D
:100C1000D0F81C121143C0F81C12D0F8001221F0B9
:100C20000101C0F80012002010BD00000064004067
:100C300010B504000ED000F0B9FA204600F00CFA0E
:100C40002068016841F4004101600020606284F87E
:100C5000200010BD012010BD704730B590F8204035
:100C6000012C05D0022C03D0416A41F480215DE0C3
:100C70000468002955D02469A40754D04FF4D874CF
:100C8000056804EB01142D5915F0040595600568FD
:100C90002D594ED0ED08556005682C5904F002041A
:100CA000D4604FF4DA74056804EB01142D5905F093
:100CB0000F05156105682D59C5F307259561056870
:100CC0002C59240C54614FF4DC72046802EB0112BD
:100CD000A4581C700468A458240A5C700468A458C2
:100CE000240C9C700468A258120EDA704FF4DE7265
:100CF000046802EB0112A4581C710468A458240A69
:100D00005C710468A458240C9C710468A258120EEB
:100D1000DA71006881B1016941F0200101610020B0
:100D200030BDE468A8E7416A41F400114162012046
:100D300030BD6D0D1560AFE7C16841F02001C160A5
:100D4000EDE72DE9F05F0546006800244669D0F81C
:100D500004908768D0F80CB0D0F810A0D0F81880B4
:100D6000F10748D0F90714D001218160B80703D5F5
:100D7000284600F04CFA0CE0780702D54FF40064E6
:100D800007E0380702D54FF4805402E0284600F00F
:100D90003DFAF80516D529684FF480708860B805CB
:100DA00003D5284600F035FA0CE0780502D544F466
:100DB000005407E0380502D544F4804402E0284698
:100DC00000F026FAF80316D529684FF480308860C1
:100DD000B80303D5284600F01EFA0CE0780302D5CC
:100DE00044F4004407E0380302D544F4803402E0C0
:100DF000284600F00FFA300707D55FEACB6004D52C
:100E00002968102044F40074C86070074FF0080788
:100E100007D55FEA0B7004D52868C760284600F044
:100E200093F9B00706D52868C068800702D0284625
:100E300000F08BF9700607D55FEACA6004D529680F
:100E4000102044F480640861B00607D55FEA0A7098
:100E500004D528680761284600F078F9F00606D521
:100E600028680069800702D0284600F070F9B003B6
:100E700008D55FEAC96005D5296810204860284672
:100E800000F066F9F00307D55FEA097004D5286819
:100E90004760284600F0C0F9300446D55FEA497043
:100EA00040D5F00504D55FEAC87001D044F00104D4
:100EB000B00504D55FEA887001D544F002047005DE
:100EC00004D55FEA487001D544F00404300529D503
:100ED00018F0700F26D008F07000402815D006DCFE
:100EE000102809D020280AD0302816D10AE050282E
:100EF0000ED0602811D10EE044F008040DE044F05B
:100F000010040AE044F0200407E044F0400404E048
:100F100044F0800401E044F480742868816921F081
:100F200070018161296804204860002C05D0686A3E
:100F3000204368622846FFF78FFEBDE8F09F70B53A
:100F4000040003D094F8200010B104E0012070BD2B
:100F5000204600F0A5F82068016821F00201016038
:100F600000F042FD0546052604E000F03DFD401B73
:100F70000A2811D8206840688007F6D420680168E4
:100F800041F00101016000F02FFD05460BE000F08B
:100F90002BFD401B0A2806D9606A40F400306062CD
:100FA00084F82060D2E720684068C007EFD0207E38
:100FB0000128206801683DD021F080010160607E39
:100FC00001282068016838D021F040010160A07E2E
:100FD00001282068016833D021F020010160E07E03
:100FE0000128206801682ED041F010010160207FA7
:100FF00001282068016829D021F008010160607F84
:1010000001282068016824D021F004010160D4E99E
:1010100002010843D4E90412114308436168491EE0
:1010200008432168C86100206062012084F8200024
:10103000002070BD41F08001C0E741F04001C5E7EC
:1010400041F02001CAE721F01001CFE741F008018B
:10105000D4E741F00401D9E710B500680D49884292
:1010600016D10D48016821F00071016003210B4881
:1010700000F00AFB132001F05BF9142001F058F98D
:10108000152001F055F9BDE81040162001F050B9C7
:1010900010BD00000064004040380240000C0240D7
:1010A00010B586B0044614216846FFF733F923498A
:1010B000206888423FD122480021026842F0007235
:1010C0000260006800F0007005901D48103802684A
:1010D00042F0080202600068022200F00800059059
:1010E0000320CDE90210CDE90002092004906946F1
:1010F000144800F08BFB00220521132001F036F983
:10110000132001F026F900220521142001F02EF908
:10111000142001F01EF900220521152001F026F906
:10112000152001F016F900220521162001F01EF904
:10113000162001F00EF906B010BD0000006400405A
:1011400040380240000C02407047704770477047BB
:101150007047000070B5044690F82000012804D0C4
:10116000606A40F40020606218E0022084F82000E9
:101170002068016821F00101016000F035FC05469E
:101180000EE000BF00F030FC401B0A2808D9606A5E
:1011900040F400306062052084F82000012070BD1A
:1011A00020684068C007EDD1606270BD70B504462C
:1011B00090F82000022804D0606A40F48010606239
:1011C00014E02068016841F00101016000F00CFCAE
:1011D00005460DE000F008FC401B0A2808D9606AAB
:1011E00040F400306062052084F82000012070BDCA
:1011F00020684068C007EDD02068016821F0020136
:101200000160012084F82000002070BD7047704705
:101210007047704770477047704710B5040002D0A0
:10122000607910B106E0012010BD00202071204639
:1012300000F004F801206071002010BD08B50068BE
:101240000649884208D10648016841F4805101608E
:10125000006800F48050009008BD0000003002409B
:10126000303802402DE9F0410446876D00F0BCFBA8
:10127000064694F835000025022806D080206065D7
:1012800084F834500120BDE8F0812068016821F025
:10129000160101602068416921F080014161206CE4
:1012A00008B9A06C20B12068016821F00801016034
:1012B0002068016821F0010101600BE000F094FB5F
:1012C000801B052806D92020606504F8345F0320C0
:1012D0006070D8E720680068C007EFD194F85C1010
:1012E0003F208840B86004F8345F0120607000201F
:1012F000C9E790F83510022903D08021416501200B
:101300007047052180F835100068016821F001015F
:1013100001600020704770B504002BD094F83500B0
:10132000022826D02068016821F0010101602068B0
:101330000025056020684560206885602068C560DC
:10134000206805612168212048612046FFF7E4F903
:10135000E56325646564A564E564256594F85C200F
:101360003F2191408160656584F8355084F83450A0
:10137000002070BD012070BD90F83500704700005E
:101380002DE9F84304464FF00009CDF8009063487A
:101390004FF41651A56D0068B0FBF1F72E6894F874
:1013A0005C10082000FA01F131420FD021680A6870
:1013B00052070BD50A6822F004020A6094F85C1008
:1013C0008840A860606D40F00100606594F85C1092
:1013D0004FF0010808FA01F0304208D0216849694D
:1013E000090604D5A860606D40F00200606594F8BD
:1013F0005C1004208840304208D0216809688907C1
:1014000004D5A860606D40F00400606594F85C103D
:1014100010208840304218D021680968090714D587
:10142000A86020680168490304D50068000308D556
:10143000A16C07E00168C90503D4016821F0080127
:101440000160216C09B12046884794F85C10202087
:101450008840304231D021680968C9062DD5A8607E
:1014600094F8350005282068016806D0490347D55F
:10147000006800031DD4616C1CE021F016010160BE
:101480002068416921F080014161206C08B9A06C9D
:1014900020B12068016821F00801016094F85C1017
:1014A0003F208840A86084F8349084F83580216D0E
:1014B0001FE0E16B09B120468847606D00282BD002
:1014C000606DC00714D0052084F8350020680168DD
:1014D00021F0010101600098401C0090B84203D83F
:1014E00020680068C007F6D184F8349084F835800D
:1014F000E16C002910D001B02046BDE8F043084758
:101500000168C905D5D4016821F01001016084F893
:10151000349084F83580CCE7BDE8F88324100020AF
:101520002DE9F041044600F05FFA06465CB1002563
:1015300084F83450022084F835002068016821F0D6
:10154000010101600DE00120BDE8F08100F04CFADE
:10155000801B052805D920206065032084F835000C
:10156000F2E720680068C007F0D1226811682048BF
:101570000140D4E901031843D4E903363343184347
:1015800063691843A3691843E3691843236A18433E
:101590000843616A042903D1D4E90B1319430843B2
:1015A000106020684069666A20F0070130460E43EB
:1015B000012704280CD1A06A0643E06A40B1204606
:1015C000FFF7BEF820B14020606584F83570BAE7B7
:1015D000206846612046FFF79FF894F85C203F2181
:1015E00091408160656584F835700020ACE70000AB
:1015F0003F8010F02DE9F0410446866D90F83400EC
:10160000002501280DD0012084F8340094F83570AD
:101610000020012F07D084F8340002252846BDE8B9
:10162000F0810220FBE7022784F8357060652046D0
:10163000FFF7B0F894F85C103F208840B060206855
:10164000016841F016010160206C20B1206801683A
:1016500041F0080101602068016841F0010101606A
:10166000DCE7000070B5044600F0BEF90546601CDA
:1016700002D004480078044400F0B6F9401BA042B0
:10168000FAD370BD181000202DE9F04F0022DFF8CA
:1016900038B101264FF00F0906FA02F401EA0403FB
:1016A000A3427DD122F003075F44D7F8088895074D
:1016B0004FEA157C09FA0CFA0AEA0805DFF80C81F2
:1016C000404502D14FF0000832E0DFF80481404588
:1016D00002D14FF001082BE0DFF8F880404502D13D
:1016E0004FF0020824E0DFF8F080404502D14FF0CF
:1016F00003081DE0DFF8E480404502D14FF0040804
:1017000016E0DFF8DC80404502D14FF005080FE01D
:10171000DFF8D080404502D14FF0060808E0DFF83E
:10172000C880404502D14FF0070801E04FF008089B
:1017300008FA0CF8A84522D12C4DD5F800C02CEAA7
:10174000030CC5F800C005F1040CDCF800509D4303
:10175000CCF800500CF10405D5F800C02CEA030CBD
:10176000C5F800C02D1DD5F800C02CEA030CC5F843
:1017700000C0D7F8085825EA0A05C7F808580568D0
:1017800057000323BB409D430560D50800EB85054A
:10179000D5F820C057074FEAD76809FA08F700E0E4
:1017A0000CE02CEA070CC5F820C0C5689D43C56055
:1017B0004568A543456084689C438460521C102A98
:1017C000FFF46AAFBDE8F08F003001400000024036
:1017D0000004024000080240000C024000100240D9
:1017E0000014024000180240001C0240003C01406E
:1017F00070470000044910B50A68024202D0086030
:10180000FFF7F6FF10BD0000143C01402DE9F84F32
:1018100000224FF0010803254FF00F0E0B6808FA65
:1018200002F42340A3426ED14E68012E05D0022E51
:1018300003D0112E01D0122E12D186684FEA420C2D
:1018400005FA0CF7BE43CF6807FA0CF737438760F9
:101850004668A6430C79C4F30014944034434460B2
:10186000C668570005FA07FC8C6826EA0C06BC40DF
:101870003443C4604C68022C01D0122C13D1D4081C
:1018800000EB8404A346D4F8209054074FEAD46AAE
:101890000EFA0AF629EA06090E6906FA0AF646EA77
:1018A0000906CBF8206006680C7926EA0C0604F0DD
:1018B0000304BC40344304604C68E40065D5364CF6
:1018C000266846F480462660246822F0030604F465
:1018D00080440094314C3444A446D4F80848960718
:1018E000370F0EFA07F6B4432D4EB04201D1002651
:1018F00024E02C4EB04201D101261FE02A4EB04216
:1019000002D102261AE040E0284EB04201D103265F
:1019100014E0274EB04201D104260FE0254EB0421C
:1019200001D105260AE0244EB04201D1062605E089
:10193000224EB04201D1072600E00826BE402643D1
:10194000CCF808681E4E34684F689C43FF0300D5EE
:101950001C4334601A4C241D26684F689E43BF0305
:1019600000D51E432660164E083634684F689C43E7
:10197000FF0200D51C433460114E0C3634684F68AA
:101980009C43BF0200D51C433460521C102AFFF454
:1019900045AFBDE8F88F00004438024000300140F8
:1019A000000002400004024000080240000C024017
:1019B000001002400014024000180240001C0240C7
:1019C000003C01400069084000D001207047426996
:1019D00031EA020200D10904816170470AB18161D4
:1019E00070470904FBE70000014880687047000069
:1019F00018100020704770472DE9F0410168044637
:101A00004A694E6890F83E000025D743FA0506D48F
:101A1000F243D20503D46FF4807201254A61B905FF
:101A200008D4F143C90505D422686FF4007145F06C
:101A300002055161790525D4F143C90522D4638D8E
:101A400094F83D10226B202808D13BB9212910D0F1
:101A500029290ED0282901D1212A0AD022686FF421
:101A60008061516145F00405102806D0402804D05B
:101A700008E0204602F020FC04E02068016841F400
:101A800000710160380508D4F043C00505D4216811
:101A90006FF4006045F008054861002D07D0206C08
:101AA000284320642046BDE8F04102F01FB8BDE89D
:101AB000F0812DE9F041026800245168C56A90F870
:101AC0003E3090F83D60102B1CD0402B1AD0036C98
:101AD000002B7ED053694FF02805DB439F0779D454
:101AE000CF43BF0576D4016C01B1946990F83D30C5
:101AF00000219D430B467FD0C91E516180F83C30C8
:101B0000BDE8F081946953694FF42A07DB435FEA2B
:101B1000C37C4FF02A4604D0BD42F1D0B542EFD08D
:101B200010E0CD43AD050DD4C16AB94201D1012108
:101B300003E0C16AB14201D10821C162BDE8F041B0
:101B400002F03EBB1D0716D4CD43AD0513D4416C46
:101B5000C9B21161416B11B9826B002AD0D0C96B37
:101B600019B9816BC96B0029CAD00068416841F47A
:101B700000614160C4E79D0706D4CD43AD0503D4A1
:101B8000BDE8F04102F090BAE443526864074FEABE
:101B9000025215D4002AB3DB1A0608D4CA435205F0
:101BA00005D45A0705D5BDE8F04102F021BA5A071D
:101BB000A6D4C9438905A3D4BDE8F04102F0CEB94B
:101BC000002A9DDB5A060CD4CA43520509D45A0791
:101BD00002E00FE023E00FE005D5BDE8F04102F0A0
:101BE000AFB85A078CD4C943890589D4BDE8F04100
:101BF00002F03DB894696DE7556825F4806555603D
:101C0000E243540700D50121120601D5828900E084
:101C1000028B80F83C3092B2FFF7EDFE70E7DC06F5
:101C200006D4CC43A40503D4BDE8F04102F086BB42
:101C3000212E27D0292E25D05C0655D4CC4364050F
:101C400052D45B0752D590F83D10438D002B91D0B4
:101C50001269436A1A70426A521C4262428D521ED5
:101C60004285428D002A85D12A29D7D101684A6848
:101C700022F480624A602221016380F83D5000F026
:101C8000DDFA3DE71C0623D4CC43640520D45B0772
:101C900020D590F83D10438D002BBFD0436A1B78B0
:101CA0001361426A521C4262428D521E4285428D2D
:101CB000002AB3D12929B1D101684A6822F480628F
:101CC0004A602121016380F83D5000F0B8FA17E71F
:101CD0005B07A3D4C9438905A0D4418D00299DD0B9
:101CE000416A097811610AE05B0797D4C943890505
:101CF00094D4418D002991D01169426A1170416AD2
:101D0000491C4162418D491E4185F9E6704700003A
:101D100070B5040025D094F83D00002520B984F862
:101D20003C50204600F044FA242084F83D0020680E
:101D3000016821F0010101602068016841F400415F
:101D400001602068016821F40041016000F0FAFBA5
:101D50004D4A6168914201D84C4900E04C498842A3
:101D600001D2012070BD4B492368B0FBF1F15E68E0
:101D700026F03F060E435E606368934206D94FF437
:101D8000967359434FF47A73B1FBF3F12368491CFE
:101D90001E6A26F03F06314319626168914210D8ED
:101DA0004900401EB0FBF1F2521CC2F30B02042AA0
:101DB00001D2042022E0B0FBF1F0401CC0F30B0084
:101DC0001CE0A268F2B301EBC10303EB0116431E52
:101DD000B3FBF6F35B1C43F480431B0549D092B37D
:101DE00001EBC10202EB0111401EB0FBF1F0401CFF
:101DF000C0F30B0040F4804040F400402168CA6901
:101E00004CF6FF739A431043C861D4E907100143AD
:101E10002068026822F0C00211430160D4E9030186
:101E200001432068826848F2FF339A43114381607E
:101E3000D4E9050108432168CA6822F0FF02104373
:101E4000C86001E00EE016E02068016841F0010181
:101E500001602564202084F83D00256384F83E500D
:101E6000002070BD01EB4106431EB3FBF6F35B1C83
:101E7000B3E70120C2E701EB4101401EB0FBF1F0E6
:101E8000401CC0F30B00B7E7A086010080841E0051
:101E900000093D0040420F00704770477047000046
:101EA0002DE9F84F1F4690468A460446DDF82890F3
:101EB000FFF79AFD054694F83D00202875D11923B7
:101EC00001226C492046009502F00CFB0028F5D158
:101ED00094F83C00012868D0012084F83C00206878
:101EE0000168C90703D1016841F001010160206860
:101EF000016821F400610160222084F83D00102077
:101F000084F83E0000262664C4F824806785608D2E
:101F100020855948E0622B464A465146204601F04A
:101F200059FF002878D1208D544F68B1012814D072
:101F300002282068016816D041F4806101602068A1
:101F400041698069009087E020684169816900915A
:101F5000016841F4007101607EE02068016821F4AD
:101F600080610160F0E721F4806101602068016810
:101F700041F40061E2E7032848D801280AD002288A
:101F800014D04B46002239462046009502F0AAFAAA
:101F9000D8BB27E02A464946204602F022FBA0BBD8
:101FA00020680069616A08704DE061E04B460022DC
:101FB00039462046009502F095FA30BB206801684A
:101FC00041F40071016020680069616A0870606A0C
:101FD000401C6062218D491E2185618D491E6185ED
:101FE00021682EE02068016821F48061016020688A
:101FF0000069616A0870606A401C6062208D401E42
:102000002085608D401E6085D0E705E02A46494660
:10201000204602F0E6FA10B10120BDE8F88F2068F2
:102020000069616A0870606A401C6062218D491E07
:102030002185618D491E618521684A69D243520715
:102040000AD409690170606A401C6062208D401EDC
:102050002085608D401E6085208D00288BD120203A
:1020600084F83D0084F83E6084F83C600020D4E7AA
:102070000220D2E7020010000000FFFF0400010070
:102080002DE9F84F1F4690468A460446DDF8289011
:10209000FFF7AAFC054694F83D0020287FD11923BC
:1020A000012240492046009502F01CFA002876D112
:1020B00094F83C00012872D0012084F83C0020688C
:1020C0000168C90703D1016841F00101016020687E
:1020D000016821F400610160212084F83D00102096
:1020E00084F83E0000262664C4F824806785608D4D
:1020F00020852D48E0622B464A465146204601F095
:10210000DFFE90B9206841698069009036E02A4678
:102110004946204602F098FA50B1206C042804D1B8
:102120002068016841F4007101600120BDE8F88F6A
:10213000606A216800780861606A401C6062618D95
:10214000491E6185218D491E89B221852268536906
:10215000DB435B070BD451B100781061606A401C0F
:102160006062608D401E6085208D401E20852A465D
:102170004946204602F090F90028CED1208D002853
:10218000C5D154F83D0B016841F400710160202075
:1021900004F81E09E67766770020C7E7FFE702200C
:1021A000C4E70000020010000000FFFF7047704706
:1021B00010B586B0044614216846FEF7ABF81C49FA
:1021C0002068884231D11B48016841F0020101605A
:1021D0000068694600F0020005904FF440700090DE
:1021E000122001900120029003200390042004900B
:1021F0001148FFF70BFB0F481030016841F4001144
:1022000001600068002200F40010059005211F20E5
:1022100000F0ACF81F2000F09CF8002205212020DF
:1022200000F0A4F8202000F094F806B010BD0000E3
:1022300000540040303802400004024070477047AC
:1022400002488168027811448160704718100020AC
:102250000B4810B5016841F400710160016841F458
:1022600080610160016841F480710160032000F029
:102270009DF8002000F006F800F03EF8002010BDA8
:10228000003C024010B5014688B00022362000F024
:102290006DF8362000F05DF813480024016841F025
:1022A00010010160006805A900F010000690684662
:1022B00000F028F900F046F90C494000B0FBF1F1BC
:1022C0000C480B4A491E026040F2E732C0E9032481
:1022D000C0E9011400F09CFB10B1012008B010BD52
:1022E000044800F079FDF9E74038024040420F0011
:1022F000001000403C0701200C4882B0016841F406
:1023000080410160006800F4804000900748001F91
:10231000016841F0805101600068002200F08050A7
:1023200000900F21901E02B000F020B84438024007
:1023300000280DDB00F01F020121914040098000C0
:1023400000F1E020C0F88011BFF34F8FBFF36F8F13
:102350007047002809DB00F01F020121914040096D
:10236000800000F1E020C0F800117047F0B40E4B7F
:102370001B680C46C3F30223C3F10705042D00D9E3
:102380000425191D072901D2002300E0DB1E0126C8
:1023900006FA05F1491E214099409E40761E1640DE
:1023A0003143F0BC03F026BD0CED00E0064900F01F
:1023B000070208684FF6FF03184040EA0220034A6C
:1023C00010430860704700000CED00E00000FA05C3
:1023D0002DE9F0470E46050065D0DFF81481D8F8E6
:1023E0000000F7B200F00F00B04207D288F800708A
:1023F000D8F8000000F00F00B04254D128683D4CDE
:10240000810712D5400703D5206840F4E0502060D2
:102410002878000703D5206840F4604020602068D9
:10242000A96820F0F000084320602878C0072DD06C
:10243000304968680839012812D0022813D00328CF
:1024400011D00968890700292DDA216821F00301DC
:1024500001432160FFF7C8FA814641F2883A0EE055
:1024600009688903EFE709688901ECE7FFF7BCFA1F
:10247000A0EB0901514502D90320BDE8F08720688F
:10248000696800F00C00B0EB810FEFD1D8F80010B4
:10249000404601F00F01B14207D90770006800F013
:1024A0000F00B04201D00120E7E72878400705D5AA
:1024B0002068E96820F4E05008432060287800078D
:1024C00006D52068296920F4604040EAC1002060F8
:1024D00000F058F82168084AC1F30311515CC84064
:1024E0000649086006480068FFF7CCFE0020C4E7F4
:1024F000003C024008380240B8E9000824100020DF
:102500001C1000200F2202600C4A136803F0030322
:102510004360136803F0F0038360136803F4E0532F
:10252000C36012684FF4E05303EAD2020261044828
:10253000006800F00F000860704700000838024093
:10254000003C02400448054900680968044AC1F398
:102550008221515CC8407047241000200838024096
:10256000C8E900080448054900680968044AC1F33D
:102570004231515CC84070472410002008380240A6
:10258000C8E90008154810B5006810F00C0214489E
:1025900013D01449042A0FD0082A0ED10F4C241F3F
:1025A0002268236802F03F025B0207D52068C0F36F
:1025B0008810A0FB010106E0084610BD2168C1F3A8
:1025C0008811A1FB00010023FDF75AFE2168C1F329
:1025D0000141491C4900B0FBF1F010BD0838024030
:1025E0000024F40040787D012DE9F84F040076D0F6
:1025F0002078DFF838A3CE4DC00749D0DAF80010B4
:102600005046C1F38101012908D00068C0F3810060
:1026100002280AD1281D0068400206D528688003D8
:1026200036D560680028E2D032E06068B0F5803FBF
:1026300010D0B0F5A02F286810D020F4803028608A
:10264000286820F4802028606068A0B1FFF7CCF9EA
:1026500006460CE0286840F48030F4E740F480201F
:102660002860F7E7FFF7C0F9801B642873D8286853
:102670008003F7D50CE0FFF7B7F9064605E000BF89
:10268000FFF7B2F9801B6428F0D828688003F7D4DC
:102690002078DFF8A08280074FF000093ED5DAF8F5
:1026A0000010504611F00C0F09D00068C0F38100F3
:1026B00002280BD19D48001F0068400206D42868FC
:1026C000800715D5E068012809D111E0E068B8B1AC
:1026D0000120C8F80000FFF787F9064605E020E171
:1026E000FFF782F9801B0228C0D828688007F7D539
:1026F0002868216920F0F80040EAC10028600DE058
:10270000C8F80090FFF770F9064604E0FFF76CF98F
:10271000801B02281FD828688007F7D4207800077C
:1027200022D5824E844861696C3671B10121016005
:10273000FFF75AF9074604E0FFF756F9C01B0228D5
:1027400009D830688007F7D50EE0C0F80090FFF791
:102750004BF9074605E082E0FFF746F9C01B022867
:102760007DD830688007F7D42078400768D5DFF837
:10277000BCB100270BF1380BDBF80000C0000BD414
:10278000DBF8001041F08051CBF80010DBF80000BE
:10279000012700F080500090684E3068C00510D4CA
:1027A000306840F480703060FFF71EF9009005E05B
:1027B000FFF71AF90099401A022850D83068C0056E
:1027C000F6D55A4EA068683601280FD00528306823
:1027D00010D020F001003060306820F0040030603C
:1027E000A068B8B1FFF700F900900FE0306840F042
:1027F0000100F4E740F004003060F7E7FFF7F4F879
:102800000099411A41F28830814266D830688007C9
:10281000F4D50EE0FFF7E8F8009007E0FFF7E4F8E2
:102820000099411A41F28830814256D830688007B9
:10283000F4D42FB1DBF8001021F08051CBF8001058
:10284000A069D0B3DAF800205146C2F38102022A0F
:102850004AD00228484607D0C8F8600000E03CE0B3
:10286000FFF7C2F804463BE04746C8F86000FFF7B0
:10287000BBF8064605E000BFFFF7B6F8801B02284C
:102880002BD828688001F7D4D4E907010843A16A4E
:102890002B4A490802EB0141626A41EA821108436E
:1028A00094F82C1040EA01612048001F01600120CB
:1028B0003866FFF799F8044605E034E0FFF794F82E
:1028C000001B022809D828688001F7D52BE000BF3B
:1028D000FFF78AF8001B022802D90320BDE8F88F11
:1028E00028688001F4D41EE00128F7D00868E26966
:1028F00000F48001914214D1226A00F03F0191421C
:102900000FD147F6C071626A0140914209D1A26AB3
:1029100000F44031914204D1E16A00F070608842D5
:1029200001D00120DAE70020D8E700000838024093
:102930000038024000004742800E474200700040CD
:102940000000FFFF7047704770B590F83C20012AE7
:1029500032D0012480F83C40022280F83D200368F8
:102960005A689D6822F070060A6832435A60134B19
:1029700002689A4214D0B2F1804F11D0104B9A42A3
:102980000ED0104B9A420BD00F4B9A4208D00F4BEF
:102990009A4205D00E4B9A4202D00E4B9A4204D175
:1029A000496825F080031943916080F83D4000217B
:1029B00080F83C10084670BD022070BD0000014048
:1029C0000004004000080040000C004000040140EA
:1029D000004001400018004010B50446022084F871
:1029E0003D002068016A41F21112114207D1016ACB
:1029F0009210114203D1016821F0010101602046CB
:102A000000F022F8002084F83D0084F83C0010BD5E
:102A100010B5040003D094F83D0010B107E0012088
:102A200010BD002084F83C00204600F097F80220FA
:102A300084F83D00211D206802F0AAFD012084F8E1
:102A40003D00002010BD000001683748374A814230
:102A500005D1106820F0010010601B2036E03348DB
:102A6000001FB1F1804F08D0314B99420BD1016862
:102A700021F0020101601D2028E0016821F0010120
:102A800001601C2022E02B4B994205D1016821F006
:102A9000040101601E2019E0274B994205D101680D
:102AA00021F008010160322010E0244B994205D149
:102AB000016821F020010160372007E0204B994296
:102AC00006D1106820F0020010602E20FFF730BC05
:102AD0001C4B994203D1106820F4803005E01A4B5A
:102AE000994204D1106820F4003010607047174BF1
:102AF000994203D1106820F48020F6E7144A9142ED
:102B000003D1016821F0400105E0124A914204D14D
:102B1000016821F08001016070470F4A9142FBD1AA
:102B2000016821F48071F6E700000140443802405A
:102B30000004004000080040000C00400014004069
:102B400000040140004001400044014000480140B1
:102B500000180040001C00400020004008B501683B
:102B60009048914A814226D1106840F001001060DF
:102B70001068002200F00100009005211820FFF7E6
:102B8000F5FB1820FFF7E5FB002205211920FFF7D0
:102B9000EDFB1920FFF7DDFB002205211A20FFF7CE
:102BA000E5FB1A20FFF7D5FB002205211B20FFF7CC
:102BB000DDFB1B20F0E07C48001FB1F1804F11D0FD
:102BC0007A4B99421DD1016841F002010160006811
:102BD000002200F00200009005211D20FFF7C6FB37
:102BE0001D20D9E0016841F0010101600068002268
:102BF00000F00100009005211C20FFF7B7FB1C200E
:102C0000CAE06B4B99420ED1016841F004010160AA
:102C10000068002200F00400009005211E20FFF74C
:102C2000A5FB1E20B8E0634B99420ED1016841F02C
:102C3000080101600068002200F0080000900521F2
:102C40003220FFF793FB3220A6E05B4B99420ED176
:102C5000016841F0200101600068002200F02000BE
:102C6000009005213720FFF781FB372094E0534B7C
:102C7000994226D1106840F00200106010680022CE
:102C800000F00200009005212B20FFF76FFB2B20A6
:102C9000FFF75FFB002205212C20FFF767FB2C20AC
:102CA000FFF757FB002205212D20FFF75FFB2D20AA
:102CB000FFF74FFB002205212E20FFF757FB2E20A8
:102CC0006AE03F4B99420ED1106840F480301060AA
:102CD0001068002200F48030009005211820FFF7D2
:102CE00045FB182058E0374B99420ED1106840F44C
:102CF000003010601068002200F4003000900521C0
:102D00001920FFF733FB192046E02F4B99420ED1D3
:102D1000106840F4802010601068002200F48020C9
:102D2000009005211A20FFF721FB1A2034E0274AE2
:102D300091420ED1016841F040010160006800221B
:102D400000F04000009005212B20FFF70FFB2B2007
:102D500022E01F4A91420ED1016841F080010160DA
:102D60000068002200F08000009005212C20FFF771
:102D7000FDFA2C2010E0174A914211D1016841F46C
:102D8000807101600068002200F4807000900521CD
:102D90002D20FFF7EBFA2D20BDE80840FFF7D9BA48
:102DA00008BD00000000014044380240000400401B
:102DB00000080040000C00400014004000040140E6
:102DC000004001400044014000480140001800401C
:102DD000001C0040002000400168CA6842F0010267
:102DE000CA600068816801F00701062903D0016804
:102DF00041F00101016000207047022180F83D1080
:102E000001680A6A41F211131A4207D10A6A9B103B
:102E10001A4203D10A6822F001020A60012180F8F7
:102E20003D100020704770B5044690F83C00012822
:102E300017D0012584F83C50022084F83D0020681A
:102E4000826822F0770222F47F428260086850286C
:102E500030D00DDC20284DD005DC98B310283BD1B4
:102E600048E0022070BD302844D0402834D139E0F9
:102E7000602828D0702806D0B0F5805F2CD0B0F53F
:102E8000005F29D10AE0CB68D1E90121206802F076
:102E9000F0FB2068816841F0770109E0CB68D1E957
:102EA0000121206802F0E5FB2068816841F480413F
:102EB000816011E0CA684968206802F0AFFC5021C7
:102EC000206807E016E0CA684968206802F0B7FC8D
:102ED0006021206802F0D7FB84F83D50002084F880
:102EE0003C0070BDCA684968206802F097FC402128
:102EF0002068EFE7226801461046EBE7704770B59F
:102F00000446006801694FF00005C943890715D4DC
:102F1000C168C943890711D4E91E016101202077E6
:102F2000206880698007204602D0FFF7E7FF04E0B1
:102F300000F000F9204600F082F925772068016949
:102F4000C943490717D4C168C943490713D46FF06F
:102F500004010161022020772068806910F4407F1D
:102F6000204602D0FFF7CAFF04E000F0E3F8204655
:102F700000F065F9257720680169C943090716D46F
:102F8000C168C943090712D46FF008010161042028
:102F900020772068C0698007204602D0FFF7AEFF87
:102FA00004E000F0C7F8204600F049F925772068D2
:102FB0000169C943C90617D4C168C943C90613D4F6
:102FC0006FF010010161082020772068C06910F4BB
:102FD000407F204602D0FFF791FF04E000F0AAF8FE
:102FE000204600F02CF9257720680169C943C907FC
:102FF00008D1C168C943C90704D1891E01612046AF
:1030000000F040F920680169C943090609D4C16884
:10301000C943090605D46FF0800101612046FFF71E
:1030200091FC20680169C943490609D4C168C943B4
:10303000490605D46FF040010161204600F02CF9EB
:1030400020680169C94389060BD4C168C943890650
:1030500007D46FF0200101612046BDE87040FFF702
:1030600072BC70BD30B587B0044614216846FDF7C8
:1030700051F9246828480022284902230125844266
:103080000ED1086840F010000860086800F01000D9
:10309000059048150090CDE901326946204821E0AD
:1030A0002048B4F1804F10D01F4DAC4220D10C68A5
:1030B00044F001040C60096801F001010591402110
:1030C0000091CDE90132694623E00C6844F0010427
:1030D0000C60096801F00101059120210091CDE902
:1030E00001326946CDE90325FEF790FB07B030BDFC
:1030F0000E488442FAD1086840F008000860086869
:10310000694600F008000590A0140090CDE9013256
:103110000748CDE90323E7E70000014030380240CB
:10312000001002400000024000040040000800407F
:10313000000C0240704770B5044690F83C000D4604
:1031400001280DD0012684F83C60022084F83D005F
:1031500042B1042A18D0082A2AD00C2A4DD139E0CD
:10316000022070BD206802F097FA2068816941F062
:10317000080181612068816921F004018161206872
:1031800081692A69114311E0206802F0B5FA2068CC
:10319000816941F4006181612068816921F4806165
:1031A0008161206881692A6941EA0221816124E004
:1031B000206802F0D7FA2068C16941F00801C161B6
:1031C0002068C16921F00401C1612068C1692A69D0
:1031D000114311E0206802F0F9FA2068C16941F456
:1031E0000061C1612068C16921F48061C16120680A
:1031F000C1692A6941EA0221C16184F83D60002069
:1032000084F83C0070BD10B5040003D094F83D0074
:1032100010B107E0012010BD002084F83C002046DA
:1032200000F00CF8022084F83D00211D206802F017
:10323000AFF9012084F83D00002010BD70477047B1
:1032400010B504460068012202F006FA0B49206816
:10325000884202D00A49884203D1416C41F40041BE
:1032600041642068816801F00701062903D00168E4
:1032700041F001010160002010BD0000000001408C
:103280000004014000680349884201D1FEF7D8BF1D
:103290007047000000100040704710B504460068F9
:1032A000416994F83920C1F3C011212A0BD151B1E1
:1032B000416921F080014161206B08B1FDF7D2FF27
:1032C000204602F04FFB2068416994F83A20C1F390
:1032D0008011222A0BD151B1416921F04001416195
:1032E000606B08B1FDF7BEFF204602F02DFB002009
:1032F00010BD704770B5026804461068D168536904
:1033000010F00F0F52D003F0010501F490762E4318
:103310005FD0C20705D0CA0503D5E26B42F00102B7
:10332000E263420705D5DA0703D0E26B42F00202FE
:10333000E263820705D5DA0703D0E26B42F00402AC
:10334000E263020707D501F020022A4303D0E26BB3
:1033500042F00802E263E26B002A33D0800604D513
:10336000880602D5204602F006FB20684069E16B22
:10337000C0F38010090700D428B3204602F0E4FA15
:103380002068416949061AD5416921F0400141612F
:10339000606BA0B11B490165606BFDF7AAFF0028B7
:1033A00010D0606B016DBDE870400847830610D5F2
:1033B0008B060ED52046BDE8704002F0DCBA2046F0
:1033C000FFF797FF70BD2046FFF793FF0020E063F3
:1033D00070BD030606D50B0604D52046BDE8704037
:1033E00002F0A8BB4006F3D54806F1D5D1682046C7
:1033F00021F04001D160202184F8391000F022FB37
:1034000070BD00007158000870B5040004D094F835
:103410003900002510B106E0012070BD84F8385055
:10342000204600F023F8242084F839002068C16881
:1034300021F40051C160204602F0E8FA20680169D9
:1034400021F4904101612068416921F02A01416124
:103450002068C16841F40051C160E563202084F810
:10346000390084F83A00002070BD00002DE9F04FCB
:1034700087B0044614216846FCF74CFFED48ED4B3D
:10348000DFF8AC83D4F800C0103303210222DFF848
:10349000A8B34027002506154FF00069C4456BD13D
:1034A000D0F800C0AA464CF0040CC0F800C0D0F818
:1034B00000C00CF0040CCDF814C0D3F800C04CF4DC
:1034C000002CC3F800C01B6803F4002305930368B5
:1034D00043F001030360006800F001000590012043
:1034E000CDE90201CDE90012082004906946584652
:1034F000FEF78CF9DFF84883D0494046C8F8001041
:10350000C0E90195C0E90356C8F81450C8F818502E
:10351000C8F81C50C8F82050C8F82450FEF700F82E
:1035200008B1FDF787FAC64DC4F83480C34860354A
:10353000C8F838403030AF60C5E90009C5E903A6D6
:10354000C5F814A0C5F818A0C5F81CA0C5F820A09F
:103550002846C5F824A0FDF7E3FF08B1FDF76AFA95
:103560002563002205213420AC63FEF7FFFE3420E2
:10357000FEF7EFFEB3488DE0DFF8CC82DFF8B4E26F
:103580004FF0070A0EF1140EC44521D1DEF80040B9
:1035900044F01004CEF80040DEF8003003F01003D1
:1035A0000593036843F0010303600068CDE902510D
:1035B00000F0010005904FF4C060CDE90002CDF8A5
:1035C00010A069465846FEF721F907B0BDE8F08F14
:1035D000DFF87882C44563D1D3F800C04CF4003CD6
:1035E000C3F800C01B6803F400330593036843F07D
:1035F0000103036000680DF1080800F00100059068
:103600000C20CDE90002012088E8030469465846F1
:10361000FEF7FCF8DFF82C828849A8F160084046E4
:10362000C8F80870C0E90356C8F81450C8F8185014
:10363000C8F81C506031C8F82050C8E90019C8F813
:103640002450FDF76DFF08B1FDF7F4F97C4F7B487E
:10365000C4F83080C0374830C8F838403860C7E90F
:103660000195C7E903567D61BD61FD613D62384644
:103670007D62FDF755FF08B1FDF7DCF967630022B5
:1036800005212620BC63FEF771FE2620FEF761FEB1
:103690006C4880300068C16841F01001C16094E757
:1036A000DFF8AC81C44562D1D3F800C0A8464CF421
:1036B000802CC3F800C01B6803F4802305930368C3
:1036C00043F0080303600068CDE9025100F00800F0
:1036D00005904FF44070CDE90002CDF810A0694686
:1036E0005C48FEF793F85549DFF86CA1183950464D
:1036F000CAF80010C0E90195C0E90356CAF8145091
:10370000CAF81850CAF81C50CAF82050CAF82450F9
:10371000FDF706FF08B1FDF78DF94F4DC4F834A051
:1037200046486035CAF838401830AF60C5E900092E
:10373000C5E90386C5F81480C5F81880C5F81C8053
:10374000C5F820802846C5F82480FDF7E9FE08B1B9
:10375000FDF770F92563002205212720AC63FEF7F1
:1037600005FE2720FEF7F5FD3548803892E73B4BF4
:103770009C4594D1DEF800C04CF0200CCEF800C07F
:10378000DEF8003003F020030593036843F00403E0
:103790000360006800F004000590C0208DE825005B
:1037A0000820CDE9031069462D48FEF72FF8DFF811
:1037B000A8802C4908F1C0084046C8F80870C0E944
:1037C0000356C8F81450C8F81850C8F81C504FF0E9
:1037D0002069C8F82050C8E90019C8F82450FDF73E
:1037E0009FFE08B1FDF726F91E481F4FC4F8308030
:1037F0007838C8F838403860C7E90195C7E90356FA
:103800007D61BD61FD613D6238467D62FDF788FEE8
:1038100008B1FDF70FF96763002205214720BC635B
:10382000FEF7A4FD4720FEF794FD0548403831E738
:10383000004C00403038024000000240406002402E
:103840009C0401205C030120001001400044004062
:1038500000480040000C0240BC050120001401405B
:1038600000080240A0640240DC060120F8B50446CE
:1038700090F83A0020283CD1C1B3BAB394F838008C
:10388000012836D0012084F83800A162A2850025E5
:10389000E563222084F83A00636B1748D863636BB2
:1038A00016481864636B1648D864606B1346056548
:1038B0000846666B216802463046091DFDF79AFEF0
:1038C000206801684168009184F83850C16841F46B
:1038D0008071C1602068416941F001014161206847
:1038E000416941F0400141610020F8BDFFE701203E
:1038F000FBE70220F9E70000CB5800080759000851
:1039000081580008704770472DE9F843044690F845
:1039100039001F4616460D46202850D1B5B1AEB12C
:1039200094F8380001284AD0012084F838004FF07C
:103930000008C4F83C80212084F83900FEF754F8D0
:10394000A6848146E68484F8388026E00120BDE81C
:10395000F883E08C401EE084A0684B46B0F5805FA1
:103960004FF000024FF080012046009703D002F094
:1039700012F9E8B90DE002F00EF9C8B928882168FB
:10398000C0F308004860206908B16D1C05E0AD1C5B
:1039900003E0216815F8010B4860E08C0028D8D1BD
:1039A0004B46002240212046009702F0F4F808B16F
:1039B0000320CCE7202084F839000020C7E702204C
:1039C000C5E7000070B5044690F83900202830D1D2
:1039D00069B362B394F8380001282AD0012084F832
:1039E00038002162A284E2840025E563212084F866
:1039F0003900236B1048D863236B10481864236B7D
:103A00000F48D864206B134605652668206B321D6D
:103A1000FDF7F0FD21686FF04000086084F8385031
:103A20002068416941F080014161002070BD0120A2
:103A300070BD022070BD0000115900083F590008F8
:103A40008158000870477047FEE700000148FDF705
:103A5000D3BF000068FF00200148FEF72AB800002D
:103A600068FF002010B5806B90F83D20436B00216B
:103A700003B1D963836B03B1D96303681C6824F471
:103A800080641C604185436B03B11965836B03B18E
:103A9000196503681C6824F001041C6090F83D401F
:103AA0002023602C0BD0282434EA02020FD080F8A7
:103AB0003D3080F83E1000BFFEF728F910BD80F8B9
:103AC0003D3080F83E100164FDF794FF10BD0268A0
:103AD000136843F0010313600268136843F48063C2
:103AE0001360016380F83D40E6E7000070B50446CE
:103AF00090F83D0094F83E10102906D1222804D1F8
:103B000021680A6822F400620A60282131EA000272
:103B10004FF000054FF0200626D0216849680905BE
:103B200003D4602801D084F83D60256384F83E50BA
:103B300020684168090537D5416821F4006141607A
:103B4000606B90F835203C49012A11D00165606B0B
:103B5000FDF7CFFB38B32068016821F00101016057
:103B600084F83D60606B1CE0256384F83D10DFE75E
:103B7000A06B0165A06BFDF7BCFBA0B1206841699B
:103B8000C943490605D40069616A0870606A401C2F
:103B900060622068016821F00101016084F83D60E5
:103BA000A06B016D884710E094F83D10602910D09B
:103BB0004169C943490605D40069616A0870606AB1
:103BC000401C60622046FEF7A1F8206CC1071CD1A2
:103BD00015E084F83D6025644169C943490605D470
:103BE0000069616A0870606A401C60622068016850
:103BF00021F0010101602046FDF7FCFEE5E78107A9
:103C000003D4410701D4000704D52068416821F49A
:103C1000E061416094F83D00216C49070BD52828EC
:103C200009D10648E062256384F83D6084F83E507F
:103C30002046FEF731F970BD653A00080000FFFF2D
:103C400001684A69D24352050FD46FF480624A6119
:103C5000002140F8301F202242738173026942F034
:103C6000040202610173012070470020704710B503
:103C7000C26A438D0168042B06D0438D032B08D004
:103C8000438D022B1DD012E04A6822F480624A6004
:103C90000CE04B6823F480634B60042A06D0022AB0
:103CA00004D001680A6822F480620A600168096928
:103CB000426A1170416A491C4162418D491E418529
:103CC00010BD012A30D0102A2ED0042A30D0022A6A
:103CD0002ED00A6842F400720A6001680969426ADB
:103CE0001170416A491C4162428D521E4285026830
:103CF00012690A70416A491C4162418D491E418521
:103D000001684A6822F440724A60202180F83D1020
:103D100090F83E200021402A80F83E100CD012215D
:103D20000163FEF7BAF810BD0A6822F48062D3E797
:103D30000A6842F48062CFE70163FEF737FA10BDEC
:103D400010B590F83D10222914D1418D032912D9C4
:103D500001680969426A1170416A491C4162418DDA
:103D6000491E4185418D032904D10068416821F431
:103D70008061416010BDC26A022AFBD0012901D0D6
:103D80000029F7D101680A6822F480620A6001689C
:103D90004A6822F4E0624A6001680969426A117067
:103DA000416A491C4162418D491E4185202180F8AC
:103DB0003D1090F83E200021402A80F83E1004D0AB
:103DC00012210163FEF769F810BD0163FEF7EEF9F9
:103DD00010BD00002DE9F84F0446C06A1E46934608
:103DE0000D4621680A6842F480620A60082807D0FC
:103DF000012805D010F5803F02D0206B112804D196
:103E00002068016841F4807101604FF001195B4640
:103E1000002249462046009600F064FB4FF40078EB
:103E200040B120680068C00501D5C4F84080032077
:103E3000BDE8F88F2069DFF884A0B0F5804F0FD07F
:103E40000620216800EAD51747F0F00008613346E4
:103E50005A460AF10601204600F078FB58BB03E001
:103E6000E8B240F001001CE02168E8B20861334686
:103E70005A465146204600F069FBE0B92068416986
:103E800081690091016841F4807101605B46002204
:103E900049462046009600F025FB0028C1D147F096
:103EA000F1002168086133465A465146204600F029
:103EB0004DFB0028BCD00120BAE700000200010041
:103EC000F8B50446C06A1E460D461746082807D0B6
:103ED000012805D010F5803F02D0206B122804D1B4
:103EE0002068016841F480710160134600224FF0A0
:103EF00001112046009600F0F5FA40B120680068F4
:103F0000C00502D54FF4007020640320F8BD20697D
:103F1000B0F5804F0ED00620216800EAD51040F0A1
:103F2000F000086133463A460B49204600F00EFB8C
:103F300078B902E005F0FE0000E0E8B2216808610F
:103F4000054933463A46891F204600F0FFFA00280B
:103F5000DCD00120F8BD00000800010010B5C26AE5
:103F600090F83D10212907D090F83E1040290FD13C
:103F7000BDE8104000F06AB9418D51B1416A026854
:103F800009781161416A491C4162418D491E418590
:103F900010BD20230021082A13D0202A11D012F5A9
:103FA000803F0ED00268546824F4E064546011220B
:103FB000026380F83E1080F83D3000BFFDF76EFFD1
:103FC00010BD0268546824F4E06454600268146808
:103FD00044F400741460016380F83D3090F83E2092
:103FE00080F83E10402AE9D1FEF7E1F810BD00004C
:103FF00010B590F83D1090F83E30C26A048DB4B10F
:10400000212903D0402B11D122290FD1418DE1B3B9
:1040100090F83E10402942D0416A02680978116147
:10402000416A491C4162418D491E418510BD2129CB
:10403000E8D120230021082A13D0202A11D012F51C
:10404000803F0ED00268546824F4E064546011226A
:10405000026380F83E1080F83D3000BFFDF71EFF80
:1040600010BD0268546824F4E06454600268146867
:1040700044F400741460016380F83D3090F83E20F1
:1040800080F83E10402AE9D100E002E0FEF78FF808
:1040900010BD0068416821F48061416010BDBDE839
:1040A000104000F0D3B8000078B590F83E50C26AD6
:1040B000036B90F83D6000240168222E7AD1066DD2
:1040C0000EB9402D76D0056D1DB90569B5F5404F87
:1040D00009D0458D05B3468D384D012E0ED0438D48
:1040E000022B3AD05DE04A698A6900920A6842F47C
:1040F00080720A60016D491C016578BDAA4213D126
:104100000A6822F480620A6001684A68120503D5D1
:104110000A6822F4806216E04A698A6900920A6895
:1041200042F400720A6039E0082A10D0202A0ED02A
:10413000122B0AD0042A03D0022A01D0102AE7D178
:104140000A6842F480620A6024E0012AE0D00A682A
:1041500022F480620A600168DEE7042A21D0022A84
:104160001FD0102A1DD00B6823F480630B600168F8
:104170000B6843F400630B6001684B681B0509D5AD
:10418000AA4212D0012A10D0082A0ED0102A0CD030
:10419000202A0AD001684A6989690091046578BDBE
:1041A00008E00B6843F48063E5E74A6842F4805214
:1041B0004A60EFE7486988690090F0E70000FFFF78
:1041C00090F83E10402910D00169B1F5804F19D008
:1041D000016DA9B3016D012910D1416C5FF0F102AD
:1041E00001F4407142EAD11106E0016D0029416CF1
:1041F00005D0C9B241F0010100680161704701F0CA
:10420000FE01F9E790F83D102129416C09D0C9B2AF
:1042100041F0010102681161416B29B1C96B49B9D3
:1042200002E001F0FE01F5E7816B0029E6D0C96BE1
:104230000029E3D00068416841F4006141607047A3
:10424000FFE7416CF02201F44071CBE7016DC1B191
:10425000016D012923D0016D022911D190F83D1083
:10426000222923D090F83D10212909D1416A026802
:1042700009781161416A491C4162418D491E41859D
:104280007047C16C0129816C02D0C1F3072108E09D
:104290000268C9B21161016D891C01657047816CAA
:1042A000C9B202681161016D491CF6E70068016836
:1042B00041F48071016070472DE9F04190F83D4074
:1042C000C26A002320261C4F01686FF48065082A0B
:1042D00001D0202A01D1282C04D0212C16D04D61E8
:1042E000BDE8F081C7624A6822F4E0624A60016872
:1042F0004D6101680A6822F480620A60036380F8F5
:104300003D6080F83E30FDF7C7FDE9E7C762212236
:10431000026380F83D6080F83E304A6822F4E06233
:104320004A6001684D6101680A6822F480620A608F
:10433000FDF785FFD4E700000000FFFFF8B590F817
:104340003D6004460068416821F4E06141602068F6
:10435000002541690091016841F001010160206878
:10436000016821F48061016020684168090520D559
:10437000474F222E48D02A2E46D0616B09684968E3
:104380006185618D19B1216C41F00401216441689E
:1043900021F400614160606BFCF7EEFF012808D05A
:1043A000606B0765606BFCF7A4FF10B1606B016D7B
:1043B0008847608D08B320684169C943490708D41C
:1043C0000069616A0870606A401C6062608D401E0E
:1043D000608520684169C943490608D40069616A5B
:1043E0000870606A401C6062608D401E6085608D50
:1043F00018B1206C40F004002064206C00B320460B
:10440000BDE8F840FFF772BBA16B09684968618598
:10441000618D19B1216C41F004012164416821F4DE
:1044200000614160A06BFCF7A7FF0128C1D0A06B21
:104430000765A06BFCF75DFF0028BAD0A06BB6E75C
:104440002A2E06D12563282084F83D002046FDF75A
:10445000F5FE94F83D10202028290DD0216B22294B
:1044600001D0222E07D1256384F83D0084F83E5008
:104470002046FDF7E3FEF8BD0649E162256384F8B6
:104480003D0084F83E502046FDF706FDF8BD0000D3
:10449000653A00080000FFFF70B516460D46044659
:1044A0000DE02046FFF7CCFB08B1012070BD681C71
:1044B00005D0FDF799FA801BA84207D835B12068CE
:1044C0004069C0434007ECD4002070BD002044F890
:1044D000300F20216173A073216941F02001216117
:1044E0002073E2E72DE9F0471E4690460D4604464C
:1044F000C1F30747DDF8209008E0701C06D0FDF7F7
:1045000073FAA0EB0900B0420FD876B12068012FF2
:1045100018D0806925EA00000004000C14D00021A6
:104520004145EAD00020BDE8F087002044F8300F74
:1045300020216173A073216941F020012161207362
:104540000120F0E74069E5E70121E9E72DE9F047BF
:104550009A4691460E46044600254FF02008C1F3C6
:10456000074725E020684069C043400514D420680F
:10457000016841F40071016021686FF48060486156
:10458000256384F83D8084F83E50206C40F00400A0
:10459000206484F83C501FE0B9F1FF3F08D0FDF7DC
:1045A00023FAA0EB0A0149450CD8B9F1000F09D054
:1045B0002068012F13D0806926EA00000004000C57
:1045C0000BD0CFE744F8305F84F80D80A5732069E5
:1045D00040F02000206125730120BDE8F08740698C
:1045E000EAE72DE9F041002590460E4604462027D3
:1045F00017E04069C043C0060CD454F8301B6FF07C
:104600001000486144F810596777A577206A206246
:10461000257717E0FDF7E8F9A0EB0800B04208D8CD
:104620003EB120684169C9434906E2D40020BDE893
:10463000F08144F8305F6773A573206940F0200073
:10464000206125730120F2E770B516460D46044639
:104650000DE02046FFF7F4FA08B1012070BD681C98
:1046600005D0FDF7C1F9801BA84207D835B12068F5
:104670004069C0430006ECD4002070BD002044F81F
:10468000300F20216173A073216941F02001216165
:104690002073E2E70D4810B50B490160102141601D
:1046A00000218160C16001614161017641768176BE
:1046B000C17601774177FCF742FC002803D0BDE8C2
:1046C0001040FCF7B7B910BD00640040781E002010
:1046D000074910B5054808600846FCF79EFD00280C
:1046E00003D0BDE81040FCF7A5B910BD0030024072
:1046F000A00F0020294808B5016841F400110160AD
:10470000016801F400110091016841F48001016029
:104710000068002200F48000009005210C20FDF7C5
:1047200025FE0C20FDF715FE002205210D20FDF7CA
:104730001DFE0D20FDF70DFE002205210E20FDF7C8
:1047400015FE0E20FDF705FE002205210F20FDF7C6
:104750000DFE0F20FDF7FDFD002205211020FDF7C5
:1047600005FE1020FDF7F5FD002205211120FDF7C3
:10477000FDFD1120FDF7EDFD002205213920FDF79B
:10478000F5FD3920FDF7E5FD002205214520FDF767
:10479000EDFDBDE808404520FDF7DBBD30380240A7
:1047A00030B54FF48075ADB0574A4421284605F026
:1047B00015F9564C544A442160631832284605F0D6
:1047C0000DF9A063524A0021524805F041F9504AC0
:1047D000206024320021504805F03AF94C4A6060CC
:1047E000483200214D4805F033F9494AA0606C3247
:1047F00000214B4805F02CF9454AE0609032002139
:10480000484805F025F9424A2061B4320021464863
:1048100005F01EF93E4A6061D8320021434805F098
:1048200017F9394AA061D83A0021414805F010F93A
:10483000354AE061B43A00213E4805F009F9324AB0
:104840002062903A00213C4805F002F92E4A60624D
:104850006C3A0021394805F0FBF82B4AA062483A2F
:104860000021374805F0F4F8274AE062243A002195
:10487000344805F0EDF8244920632422303168469D
:10488000FBF72FFD6A4600212F4805F0E1F81E498D
:10489000E0632422543109A8FBF723FD09AA002173
:1048A0002A4805F0D5F8184920642422783112A846
:1048B000FBF717FD12AA0021254805F0C9F8124997
:1048C000606424229C311BA8FBF70BFD1BAA00216E
:1048D000204805F0BDF80C49A0642422C03124A86A
:1048E000FBF7FFFC24AA00211B4805F0B1F8E064A7
:1048F00004F0F0FD07F00AF908F00EF901F06AFC87
:1049000004F06EF92DB030BDCCE80008A80F0020EF
:10491000F8E600082151000829C10008B1C60008C6
:10492000B9BB000851BC00089DC70008BDBD000808
:104930006DC10008B5C90008B1BB00087DBE000804
:1049400021BE0008B9C1000875C2000841C60008B0
:10495000BDC3000801C6000891C500082DE9F04F4D
:1049600087B014216846FBF7D5FC6E480024016827
:1049700041F010010160016801F01001059101682A
:1049800041F020010160016801F0200105910168FA
:1049900041F001010160016801F001010591016828
:1049A00041F002010160016801F002010591016816
:1049B00041F008010160016801F0080105910168FA
:1049C00041F040010160016801F04001059101687A
:1049D00041F0040101600068534F00F004000590AD
:1049E000002246F68B013846FCF7F8FFDFF83C81E1
:1049F0004FF4C076002231464046FCF7EFFFDFF867
:104A00003091002248F601414846FCF7E7FFDFF805
:104A100024A100224FF460415046FCF7DFFFDFF88D
:104A200018B100224C215846FCF7D8FF742001250C
:104A30008DE8310069463846FCF7E8FE47F68B60A2
:104A40000090CDE90154694638460394FCF7DEFE38
:104A50004FF6FF7000903948CDE9010569463848A6
:104A6000FCF7D4FE0096CDE9015469464046039414
:104A7000FCF7CCFE4CF6C1400090CDE901546946EC
:104A800048460394FCF7C2FE4EF208400090CDE980
:104A90000154694650460394FCF7B8FE4C20009040
:104AA000CDE90154694658460394FCF7AFFE002255
:104AB00005210620FDF75AFC0620FDF74AFC0022DE
:104AC00005210720FDF752FC0720FDF742FC0022DC
:104AD00005210820FDF74AFC0820FDF73AFC0022DA
:104AE00005210920FDF742FC0920FDF732FC0022D8
:104AF00005210A20FDF73AFC0A20FDF72AFC0022D6
:104B000005211720FDF732FC1720FDF722FC0022BB
:104B100005212820FDF72AFC2820FDF71AFC07B004
:104B2000BDE8F08F30380240001002400000024023
:104B300000040240000C0240001802400000311046
:104B4000001402400D4810B50B4901600C4941604A
:104B500000214FF480428160C0E903120322C0E9C2
:104B60000512C1610162FDF7D3F8002803D0BDE84A
:104B70001040FBF75FBF10BD0054004068FF0020ED
:104B8000A08601000C4810B50A49016044F29F114B
:104B90004160002140F2F312C0E90212016180215C
:104BA0008161FDF735FF002803D0BDE81040FBF719
:104BB00041BF10BD00440140BC0101200C4810B5AC
:104BC0000A49016044F29F114160002142F20F72D4
:104BD000C0E90212016180218161FDF719FF0028FF
:104BE00003D0BDE81040FBF725BF10BD00480140D1
:104BF000FC0101201FB50021104800910191029194
:104C00000D4A0391026042F2CF02C0E90121DB228A
:104C1000C0E903218161FDF7FBFE08B1FBF70AFF44
:104C20004FF48050009069460448FEF7FCF80028D5
:104C300001D0FBF7FFFE1FBD001800403C02012021
:104C40000C4810B50A49016042F2CF0141600021D1
:104C500040F2F312C0E9021201618161FDF7D8FE52
:104C6000002803D0BDE81040FBF7E4BE10BD0000F3
:104C7000001C00407C0201200B4810B5094901606E
:104C80005321416000216322C0E9021201618021A9
:104C90008161FDF7BDFE002803D0BDE81040FBF7A1
:104CA000C9BE10BD00200040BC02012070470000BA
:104CB00010B58EB000240794089409940A940B94BC
:104CC0001C2168460C94FBF725FB1F484FF08041E0
:104CD00001605321C0E9011440F2E731C0E9031437
:104CE00080218161FDF794FE08B1FBF7A3FE4FF42C
:104CF0008050079007A91448FEF795F808B1FBF714
:104D000099FE1148FEF77FFA08B1FBF793FE0B946A
:104D10000BA90D480C94FDF717FE08B1FBF78AFEAE
:104D20006020009040F2F310CDE9010400226946B2
:104D300005480494FEF7FFF908B1FBF77BFE024833
:104D4000FEF790F90EB010BDFCFF002010B58EB03C
:104D500000240794089409940A940B941C21684633
:104D60000C94FBF7D7FA20481E4901605321C0E993
:104D7000011440F2E731C0E9031480218161FDF79D
:104D800047FE08B1FBF756FE4FF48050079007A985
:104D90001548FEF748F808B1FBF74CFE1248FEF73D
:104DA00032FA08B1FBF746FE0B940BA90E480C949F
:104DB000FDF7CAFD08B1FBF73DFE6020009040F210
:104DC000F310CDE901040022694607480494FEF778
:104DD000B2F908B1FBF72EFE0348FEF743F90EB017
:104DE00010BD0000000400403C00012010B58EB052
:104DF00000240794089409940A940B941C21684693
:104E00000C94FBF787FA20481E4901605321C0E942
:104E1000011440F2E731C0E9031480218161FDF7FC
:104E2000F7FD08B1FBF706FE4FF48050079007A985
:104E30001548FDF7F8FF08B1FBF7FCFD1248FEF737
:104E4000E2F908B1FBF7F6FD0B940BA90E480C94A0
:104E5000FDF77AFD08B1FBF7EDFD6020009040F210
:104E6000F310CDE901040022694607480494FEF7D7
:104E700062F908B1FBF7DEFD0348FEF7F3F80EB068
:104E800010BD0000000800407C00012010B586B075
:104E90000024184800940194029403940494144943
:104EA0000594016042F2CF01C0E9011441F287315B
:104EB000C0E9031480218161FDF7AAFD08B1FBF769
:104EC000B9FD4FF48050009069460A48FDF7ABFFEA
:104ED00008B1FBF7AFFD049404A906480594FDF75B
:104EE00033FD002801D0FBF7A5FD06B010BD000082
:104EF000000C0040BC0001201CB500240F480094A9
:104F00000D490194016042F2CF01C0E9011442F25F
:104F10000F71C16080218161FDF77AFD08B1FBF757
:104F200089FD0094694605480194FDF70DFD0028B0
:104F300001D0FBF77FFD1CBD00140040FC000120E8
:104F400010B586B00024184800940194029403948C
:104F5000049414490594016044F29F11C0E90114BE
:104F600040F2DB51C0E903148021C0E90541FDF79F
:104F70004FFD08B1FBF75EFD4FF48050009069468D
:104F80000948FDF750FF08B1FBF754FD049404A94C
:104F900005480594FDF7D8FC002801D0FBF74AFD31
:104FA00006B010BD000401403C0101201FB50021E6
:104FB00011480091019102910E4A0391026044F25E
:104FC0009F12C0E9012140F21F32C0E90321802174
:104FD0008161FDF71DFD08B1FBF72CFD4FF48050FA
:104FE000009069460448FDF71EFF002801D0FBF73A
:104FF00021FD1FBD004001407C0101200C4810B57F
:105000000A4901604FF4E1314160002181600C22C6
:10501000C160C0E904128161C161FEF7F5F90028A1
:1050200003D0BDE81040FBF705BD10BD004C0040AB
:105030005C0301200C4810B50A4901604FF4E131CE
:105040004160002181600C22C160C0E904128161CD
:10505000C161FEF7D9F9002803D0BDE81040FBF785
:10506000E9BC10BD001001409C0301200E4810B5A2
:105070000C4901604FF4964141604FF480518160CA
:1050800000214FF48062C0E903120C22C0E905211F
:10509000C161FEF7B9F9002803D0BDE81040FBF765
:1050A000C9BC10BD00440040DC0301200C4810B511
:1050B0000A4901604FF4E1314160002181600C2216
:1050C000C160C0E904128161C161FEF79DF9002849
:1050D00003D0BDE81040FBF7ADBC10BD0048004058
:1050E0001C0401200C4810B50A4901604FF4165108
:1050F0004160002181600C22C160C0E9041281611D
:10510000C161FEF781F9002803D0BDE81040FBF72C
:1051100091BC10BD001401405C040120FEE7704703
:1051200008B50025154F164C4FF4FA684FF0FF39BB
:105130004FF40046009543466A464946002008F071
:1051400065FE0098A8B131463846FCF740FC20685F
:10515000401C20600B48009507F0F2FF09490AA0A7
:1051600000F024FE074807F089FF064906A000F07A
:105170001DFE012004F0DCFBDDE70000000402401E
:10518000FC0E0020AC10002025730A0010B5502042
:1051900080F31188BFF34F8FBFF36F8F08F0D2FDFC
:1051A00018B104494FF080500860002080F3118846
:1051B00010BD000004ED00E030B593B0302168462A
:1051C000FBF7A8F814210CA8FBF7A4F81948002550
:1051D000016841F080510160006800F0805011903A
:1051E0001548016841F4804101600068022400F420
:1051F00080401190012003901020009406940490A8
:10520000CDE907504FF4A870CDE9090404200B90B4
:105210006846FDF7E9F90CA90F2081E831004FF449
:10522000A0500F90E002109005210CA8FDF7D0F8D7
:1052300013B030BD4038024000700040054801689E
:1052400041F47001016003494FF00060803908604B
:105250007047000088ED00E00F4808B5006890B185
:105260000E49012200910023114608F0DFFC0B4893
:105270001038006938B10A494FF080500860BFF318
:105280004F8FBFF36F8F0748FDF739FEBDE8084029
:105290000548FDF734BE0000C00F002008100020B4
:1052A00004ED00E0BCFF00207C0101200148FDF777
:1052B00026BE0000BCFF00200F4808B5006890B172
:1052C0000E49012200910023114608F0AFFC0B4863
:1052D0000838806838B10A494FF080500860BFF341
:1052E0004F8FBFF36F8F0748FDF709FEBDE80840F9
:1052F0000548FDF704BE0000AC0F002000100020A0
:1053000004ED00E0BCFF0020FC010120124808B5BC
:1053100000680069C043C00715D11048006890B10B
:105320000F49012200910023114608F07FFC0C4830
:105330001438406938B10B494FF080500860BFF312
:105340004F8FBFF36F8F0848FDF7D9FDBDE80840C8
:105350000148FDF7D4BD0000BC010120B40F0020BE
:105360000C10002004ED00E0BCFF00200148FDF718
:10537000C6BD0000FCFF00200148FDF7C0BD0000D5
:105380003C0001200148FDF7BABD00007C0001206F
:10539000104808B5006890B10F4901220091002320
:1053A000114608F043FC0C48001F406838B10B4917
:1053B0004FF080500860BFF34F8FBFF36F8F0849E5
:1053C0006FF0010009680861BDE808400448FDF776
:1053D00096BD0000BC0F0020FC0F002004ED00E093
:1053E000BC0001200148FDF78ABD00003C070120F8
:1053F0000D4808B5006888B10C49012200910023CE
:10540000114608F013FC0948006838B108494FF00C
:1054100080500860BFF34F8FBFF36F8FBDE8084027
:105420000448FDF76CBD0000A80F0020F80F002015
:1054300004ED00E0FC00012038B5174C206800693D
:10544000C043C0071CD11548006890B114490091B1
:1054500000230122212108F0E9FB11481C38C06912
:1054600038B110494FF080500860BFF34F8FBFF341
:105470006F8F21686FF0010008610B490020086000
:105480000A48FDF73CFD0448FDF739FDBDE838400A
:105490000148FDF7B2BC00003C020120D80F0020FB
:1054A0001410002004ED00E0241800403C0101200D
:1054B0000148FDF724BD00003C010120064810B55D
:1054C0000168491C01600548FDF719FDBDE8104061
:1054D0000348FDF714BD0000380000203C01012006
:1054E000BC020120F8B5234800680069224CC04383
:1054F000224EC0074FF0805511D12148006870B18D
:1055000004F10C01012200910023114608F08EFBEA
:10551000E06820B13560BFF34F8FBFF36F8F194F35
:1055200038680069C043C00718D11748006870B1D7
:10553000114900231C3100910122212108F076FB42
:10554000E06920B13560BFF34F8FBFF36F8F3968CB
:105550006FF0010008610D49002008600548FDF763
:10556000CEFC0848FDF7CBFCBDE8F8400548FDF748
:1055700044BC00003C010120F80F002004ED00E0D5
:10558000B80F00207C020120F00F0020241C0040F6
:10559000F0B50268254C264D264E274F274B4FF07D
:1055A000804CA04209D0604507D0A84205D0B04247
:1055B00003D0B84201D0984204D122F0700E4A685C
:1055C00042EA0E02A0421BD0604519D0A84217D073
:1055D000B04215D0B84213D0984211D0184DA8420D
:1055E0000ED0184DA8420BD0174DA84208D0174D29
:1055F000A84205D0164DA84202D0164DA84203D1AC
:1056000022F44075CA682A434D6922F080022A4379
:1056100002608A68C2620A688262A04201D098422F
:1056200001D10969016301214161F0BD0000014020
:105630000004004000080040000C0040000401404D
:105640000040014000440140004801400018004073
:10565000001C00400020004010B501F01F03012194
:10566000046A99408C430462016A9A4011430162C2
:1056700010BD10B5846842EA032224F47F440A4333
:105680002243826010BD826822F070020A4342F019
:105690000701816070470000F0B5026A22F0010244
:1056A0000262036A42688469124E24F073050C6832
:1056B0002C4323F002058B682B430D4DA84201D0EB
:1056C000B04205D123F00807CB683B4323F0040325
:1056D000A84201D0B04205D14D6922F44072154371
:1056E0008A692A4342608461496841630362F0BD6C
:1056F0000000014000040140F0B5026A22F01002EF
:105700000262026A436884690D6824F4E64444EA4C
:1057100005248D6822F0200242EA05120F4D104E3A
:10572000A84201D0B04206D1CF6822F0800242EAFE
:10573000071222F04002A84201D0B04207D14D69C1
:1057400023F4406343EA85038D6943EA850343609C
:105750008461496881630262F0BD0000000001407D
:1057600000040140F0B5026A22F480720262026A0B
:105770004368C46922F4007224F073050C68124E69
:105780002C438D6842EA05220E4DA84201D0B0425A
:1057900006D1CF6822F4006242EA072222F4806236
:1057A000A84201D0B04207D14D6923F4405343EAE7
:1057B00005138D6943EA05134360C4614968C163F9
:1057C0000262F0BD000001400004014030B5026AF1
:1057D00022F480520262046A4268C3690D6823F4AD
:1057E000E64343EA05238D6824F4005444EA053473
:1057F000084DA84202D0084DA84204D14D6922F4B8
:10580000804242EA85124260C361496801640462D1
:1058100030BD0000000001400004014010B5036AE3
:10582000046A24F001040462846924F0F00444EA68
:10583000021423F00A020A438461026210BD10B50B
:10584000036A23F0100303628369046A23F470433C
:1058500043EA023224F0A00343EA011182610162AB
:1058600010BD00000148FDF745BD00005C030120AC
:1058700010B5806B0021C185C184FDF73AFD10BDD4
:1058800070B5846B2068406994F83910C0F3C0107B
:105890000025212904D118B1E584204600F062F8E2
:1058A0002068406994F83A10C0F38010222904D18E
:1058B00018B1E585204600F047F8E06B40F0100095
:1058C000E0632046FDF715FD70BD10B50146806B05
:1058D00009680968C90513D40021C1850168CA682F
:1058E00022F48072CA6001684A6922F001024A61AA
:1058F00001684A6922F040024A61202180F83A108A
:10590000FEF700F810BD10B5806BFDF7FCFF10BD71
:1059100010B50146806B09680968C9050CD40021DF
:10592000C18401684A6922F080024A610068C16846
:1059300041F04001C16010BDFEF784F810BD10B504
:10594000806BFEF780F810BD0168CA6822F490727F
:10595000CA6001684A6922F001024A61202180F888
:105960003A1070470168CA6822F0C002CA6020215C
:1059700080F83910704710B590F83A10222901D0FC
:10598000022010BD8168B1F5805F11D00169002946
:1059900001681FD0496801F07F03816A4A1C826256
:1059A0000B70C18D491E0904090CC18518D02BE06C
:1059B0000269816A002A0268526805D0D2B20A8060
:1059C000816A491C8162ECE7C2F308020A80816A9D
:1059D000891CF7E74A68816A4B1C83620A70E0E71A
:1059E0000168CA6822F02002CA600168CA6822F40D
:1059F0008072CA6001684A6922F001024A6120216E
:105A000080F83A10FDF77EFF002010BD2DE9F0412F
:105A1000044600680169E26821F4405111430161C4
:105A20002169A068E269084361691143084321685C
:105A3000CA6849F20C639A430243CA60206841690C
:105A4000A26921F4407111434161E069192764257D
:105A50003226B0F5004F354A354920684FF000082E
:105A600006D0884201D0904236D1FCF77BFD35E06C
:105A7000884201D0904202D1FCF774FD01E0FCF7AE
:105A800061FD61684A18A0FB070148EB0803FAF7BB
:105A9000F7FB0146B0FBF5F00201B1FBF5F06FF04A
:105AA0001803584301EB800006EBC000B0FBF5F093
:105AB00000F0F80002EB4002B1FBF5F0584301EBB7
:105AC000800006EBC000B0FBF5F000F00700216895
:105AD00010448860BDE8F081FCF734FD61688B0FED
